{
  "contractName": "BalancerSafeMath",
  "abi": [
    {
      "inputs": [],
      "name": "BONE",
      "outputs": [
        {
          "internalType": "uint256",
          "name": "",
          "type": "uint256"
        }
      ],
      "stateMutability": "view",
      "type": "function",
      "constant": true
    }
  ],
  "bytecode": "0x6092610024600b82828239805160001a607314601757fe5b30600052607381538281f3fe730000000000000000000000000000000000000000301460806040526004361060335760003560e01c8063c36596a6146038575b600080fd5b603e6050565b60408051918252519081900360200190f35b670de0b6b3a76400008156fea26469706673582212200450aa05f85cbf0f9584d15cdc129e305656d1a8ea3920e39806d4c55345a3ed64736f6c63430006060033",
  "immutableReferences": {},
  "source": "// SPDX-License-Identifier: GPL-3.0-or-later\npragma solidity ^0.6.6;\n\n\n/**\n * @author Balancer Labs\n * @title SafeMath - wrap Solidity operators to prevent underflow/overflow\n * @dev badd and bsub are basically identical to OpenZeppelin SafeMath; mul/div have extra checks\n */\nlibrary BalancerSafeMath {\n\n    // State variables (must be constant in a library)\n\n    uint public constant BONE = 10**18;\n\n    /**\n     * @notice Safe addition\n     * @param a - first operand\n     * @param b - second operand\n     * @dev if we are adding b to a, the resulting sum must be greater than a\n     * @return - sum of operands; throws if overflow\n     */\n    function badd(uint a, uint b) internal pure returns (uint) {\n        uint c = a + b;\n        require(c >= a, \"ERR_ADD_OVERFLOW\");\n        return c;\n    }\n\n    /**\n     * @notice Safe unsigned subtraction\n     * @param a - first operand\n     * @param b - second operand\n     * @dev Do a signed subtraction, and check that it produces a positive value\n     *      (i.e., a - b is valid if b <= a)\n     * @return - a - b; throws if underflow\n     */\n    function bsub(uint a, uint b) internal pure returns (uint) {\n        (uint c, bool negativeResult) = bsubSign(a, b);\n        require(!negativeResult, \"ERR_SUB_UNDERFLOW\");\n        return c;\n    }\n\n    /**\n     * @notice Safe signed subtraction\n     * @param a - first operand\n     * @param b - second operand\n     * @dev Do a signed subtraction\n     * @return - difference between a and b, and a flag indicating a negative result\n     *           (i.e., a - b if a is greater than or equal to b; otherwise b - a)\n     */\n    function bsubSign(uint a, uint b) internal pure returns (uint, bool) {\n        if (b <= a) {\n            return (a - b, false);\n        } else {\n            return (b - a, true);\n        }\n    }\n\n    /**\n     * @notice Safe multiplication\n     * @param a - first operand\n     * @param b - second operand\n     * @dev Multiply safely (and efficiently), rounding down\n     * @return - product of operands; throws if overflow or rounding error\n     */\n    function bmul(uint a, uint b) internal pure returns (uint) {\n        // Gas optimization (see github.com/OpenZeppelin/openzeppelin-contracts/pull/522)\n        if (a == 0) {\n            return 0;\n        }\n\n        // Standard overflow check: a/a*b=b\n        uint c0 = a * b;\n        require(c0 / a == b, \"ERR_MUL_OVERFLOW\");\n\n        // Round to 0 if x*y < BONE/2?\n        uint c1 = c0 + (BONE / 2);\n        require(c1 >= c0, \"ERR_MUL_OVERFLOW\");\n        uint c2 = c1 / BONE;\n        return c2;\n    }\n\n    /**\n     * @notice Safe division\n     * @param dividend - first operand\n     * @param divisor - second operand\n     * @dev Divide safely (and efficiently), rounding down\n     * @return - quotient; throws if overflow or rounding error\n     */\n    function bdiv(uint dividend, uint divisor) internal pure returns (uint) {\n        require(divisor != 0, \"ERR_DIV_ZERO\");\n\n        // Gas optimization\n        if (dividend == 0){\n            return 0;\n        }\n\n        uint c0 = dividend * BONE;\n        require(c0 / dividend == BONE, \"ERR_DIV_INTERNAL\"); // bmul overflow\n\n        uint c1 = c0 + (divisor / 2);\n        require(c1 >= c0, \"ERR_DIV_INTERNAL\"); //  badd require\n\n        uint c2 = c1 / divisor;\n        return c2;\n    }\n\n    /**\n     * @notice Safe unsigned integer modulo\n     * @dev Returns the remainder of dividing two unsigned integers.\n     *      Reverts when dividing by zero.\n     *\n     * Counterpart to Solidity's `%` operator. This function uses a `revert`\n     * opcode (which leaves remaining gas untouched) while Solidity uses an\n     * invalid opcode to revert (consuming all remaining gas).\n     *\n     * @param dividend - first operand\n     * @param divisor - second operand -- cannot be zero\n     * @return - quotient; throws if overflow or rounding error\n     */\n    function bmod(uint dividend, uint divisor) internal pure returns (uint) {\n        require(divisor != 0, \"ERR_MODULO_BY_ZERO\");\n\n        return dividend % divisor;\n    }\n\n    /**\n     * @notice Safe unsigned integer max\n     * @dev Returns the greater of the two input values\n     *\n     * @param a - first operand\n     * @param b - second operand\n     * @return - the maximum of a and b\n     */\n    function bmax(uint a, uint b) internal pure returns (uint) {\n        return a >= b ? a : b;\n    }\n\n    /**\n     * @notice Safe unsigned integer min\n     * @dev returns b, if b < a; otherwise returns a\n     *\n     * @param a - first operand\n     * @param b - second operand\n     * @return - the lesser of the two input values\n     */\n    function bmin(uint a, uint b) internal pure returns (uint) {\n        return a < b ? a : b;\n    }\n\n    /**\n     * @notice Safe unsigned integer average\n     * @dev Guard against (a+b) overflow by dividing each operand separately\n     *\n     * @param a - first operand\n     * @param b - second operand\n     * @return - the average of the two values\n     */\n    function baverage(uint a, uint b) internal pure returns (uint) {\n        // (a + b) / 2 can overflow, so we distribute\n        return (a / 2) + (b / 2) + ((a % 2 + b % 2) / 2);\n    }\n}\n",
  "sourcePath": "/Users/arseny/Projects/curvelabs/research/1-balancer-sale/contracts/libraries/BalancerSafeMath.sol",
  "compiler": {
    "name": "solc",
    "version": "0.6.6+commit.6c089d02.Emscripten.clang"
  },
  "schemaVersion": "3.2.5",
  "updatedAt": "2020-10-15T09:49:38.518Z",
  "networkType": "ethereum",
  "devdoc": {
    "author": "Balancer Labs",
    "details": "badd and bsub are basically identical to OpenZeppelin SafeMath; mul/div have extra checks",
    "methods": {},
    "title": "SafeMath - wrap Solidity operators to prevent underflow/overflow"
  },
  "userdoc": {
    "methods": {}
  }
}