{
  "contractName": "ConfigurableRightsPool",
  "abi": [
    {
      "inputs": [
        {
          "internalType": "address",
          "name": "factoryAddress",
          "type": "address"
        },
        {
          "internalType": "string",
          "name": "tokenSymbolString",
          "type": "string"
        },
        {
          "internalType": "address[]",
          "name": "tokens",
          "type": "address[]"
        },
        {
          "internalType": "uint256[]",
          "name": "startBalances",
          "type": "uint256[]"
        },
        {
          "internalType": "uint256[]",
          "name": "startWeights",
          "type": "uint256[]"
        },
        {
          "internalType": "uint256",
          "name": "swapFee",
          "type": "uint256"
        },
        {
          "components": [
            {
              "internalType": "bool",
              "name": "canPauseSwapping",
              "type": "bool"
            },
            {
              "internalType": "bool",
              "name": "canChangeSwapFee",
              "type": "bool"
            },
            {
              "internalType": "bool",
              "name": "canChangeWeights",
              "type": "bool"
            },
            {
              "internalType": "bool",
              "name": "canAddRemoveTokens",
              "type": "bool"
            },
            {
              "internalType": "bool",
              "name": "canWhitelistLPs",
              "type": "bool"
            }
          ],
          "internalType": "struct RightsManager.Rights",
          "name": "rights",
          "type": "tuple"
        }
      ],
      "stateMutability": "nonpayable",
      "type": "constructor"
    },
    {
      "anonymous": false,
      "inputs": [
        {
          "indexed": true,
          "internalType": "address",
          "name": "owner",
          "type": "address"
        },
        {
          "indexed": true,
          "internalType": "address",
          "name": "spender",
          "type": "address"
        },
        {
          "indexed": false,
          "internalType": "uint256",
          "name": "value",
          "type": "uint256"
        }
      ],
      "name": "Approval",
      "type": "event"
    },
    {
      "anonymous": true,
      "inputs": [
        {
          "indexed": true,
          "internalType": "bytes4",
          "name": "sig",
          "type": "bytes4"
        },
        {
          "indexed": true,
          "internalType": "address",
          "name": "caller",
          "type": "address"
        },
        {
          "indexed": false,
          "internalType": "bytes",
          "name": "data",
          "type": "bytes"
        }
      ],
      "name": "LogCall",
      "type": "event"
    },
    {
      "anonymous": false,
      "inputs": [
        {
          "indexed": true,
          "internalType": "address",
          "name": "caller",
          "type": "address"
        },
        {
          "indexed": true,
          "internalType": "address",
          "name": "tokenOut",
          "type": "address"
        },
        {
          "indexed": false,
          "internalType": "uint256",
          "name": "tokenAmountOut",
          "type": "uint256"
        }
      ],
      "name": "LogExit",
      "type": "event"
    },
    {
      "anonymous": false,
      "inputs": [
        {
          "indexed": true,
          "internalType": "address",
          "name": "caller",
          "type": "address"
        },
        {
          "indexed": true,
          "internalType": "address",
          "name": "tokenIn",
          "type": "address"
        },
        {
          "indexed": false,
          "internalType": "uint256",
          "name": "tokenAmountIn",
          "type": "uint256"
        }
      ],
      "name": "LogJoin",
      "type": "event"
    },
    {
      "anonymous": false,
      "inputs": [
        {
          "indexed": true,
          "internalType": "address",
          "name": "previousOwner",
          "type": "address"
        },
        {
          "indexed": true,
          "internalType": "address",
          "name": "newOwner",
          "type": "address"
        }
      ],
      "name": "OwnershipTransferred",
      "type": "event"
    },
    {
      "anonymous": false,
      "inputs": [
        {
          "indexed": true,
          "internalType": "address",
          "name": "from",
          "type": "address"
        },
        {
          "indexed": true,
          "internalType": "address",
          "name": "to",
          "type": "address"
        },
        {
          "indexed": false,
          "internalType": "uint256",
          "name": "value",
          "type": "uint256"
        }
      ],
      "name": "Transfer",
      "type": "event"
    },
    {
      "inputs": [],
      "name": "DECIMALS",
      "outputs": [
        {
          "internalType": "uint8",
          "name": "",
          "type": "uint8"
        }
      ],
      "stateMutability": "view",
      "type": "function"
    },
    {
      "inputs": [],
      "name": "DEFAULT_ADD_TOKEN_TIME_LOCK_IN_BLOCKS",
      "outputs": [
        {
          "internalType": "uint256",
          "name": "",
          "type": "uint256"
        }
      ],
      "stateMutability": "view",
      "type": "function"
    },
    {
      "inputs": [],
      "name": "DEFAULT_MIN_WEIGHT_CHANGE_BLOCK_PERIOD",
      "outputs": [
        {
          "internalType": "uint256",
          "name": "",
          "type": "uint256"
        }
      ],
      "stateMutability": "view",
      "type": "function"
    },
    {
      "inputs": [],
      "name": "NAME",
      "outputs": [
        {
          "internalType": "string",
          "name": "",
          "type": "string"
        }
      ],
      "stateMutability": "view",
      "type": "function"
    },
    {
      "inputs": [
        {
          "internalType": "address",
          "name": "owner",
          "type": "address"
        },
        {
          "internalType": "address",
          "name": "spender",
          "type": "address"
        }
      ],
      "name": "allowance",
      "outputs": [
        {
          "internalType": "uint256",
          "name": "",
          "type": "uint256"
        }
      ],
      "stateMutability": "view",
      "type": "function"
    },
    {
      "inputs": [
        {
          "internalType": "address",
          "name": "spender",
          "type": "address"
        },
        {
          "internalType": "uint256",
          "name": "amount",
          "type": "uint256"
        }
      ],
      "name": "approve",
      "outputs": [
        {
          "internalType": "bool",
          "name": "",
          "type": "bool"
        }
      ],
      "stateMutability": "nonpayable",
      "type": "function"
    },
    {
      "inputs": [],
      "name": "bFactory",
      "outputs": [
        {
          "internalType": "contract IBFactory",
          "name": "",
          "type": "address"
        }
      ],
      "stateMutability": "view",
      "type": "function"
    },
    {
      "inputs": [],
      "name": "bPool",
      "outputs": [
        {
          "internalType": "contract IBPool",
          "name": "",
          "type": "address"
        }
      ],
      "stateMutability": "view",
      "type": "function"
    },
    {
      "inputs": [
        {
          "internalType": "address",
          "name": "account",
          "type": "address"
        }
      ],
      "name": "balanceOf",
      "outputs": [
        {
          "internalType": "uint256",
          "name": "",
          "type": "uint256"
        }
      ],
      "stateMutability": "view",
      "type": "function"
    },
    {
      "inputs": [],
      "name": "decimals",
      "outputs": [
        {
          "internalType": "uint8",
          "name": "",
          "type": "uint8"
        }
      ],
      "stateMutability": "pure",
      "type": "function"
    },
    {
      "inputs": [
        {
          "internalType": "address",
          "name": "spender",
          "type": "address"
        },
        {
          "internalType": "uint256",
          "name": "amount",
          "type": "uint256"
        }
      ],
      "name": "decreaseApproval",
      "outputs": [
        {
          "internalType": "bool",
          "name": "",
          "type": "bool"
        }
      ],
      "stateMutability": "nonpayable",
      "type": "function"
    },
    {
      "inputs": [],
      "name": "getController",
      "outputs": [
        {
          "internalType": "address",
          "name": "",
          "type": "address"
        }
      ],
      "stateMutability": "view",
      "type": "function"
    },
    {
      "inputs": [
        {
          "internalType": "address",
          "name": "spender",
          "type": "address"
        },
        {
          "internalType": "uint256",
          "name": "amount",
          "type": "uint256"
        }
      ],
      "name": "increaseApproval",
      "outputs": [
        {
          "internalType": "bool",
          "name": "",
          "type": "bool"
        }
      ],
      "stateMutability": "nonpayable",
      "type": "function"
    },
    {
      "inputs": [],
      "name": "name",
      "outputs": [
        {
          "internalType": "string",
          "name": "",
          "type": "string"
        }
      ],
      "stateMutability": "pure",
      "type": "function"
    },
    {
      "inputs": [
        {
          "internalType": "address",
          "name": "newOwner",
          "type": "address"
        }
      ],
      "name": "setController",
      "outputs": [],
      "stateMutability": "nonpayable",
      "type": "function"
    },
    {
      "inputs": [],
      "name": "symbol",
      "outputs": [
        {
          "internalType": "string",
          "name": "",
          "type": "string"
        }
      ],
      "stateMutability": "view",
      "type": "function"
    },
    {
      "inputs": [],
      "name": "totalSupply",
      "outputs": [
        {
          "internalType": "uint256",
          "name": "",
          "type": "uint256"
        }
      ],
      "stateMutability": "view",
      "type": "function"
    },
    {
      "inputs": [
        {
          "internalType": "address",
          "name": "recipient",
          "type": "address"
        },
        {
          "internalType": "uint256",
          "name": "amount",
          "type": "uint256"
        }
      ],
      "name": "transfer",
      "outputs": [
        {
          "internalType": "bool",
          "name": "",
          "type": "bool"
        }
      ],
      "stateMutability": "nonpayable",
      "type": "function"
    },
    {
      "inputs": [
        {
          "internalType": "address",
          "name": "sender",
          "type": "address"
        },
        {
          "internalType": "address",
          "name": "recipient",
          "type": "address"
        },
        {
          "internalType": "uint256",
          "name": "amount",
          "type": "uint256"
        }
      ],
      "name": "transferFrom",
      "outputs": [
        {
          "internalType": "bool",
          "name": "",
          "type": "bool"
        }
      ],
      "stateMutability": "nonpayable",
      "type": "function"
    },
    {
      "inputs": [],
      "name": "getRightsManagerVersion",
      "outputs": [
        {
          "internalType": "address",
          "name": "",
          "type": "address"
        }
      ],
      "stateMutability": "pure",
      "type": "function"
    },
    {
      "inputs": [],
      "name": "getBalancerSafeMathVersion",
      "outputs": [
        {
          "internalType": "address",
          "name": "",
          "type": "address"
        }
      ],
      "stateMutability": "pure",
      "type": "function"
    },
    {
      "inputs": [],
      "name": "getSmartPoolManagerVersion",
      "outputs": [
        {
          "internalType": "address",
          "name": "",
          "type": "address"
        }
      ],
      "stateMutability": "pure",
      "type": "function"
    },
    {
      "inputs": [
        {
          "internalType": "enum RightsManager.Permissions",
          "name": "permission",
          "type": "uint8"
        }
      ],
      "name": "hasPermission",
      "outputs": [
        {
          "internalType": "bool",
          "name": "",
          "type": "bool"
        }
      ],
      "stateMutability": "view",
      "type": "function"
    },
    {
      "inputs": [
        {
          "internalType": "address",
          "name": "token",
          "type": "address"
        }
      ],
      "name": "getDenormalizedWeight",
      "outputs": [
        {
          "internalType": "uint256",
          "name": "",
          "type": "uint256"
        }
      ],
      "stateMutability": "view",
      "type": "function"
    },
    {
      "inputs": [
        {
          "internalType": "uint256",
          "name": "swapFee",
          "type": "uint256"
        }
      ],
      "name": "setSwapFee",
      "outputs": [],
      "stateMutability": "nonpayable",
      "type": "function"
    },
    {
      "inputs": [],
      "name": "isPublicSwap",
      "outputs": [
        {
          "internalType": "bool",
          "name": "",
          "type": "bool"
        }
      ],
      "stateMutability": "nonpayable",
      "type": "function"
    },
    {
      "inputs": [
        {
          "internalType": "bool",
          "name": "publicSwap",
          "type": "bool"
        }
      ],
      "name": "setPublicSwap",
      "outputs": [],
      "stateMutability": "nonpayable",
      "type": "function"
    },
    {
      "inputs": [
        {
          "internalType": "uint256",
          "name": "initialSupply",
          "type": "uint256"
        },
        {
          "internalType": "uint256",
          "name": "minimumWeightChangeBlockPeriod",
          "type": "uint256"
        },
        {
          "internalType": "uint256",
          "name": "addTokenTimeLockInBlocks",
          "type": "uint256"
        }
      ],
      "name": "createPool",
      "outputs": [],
      "stateMutability": "nonpayable",
      "type": "function"
    },
    {
      "inputs": [
        {
          "internalType": "uint256",
          "name": "initialSupply",
          "type": "uint256"
        }
      ],
      "name": "createPool",
      "outputs": [],
      "stateMutability": "nonpayable",
      "type": "function"
    },
    {
      "inputs": [
        {
          "internalType": "address",
          "name": "token",
          "type": "address"
        },
        {
          "internalType": "uint256",
          "name": "newWeight",
          "type": "uint256"
        }
      ],
      "name": "updateWeight",
      "outputs": [],
      "stateMutability": "nonpayable",
      "type": "function"
    },
    {
      "inputs": [
        {
          "internalType": "uint256[]",
          "name": "newWeights",
          "type": "uint256[]"
        },
        {
          "internalType": "uint256",
          "name": "startBlock",
          "type": "uint256"
        },
        {
          "internalType": "uint256",
          "name": "endBlock",
          "type": "uint256"
        }
      ],
      "name": "updateWeightsGradually",
      "outputs": [],
      "stateMutability": "nonpayable",
      "type": "function"
    },
    {
      "inputs": [],
      "name": "pokeWeights",
      "outputs": [],
      "stateMutability": "nonpayable",
      "type": "function"
    },
    {
      "inputs": [
        {
          "internalType": "address",
          "name": "token",
          "type": "address"
        },
        {
          "internalType": "uint256",
          "name": "balance",
          "type": "uint256"
        },
        {
          "internalType": "uint256",
          "name": "denormalizedWeight",
          "type": "uint256"
        }
      ],
      "name": "commitAddToken",
      "outputs": [],
      "stateMutability": "nonpayable",
      "type": "function"
    },
    {
      "inputs": [],
      "name": "applyAddToken",
      "outputs": [],
      "stateMutability": "nonpayable",
      "type": "function"
    },
    {
      "inputs": [
        {
          "internalType": "address",
          "name": "token",
          "type": "address"
        }
      ],
      "name": "removeToken",
      "outputs": [],
      "stateMutability": "nonpayable",
      "type": "function"
    },
    {
      "inputs": [
        {
          "internalType": "uint256",
          "name": "poolAmountOut",
          "type": "uint256"
        },
        {
          "internalType": "uint256[]",
          "name": "maxAmountsIn",
          "type": "uint256[]"
        }
      ],
      "name": "joinPool",
      "outputs": [],
      "stateMutability": "nonpayable",
      "type": "function"
    },
    {
      "inputs": [
        {
          "internalType": "uint256",
          "name": "poolAmountIn",
          "type": "uint256"
        },
        {
          "internalType": "uint256[]",
          "name": "minAmountsOut",
          "type": "uint256[]"
        }
      ],
      "name": "exitPool",
      "outputs": [],
      "stateMutability": "nonpayable",
      "type": "function"
    },
    {
      "inputs": [
        {
          "internalType": "address",
          "name": "tokenIn",
          "type": "address"
        },
        {
          "internalType": "uint256",
          "name": "tokenAmountIn",
          "type": "uint256"
        },
        {
          "internalType": "uint256",
          "name": "minPoolAmountOut",
          "type": "uint256"
        }
      ],
      "name": "joinswapExternAmountIn",
      "outputs": [
        {
          "internalType": "uint256",
          "name": "poolAmountOut",
          "type": "uint256"
        }
      ],
      "stateMutability": "nonpayable",
      "type": "function"
    },
    {
      "inputs": [
        {
          "internalType": "address",
          "name": "tokenIn",
          "type": "address"
        },
        {
          "internalType": "uint256",
          "name": "poolAmountOut",
          "type": "uint256"
        },
        {
          "internalType": "uint256",
          "name": "maxAmountIn",
          "type": "uint256"
        }
      ],
      "name": "joinswapPoolAmountOut",
      "outputs": [
        {
          "internalType": "uint256",
          "name": "tokenAmountIn",
          "type": "uint256"
        }
      ],
      "stateMutability": "nonpayable",
      "type": "function"
    },
    {
      "inputs": [
        {
          "internalType": "address",
          "name": "tokenOut",
          "type": "address"
        },
        {
          "internalType": "uint256",
          "name": "poolAmountIn",
          "type": "uint256"
        },
        {
          "internalType": "uint256",
          "name": "minAmountOut",
          "type": "uint256"
        }
      ],
      "name": "exitswapPoolAmountIn",
      "outputs": [
        {
          "internalType": "uint256",
          "name": "tokenAmountOut",
          "type": "uint256"
        }
      ],
      "stateMutability": "nonpayable",
      "type": "function"
    },
    {
      "inputs": [
        {
          "internalType": "address",
          "name": "tokenOut",
          "type": "address"
        },
        {
          "internalType": "uint256",
          "name": "tokenAmountOut",
          "type": "uint256"
        },
        {
          "internalType": "uint256",
          "name": "maxPoolAmountIn",
          "type": "uint256"
        }
      ],
      "name": "exitswapExternAmountOut",
      "outputs": [
        {
          "internalType": "uint256",
          "name": "poolAmountIn",
          "type": "uint256"
        }
      ],
      "stateMutability": "nonpayable",
      "type": "function"
    },
    {
      "inputs": [
        {
          "internalType": "address",
          "name": "provider",
          "type": "address"
        }
      ],
      "name": "canProvideLiquidity",
      "outputs": [
        {
          "internalType": "bool",
          "name": "",
          "type": "bool"
        }
      ],
      "stateMutability": "view",
      "type": "function"
    },
    {
      "inputs": [
        {
          "internalType": "address",
          "name": "provider",
          "type": "address"
        }
      ],
      "name": "whitelistLiquidityProvider",
      "outputs": [],
      "stateMutability": "nonpayable",
      "type": "function"
    },
    {
      "inputs": [
        {
          "internalType": "address",
          "name": "provider",
          "type": "address"
        }
      ],
      "name": "removeWhitelistedLiquidityProvider",
      "outputs": [],
      "stateMutability": "nonpayable",
      "type": "function"
    },
    {
      "inputs": [
        {
          "internalType": "uint256",
          "name": "amount",
          "type": "uint256"
        }
      ],
      "name": "mintPoolShareFromLib",
      "outputs": [],
      "stateMutability": "nonpayable",
      "type": "function"
    },
    {
      "inputs": [
        {
          "internalType": "address",
          "name": "to",
          "type": "address"
        },
        {
          "internalType": "uint256",
          "name": "amount",
          "type": "uint256"
        }
      ],
      "name": "pushPoolShareFromLib",
      "outputs": [],
      "stateMutability": "nonpayable",
      "type": "function"
    },
    {
      "inputs": [
        {
          "internalType": "address",
          "name": "from",
          "type": "address"
        },
        {
          "internalType": "uint256",
          "name": "amount",
          "type": "uint256"
        }
      ],
      "name": "pullPoolShareFromLib",
      "outputs": [],
      "stateMutability": "nonpayable",
      "type": "function"
    },
    {
      "inputs": [
        {
          "internalType": "uint256",
          "name": "amount",
          "type": "uint256"
        }
      ],
      "name": "burnPoolShareFromLib",
      "outputs": [],
      "stateMutability": "nonpayable",
      "type": "function"
    }
  ],
  "bytecode": "0x60806040523480156200001157600080fd5b50604051620051d0380380620051d08339810160408190526200003491620005bb565b855186906200004b90600390602084019062000225565b5050600480546001600160a01b031916331790556001600555845160021115620000925760405162461bcd60e51b8152600401620000899062000710565b60405180910390fd5b8451845114620000b65760405162461bcd60e51b81526004016200008990620006d9565b8451835114620000da5760405162461bcd60e51b81526004016200008990620006a2565b64e8d4a51000821015620001025760405162461bcd60e51b815260040162000089906200073c565b67016345785d8a00008211156200012d5760405162461bcd60e51b815260040162000089906200073c565b600680546001600160a01b0319166001600160a01b03891617905584516200015d90600e906020880190620002aa565b5083516200017390600f90602087019062000310565b5082516200018990601290602086019062000310565b50600d91909155600a6014819055601555600060105580516008805460208401516040850151606086015160809096015115156401000000000260ff60201b1996151563010000000263ff00000019921515620100000262ff0000199415156101000261ff001998151560ff19909716969096179790971694909417929092169490941793909316179290921617905550620007ba9350505050565b828054600181600116156101000203166002900490600052602060002090601f016020900481019282601f106200026857805160ff191683800117855562000298565b8280016001018555821562000298579182015b82811115620002985782518255916020019190600101906200027b565b50620002a69291506200034d565b5090565b82805482825590600052602060002090810192821562000302579160200282015b828111156200030257825182546001600160a01b0319166001600160a01b03909116178255602090920191600190910190620002cb565b50620002a69291506200036d565b828054828255906000526020600020908101928215620002985791602002820182811115620002985782518255916020019190600101906200027b565b6200036a91905b80821115620002a6576000815560010162000354565b90565b6200036a91905b80821115620002a65780546001600160a01b031916815560010162000374565b80516001600160a01b0381168114620003ac57600080fd5b92915050565b600082601f830112620003c3578081fd5b8151620003da620003d4826200079a565b62000773565b818152915060208083019084810181840286018201871015620003fc57600080fd5b60005b84811015620004275762000414888362000394565b84529282019290820190600101620003ff565b505050505092915050565b600082601f83011262000443578081fd5b815162000454620003d4826200079a565b8181529150602080830190848101818402860182018710156200047657600080fd5b60005b84811015620004275781518452928201929082019060010162000479565b80518015158114620003ac57600080fd5b600082601f830112620004b9578081fd5b81516001600160401b03811115620004cf578182fd5b6020620004e5601f8301601f1916820162000773565b92508183528481838601011115620004fc57600080fd5b60005b828110156200051c578481018201518482018301528101620004ff565b828111156200052e5760008284860101525b50505092915050565b600060a0828403121562000549578081fd5b6200055560a062000773565b905062000563838362000497565b815262000574836020840162000497565b602082015262000588836040840162000497565b60408201526200059c836060840162000497565b6060820152620005b0836080840162000497565b608082015292915050565b6000806000806000806000610160888a031215620005d7578283fd5b620005e3898962000394565b60208901519097506001600160401b038082111562000600578485fd5b6200060e8b838c01620004a8565b975060408a015191508082111562000624578485fd5b620006328b838c01620003b2565b965060608a015191508082111562000648578485fd5b620006568b838c0162000432565b955060808a01519150808211156200066c578485fd5b506200067b8a828b0162000432565b93505060a08801519150620006948960c08a0162000537565b905092959891949750929550565b6020808252601a908201527f4552525f53544152545f574549474854535f4d49534d41544348000000000000604082015260600190565b6020808252601b908201527f4552525f53544152545f42414c414e4345535f4d49534d415443480000000000604082015260600190565b6020808252601290820152714552525f544f4f5f4645575f544f4b454e5360701b604082015260600190565b60208082526014908201527f4552525f494e56414c49445f535741505f464545000000000000000000000000604082015260600190565b6040518181016001600160401b03811182821017156200079257600080fd5b604052919050565b60006001600160401b03821115620007b0578081fd5b5060209081020190565b614a0680620007ca6000396000f3fe608060405234801561001057600080fd5b50600436106102a05760003560e01c806370a0823111610167578063a9059cbb116100ce578063d73dd62311610087578063d73dd62314610575578063dd62ed3e14610588578063e211b8751461059b578063e2762d4b146105a3578063f226b52814610511578063fde924f7146105b6576102a0565b8063a9059cbb14610519578063b02f0b731461052c578063b64ef17b1461053f578063c275d81b14610547578063c3391d271461054f578063c83a1c2d14610562576102a0565b806395d89b411161012057806395d89b41146104de5780639776e94b146104e65780639a82417e146104f95780639d829c2b14610501578063a3f4df7e14610509578063a835a0de14610511576102a0565b806370a082311461047757806374983a0d1461048a578063806c6f87146104925780638259e6a0146104a557806392eefe9b146104b8578063948d8ce6146104cb576102a0565b806334e199071161020b5780634f69c0d4116101c45780634f69c0d41461040557806355c32a23146104185780635db342771461042b5780635fa7b5841461043e57806366188463146104515780636d06dfa014610464576102a0565b806334e199071461039357806337c6f4d9146103a657806346ab38f1146103b957806349b59552146103cc5780634ba57882146103df5780634c20d209146103f2576102a0565b8063220eb7601161025d578063220eb7601461033557806323b872dd14610348578063246bc19b1461035b5780632e0f26251461036e5780633018205f14610383578063313ce5671461038b576102a0565b806302c96748146102a557806306fdde03146102ce578063095dcccc146102e3578063095ea7b3146102f85780630a1659401461031857806318160ddd1461032d575b600080fd5b6102b86102b3366004613d56565b6105be565b6040516102c5919061492f565b60405180910390f35b6102d6610784565b6040516102c59190614347565b6102f66102f1366004613d2b565b6107b2565b005b61030b610306366004613d2b565b6107df565b6040516102c59190614161565b610320610837565b6040516102c591906140ef565b6102b8610846565b6102f6610343366004613f23565b61084c565b61030b610356366004613ceb565b610877565b6102f6610369366004613e26565b6109ce565b610376610c67565b6040516102c59190614938565b610320610c6c565b610376610c7b565b6102f66103a1366004613f23565b610c80565b61030b6103b4366004613f04565b610dca565b6102b86103c7366004613d56565b610e5f565b6102f66103da366004613eb0565b61100d565b6102f66103ed366004613f23565b611113565b6102f6610400366004613d56565b61113b565b6102f6610413366004613f53565b6112bd565b6102f6610426366004613d2b565b61156c565b6102b8610439366004613d56565b611595565b6102f661044c366004613c97565b611767565b61030b61045f366004613d2b565b611993565b6102b8610472366004613d56565b611a5b565b6102b8610485366004613c97565b611c21565b610320611c3c565b61030b6104a0366004613c97565b611c54565b6102f66104b3366004613f23565b611c9e565b6102f66104c6366004613c97565b6121c7565b6102b86104d9366004613c97565b612273565b6102d6612340565b6102f66104f4366004613d2b565b6123d6565b61032061251c565b610320612534565b6102d661254c565b6102b861257b565b61030b610527366004613d2b565b612580565b6102f661053a366004613f53565b6125bc565b61032061283a565b6102f6612849565b6102f661055d366004614053565b6129a8565b6102f6610570366004613c97565b612f3f565b61030b610583366004613d2b565b613033565b6102b8610596366004613cb3565b6130a7565b6102f66130d2565b6102f66105b1366004613c97565b61321c565b61030b613344565b60405160009033906001600160e01b0319833516906105e0908490369061416c565b60405180910390a2600260055414156106145760405162461bcd60e51b815260040161060b90614675565b60405180910390fd5b60026005556007546001600160a01b03166106415760405162461bcd60e51b815260040161060b906145bf565b600754604051631ce1a8c960e21b8152600091829173__SmartPoolManager______________________91637386a324916106929130916001600160a01b03909116908b908b908b906004016141e8565b604080518083038186803b1580156106a957600080fd5b505af41580156106bd573d6000803e3d6000fd5b505050506040513d601f19601f820116820180604052508101906106e19190613fe2565b9150915080925060006106f4848461344e565b9050866001600160a01b0316336001600160a01b03167fc62fc35ac75e3bff532648e2859a3e1694002cfa357614ae8e034df7f83db5e988604051610739919061492f565b60405180910390a361074b338561158b565b6107548161086b565b60065461076a906001600160a01b0316846107d1565b610775873388613487565b50505060016005559392505050565b60408051808201909152601381527210985b185b98d95c8814db585c9d08141bdbdb606a1b60208201525b90565b3330146107d15760405162461bcd60e51b815260040161060b9061439a565b6107db82826136d0565b5050565b3360008181526002602090815260408083206001600160a01b038716808552925280832085905551919290916000805160206149b18339815191529061082690869061492f565b60405180910390a350600192915050565b6006546001600160a01b031681565b60005490565b33301461086b5760405162461bcd60e51b815260040161060b9061439a565b610874816136db565b50565b60006001600160a01b03831661089f5760405162461bcd60e51b815260040161060b906144f7565b336001600160a01b03851614806108d957506001600160a01b03841660009081526002602090815260408083203384529091529020548211155b6108f55760405162461bcd60e51b815260040161060b9061471f565b610900848484613784565b336001600160a01b0385161480159061093e57506001600160a01b038416600090815260026020908152604080832033845290915290205460001914155b156109c4576001600160a01b0384166000908152600260209081526040808320338452909152902054610971908361344e565b6001600160a01b0385811660009081526002602090815260408083203380855292529182902084905590519186169290916000805160206149b1833981519152916109bb9161492f565b60405180910390a35b5060019392505050565b336001600160a01b03166000356001600160e01b0319166001600160e01b031916600036604051610a0092919061416c565b60405180910390a260026005541415610a2b5760405162461bcd60e51b815260040161060b90614675565b60026005556004546001600160a01b03163314610a5a5760405162461bcd60e51b815260040161060b9061439a565b6007546001600160a01b0316610a825760405162461bcd60e51b815260040161060b906145bf565b60085462010000900460ff16610aaa5760405162461bcd60e51b815260040161060b90614558565b6007546040805163cc77828d60e01b815290516060926001600160a01b03169163cc77828d916004808301926000929190829003018186803b158015610aef57600080fd5b505afa158015610b03573d6000803e3d6000fd5b505050506040513d6000823e601f3d908101601f19168201604052610b2b9190810190613d8a565b80519091508414610b4e5760405162461bcd60e51b815260040161060b90614469565b600754601454604051630500fe7b60e21b815260009260609273__SmartPoolManager______________________92631403f9ec92610ba7926001600160a01b03909116916009918d918d918d918d91906004016142b5565b60006040518083038186803b158015610bbf57600080fd5b505af4158015610bd3573d6000803e3d6000fd5b505050506040513d6000823e601f3d908101601f19168201604052610bfb9190810190613f9d565b601082905560118690559092509050610c1660138888613b82565b5060005b8351811015610c5857818181518110610c2f57fe5b602002602001015160128281548110610c4457fe5b600091825260209091200155600101610c1a565b50506001600555505050505050565b601281565b6004546001600160a01b031690565b601290565b336001600160a01b03166000356001600160e01b0319166001600160e01b031916600036604051610cb292919061416c565b60405180910390a260026005541415610cdd5760405162461bcd60e51b815260040161060b90614675565b60026005556004546001600160a01b03163314610d0c5760405162461bcd60e51b815260040161060b9061439a565b6007546001600160a01b0316610d345760405162461bcd60e51b815260040161060b906145bf565b600854610100900460ff16610d5b5760405162461bcd60e51b815260040161060b9061485f565b600d8190556007546040516334e1990760e01b81526001600160a01b03909116906334e1990790610d9090849060040161492f565b600060405180830381600087803b158015610daa57600080fd5b505af1158015610dbe573d6000803e3d6000fd5b50506001600555505050565b6040516322c1aa2560e11b815260009073__RightsManager_________________________90634583544a90610e079060089086906004016148cd565b60206040518083038186803b158015610e1f57600080fd5b505af4158015610e33573d6000803e3d6000fd5b505050506040513d601f19601f82011682018060405250810190610e579190613ecc565b90505b919050565b60405160009033906001600160e01b031983351690610e81908490369061416c565b60405180910390a260026005541415610eac5760405162461bcd60e51b815260040161060b90614675565b60026005556007546001600160a01b0316610ed95760405162461bcd60e51b815260040161060b906145bf565b600754604051633461ee9560e11b8152600091829173__SmartPoolManager______________________916368c3dd2a91610f2a9130916001600160a01b03909116908b908b908b906004016141e8565b604080518083038186803b158015610f4157600080fd5b505af4158015610f55573d6000803e3d6000fd5b505050506040513d601f19601f82011682018060405250810190610f799190613fe2565b915091508092506000610f8c868461344e565b9050866001600160a01b0316336001600160a01b03167fc62fc35ac75e3bff532648e2859a3e1694002cfa357614ae8e034df7f83db5e986604051610fd1919061492f565b60405180910390a3610fe3338761158b565b610fec8161086b565b600654611002906001600160a01b0316846107d1565b610775873386613487565b336001600160a01b03166000356001600160e01b0319166001600160e01b03191660003660405161103f92919061416c565b60405180910390a26002600554141561106a5760405162461bcd60e51b815260040161060b90614675565b60026005556004546001600160a01b031633146110995760405162461bcd60e51b815260040161060b9061439a565b6007546001600160a01b03166110c15760405162461bcd60e51b815260040161060b906145bf565b60085460ff166110e35760405162461bcd60e51b815260040161060b906147db565b6007546040516324dacaa960e11b81526001600160a01b03909116906349b5955290610d90908490600401614161565b3330146111325760405162461bcd60e51b815260040161060b9061439a565b6108748161386d565b336001600160a01b03166000356001600160e01b0319166001600160e01b03191660003660405161116d92919061416c565b60405180910390a2600260055414156111985760405162461bcd60e51b815260040161060b90614675565b60026005556004546001600160a01b031633146111c75760405162461bcd60e51b815260040161060b9061439a565b6007546001600160a01b03166111ef5760405162461bcd60e51b815260040161060b906145bf565b6008546301000000900460ff166112185760405162461bcd60e51b815260040161060b906143c6565b601054156112385760405162461bcd60e51b815260040161060b90614896565b6007546040516307f9f55960e21b815273__SmartPoolManager______________________91631fe7d56491611283916001600160a01b031690879087908790600990600401614284565b60006040518083038186803b15801561129b57600080fd5b505af41580156112af573d6000803e3d6000fd5b505060016005555050505050565b336001600160a01b03166000356001600160e01b0319166001600160e01b0319166000366040516112ef92919061416c565b60405180910390a26002600554141561131a5760405162461bcd60e51b815260040161060b90614675565b60026005556007546001600160a01b03166113475760405162461bcd60e51b815260040161060b906145bf565b600854640100000000900460ff16158061137057503360009081526016602052604090205460ff165b61138c5760405162461bcd60e51b815260040161060b906144c9565b6007546040516289af5d60e51b815260609173__SmartPoolManager______________________91631135eba0916113d89130916001600160a01b03169089908990899060040161421c565b60006040518083038186803b1580156113f057600080fd5b505af4158015611404573d6000803e3d6000fd5b505050506040513d6000823e601f3d908101601f1916820160405261142c9190810190613e75565b90506060600760009054906101000a90046001600160a01b03166001600160a01b031663cc77828d6040518163ffffffff1660e01b815260040160006040518083038186803b15801561147e57600080fd5b505afa158015611492573d6000803e3d6000fd5b505050506040513d6000823e601f3d908101601f191682016040526114ba9190810190613d8a565b905060005b81518110156115585760008282815181106114d657fe5b6020026020010151905060008483815181106114ee57fe5b60200260200101519050816001600160a01b0316336001600160a01b03167fea39e3b35c5cd8937999ed5f7fbab30acd562a931fc4a887fed2a47c3074aa728360405161153b919061492f565b60405180910390a361154e8233836138dd565b50506001016114bf565b5061156285611132565b610dbe33866107d1565b33301461158b5760405162461bcd60e51b815260040161060b9061439a565b6107db8282613b26565b60405160009033906001600160e01b0319833516906115b7908490369061416c565b60405180910390a2600260055414156115e25760405162461bcd60e51b815260040161060b90614675565b60026005556007546001600160a01b031661160f5760405162461bcd60e51b815260040161060b906145bf565b600854640100000000900460ff16158061163857503360009081526016602052604090205460ff165b6116545760405162461bcd60e51b815260040161060b906144c9565b600754604051636f50bd5d60e01b815273__SmartPoolManager______________________91636f50bd5d916116a09130916001600160a01b03909116908990899089906004016141e8565b60206040518083038186803b1580156116b857600080fd5b505af41580156116cc573d6000803e3d6000fd5b505050506040513d601f19601f820116820180604052508101906116f09190613f3b565b9050836001600160a01b0316336001600160a01b03167fea39e3b35c5cd8937999ed5f7fbab30acd562a931fc4a887fed2a47c3074aa7285604051611735919061492f565b60405180910390a361174681611132565b61175033826107d1565b61175b8433856138dd565b60016005559392505050565b336001600160a01b03166000356001600160e01b0319166001600160e01b03191660003660405161179992919061416c565b60405180910390a2600260055414156117c45760405162461bcd60e51b815260040161060b90614675565b60026005556004546001600160a01b031633146117f35760405162461bcd60e51b815260040161060b9061439a565b6007546001600160a01b031661181b5760405162461bcd60e51b815260040161060b906145bf565b6008546301000000900460ff166118445760405162461bcd60e51b815260040161060b906143c6565b6007546040805163cc77828d60e01b815290516060926001600160a01b03169163cc77828d916004808301926000929190829003018186803b15801561188957600080fd5b505afa15801561189d573d6000803e3d6000fd5b505050506040513d6000823e601f3d908101601f191682016040526118c59190810190613d8a565b905060028151116118e85760405162461bcd60e51b815260040161060b9061474f565b600954600160a01b900460ff16156119125760405162461bcd60e51b815260040161060b9061477b565b60075460405163cfc3120960e01b815273__SmartPoolManager______________________9163cfc312099161195a9130916001600160a01b0390911690879060040161419b565b60006040518083038186803b15801561197257600080fd5b505af4158015611986573d6000803e3d6000fd5b5050600160055550505050565b3360009081526002602090815260408083206001600160a01b03861684529091528120548083106119e7573360009081526002602090815260408083206001600160a01b0388168452909152812055611a16565b6119f1818461344e565b3360009081526002602090815260408083206001600160a01b03891684529091529020555b3360008181526002602090815260408083206001600160a01b0389168085529252918290205491519092916000805160206149b1833981519152916109bb919061492f565b60405160009033906001600160e01b031983351690611a7d908490369061416c565b60405180910390a260026005541415611aa85760405162461bcd60e51b815260040161060b90614675565b60026005556007546001600160a01b0316611ad55760405162461bcd60e51b815260040161060b906145bf565b600854640100000000900460ff161580611afe57503360009081526016602052604090205460ff165b611b1a5760405162461bcd60e51b815260040161060b906144c9565b60075460405163c8ebc9ab60e01b815273__SmartPoolManager______________________9163c8ebc9ab91611b669130916001600160a01b03909116908990899089906004016141e8565b60206040518083038186803b158015611b7e57600080fd5b505af4158015611b92573d6000803e3d6000fd5b505050506040513d601f19601f82011682018060405250810190611bb69190613f3b565b9050836001600160a01b0316336001600160a01b03167fea39e3b35c5cd8937999ed5f7fbab30acd562a931fc4a887fed2a47c3074aa7283604051611bfb919061492f565b60405180910390a3611c0c83611132565b611c1633846107d1565b61175b8433836138dd565b6001600160a01b031660009081526001602052604090205490565b73__RightsManager_________________________90565b600854600090640100000000900460ff1615611c8c57506001600160a01b03811660009081526016602052604090205460ff16610e5a565b506001600160a01b0381161515610e5a565b336001600160a01b03166000356001600160e01b0319166001600160e01b031916600036604051611cd092919061416c565b60405180910390a260026005541415611cfb5760405162461bcd60e51b815260040161060b90614675565b60026005556007546001600160a01b031615611d295760405162461bcd60e51b815260040161060b906145e8565b60008111611d495760405162461bcd60e51b815260040161060b906144a0565b600660009054906101000a90046001600160a01b03166001600160a01b031663d556c5dc6040518163ffffffff1660e01b8152600401602060405180830381600087803b158015611d9957600080fd5b505af1158015611dad573d6000803e3d6000fd5b505050506040513d601f19601f82011682018060405250810190611dd19190613ee8565b600780546001600160a01b0319166001600160a01b0392831617908190556040805163632c068960e11b81529051919092169163c6580d12916004808301926020929190829003018186803b158015611e2957600080fd5b505afa158015611e3d573d6000803e3d6000fd5b505050506040513d601f19601f82011682018060405250810190611e619190613f3b565b15611e7e5760405162461bcd60e51b815260040161060b906146f1565b600754600d546040516334e1990760e01b81526001600160a01b03909216916334e1990791611eaf9160040161492f565b600060405180830381600087803b158015611ec957600080fd5b505af1158015611edd573d6000803e3d6000fd5b506000925050505b600e5481101561210d576000600e8281548110611efe57fe5b6000918252602082200154600f80546001600160a01b0390921693509084908110611f2557fe5b90600052602060002001549050600060128481548110611f4157fe5b60009182526020822001546040516323b872dd60e01b81529092506001600160a01b038516906323b872dd90611f7f90339030908890600401614103565b602060405180830381600087803b158015611f9957600080fd5b505af1158015611fad573d6000803e3d6000fd5b505050506040513d601f19601f82011682018060405250810190611fd19190613ecc565b905080611ff05760405162461bcd60e51b815260040161060b906147b2565b60075460405163095ea7b360e01b81526001600160a01b038681169263095ea7b392612026929091169060001990600401614127565b602060405180830381600087803b15801561204057600080fd5b505af1158015612054573d6000803e3d6000fd5b505050506040513d601f19601f820116820180604052508101906120789190613ecc565b9050806120975760405162461bcd60e51b815260040161060b906147b2565b600754604051631c9c3ca760e31b81526001600160a01b039091169063e4e1e538906120cb90879087908790600401614140565b600060405180830381600087803b1580156120e557600080fd5b505af11580156120f9573d6000803e3d6000fd5b505060019096019550611ee5945050505050565b505b600e541561214957600e80548061212257fe5b600082815260209020810160001990810180546001600160a01b031916905501905561210f565b6007546040516324dacaa960e11b81526001600160a01b03909116906349b595529061217a90600190600401614161565b600060405180830381600087803b15801561219457600080fd5b505af11580156121a8573d6000803e3d6000fd5b505050506121b581611132565b6121bf33826107d1565b506001600555565b6004546001600160a01b031633146121f15760405162461bcd60e51b815260040161060b9061439a565b6001600160a01b0381166122175760405162461bcd60e51b815260040161060b906144f7565b6004546040516001600160a01b038084169216907f8be0079c531659141344cd1fd0a4f28419497f9722a3daafe3b4186f6b6457e090600090a3600480546001600160a01b0319166001600160a01b0392909216919091179055565b6000600260055414156122985760405162461bcd60e51b815260040161060b9061469a565b6007546001600160a01b03166122c05760405162461bcd60e51b815260040161060b906145bf565b600754604051634a46c67360e11b81526001600160a01b039091169063948d8ce6906122f09085906004016140ef565b60206040518083038186803b15801561230857600080fd5b505afa15801561231c573d6000803e3d6000fd5b505050506040513d601f19601f82011682018060405250810190610e579190613f3b565b60038054604080516020601f60026000196101006001881615020190951694909404938401819004810282018101909252828152606093909290918301828280156123cc5780601f106123a1576101008083540402835291602001916123cc565b820191906000526020600020905b8154815290600101906020018083116123af57829003601f168201915b5050505050905090565b336001600160a01b03166000356001600160e01b0319166001600160e01b03191660003660405161240892919061416c565b60405180910390a2600260055414156124335760405162461bcd60e51b815260040161060b90614675565b60026005556004546001600160a01b031633146124625760405162461bcd60e51b815260040161060b9061439a565b6007546001600160a01b031661248a5760405162461bcd60e51b815260040161060b906145bf565b60085462010000900460ff166124b25760405162461bcd60e51b815260040161060b90614558565b601054156124d25760405162461bcd60e51b815260040161060b90614896565b60075460405163089d8f8d60e31b815273__SmartPoolManager______________________916344ec7c689161195a9130916001600160a01b0390911690879087906004016141be565b73__BalancerSafeMath______________________90565b73__SmartPoolManager______________________90565b6040518060400160405280601381526020017210985b185b98d95c8814db585c9d08141bdbdb606a1b81525081565b600a81565b60006001600160a01b0383166125a85760405162461bcd60e51b815260040161060b906144f7565b6125b3338484613784565b50600192915050565b336001600160a01b03166000356001600160e01b0319166001600160e01b0319166000366040516125ee92919061416c565b60405180910390a2600260055414156126195760405162461bcd60e51b815260040161060b90614675565b60026005556007546001600160a01b03166126465760405162461bcd60e51b815260040161060b906145bf565b60075460405163747591bb60e11b8152600091829160609173__SmartPoolManager______________________9163e8eb2376916126989130916001600160a01b0316908b908b908b9060040161421c565b60006040518083038186803b1580156126b057600080fd5b505af41580156126c4573d6000803e3d6000fd5b505050506040513d6000823e601f3d908101601f191682016040526126ec9190810190614005565b9250925092506126fc338761158b565b600654612712906001600160a01b0316846107d1565b61271b8261086b565b6007546040805163cc77828d60e01b815290516060926001600160a01b03169163cc77828d916004808301926000929190829003018186803b15801561276057600080fd5b505afa158015612774573d6000803e3d6000fd5b505050506040513d6000823e601f3d908101601f1916820160405261279c9190810190613d8a565b905060005b8151811015610c585760008282815181106127b857fe5b6020026020010151905060008483815181106127d057fe5b60200260200101519050816001600160a01b0316336001600160a01b03167fc62fc35ac75e3bff532648e2859a3e1694002cfa357614ae8e034df7f83db5e98360405161281d919061492f565b60405180910390a3612830823383613487565b50506001016127a1565b6007546001600160a01b031681565b336001600160a01b03166000356001600160e01b0319166001600160e01b03191660003660405161287b92919061416c565b60405180910390a2600260055414156128a65760405162461bcd60e51b815260040161060b90614675565b60026005556004546001600160a01b031633146128d55760405162461bcd60e51b815260040161060b9061439a565b6007546001600160a01b03166128fd5760405162461bcd60e51b815260040161060b906145bf565b6008546301000000900460ff166129265760405162461bcd60e51b815260040161060b906143c6565b600754601554604051632235713560e21b815273__SmartPoolManager______________________926388d5c4d4926129719230926001600160a01b0316919060099060040161425b565b60006040518083038186803b15801561298957600080fd5b505af415801561299d573d6000803e3d6000fd5b505060016005555050565b336001600160a01b03166000356001600160e01b0319166001600160e01b0319166000366040516129da92919061416c565b60405180910390a260026005541415612a055760405162461bcd60e51b815260040161060b90614675565b6002600555600a821015612a2b5760405162461bcd60e51b815260040161060b90614432565b81811115612a4b5760405162461bcd60e51b815260040161060b906143fd565b600a811015612a6c5760405162461bcd60e51b815260040161060b9061463e565b601482905560158190556007546001600160a01b031615612a9f5760405162461bcd60e51b815260040161060b906145e8565b60008311612abf5760405162461bcd60e51b815260040161060b906144a0565b600660009054906101000a90046001600160a01b03166001600160a01b031663d556c5dc6040518163ffffffff1660e01b8152600401602060405180830381600087803b158015612b0f57600080fd5b505af1158015612b23573d6000803e3d6000fd5b505050506040513d601f19601f82011682018060405250810190612b479190613ee8565b600780546001600160a01b0319166001600160a01b0392831617908190556040805163632c068960e11b81529051919092169163c6580d12916004808301926020929190829003018186803b158015612b9f57600080fd5b505afa158015612bb3573d6000803e3d6000fd5b505050506040513d601f19601f82011682018060405250810190612bd79190613f3b565b15612bf45760405162461bcd60e51b815260040161060b906146f1565b600754600d546040516334e1990760e01b81526001600160a01b03909216916334e1990791612c259160040161492f565b600060405180830381600087803b158015612c3f57600080fd5b505af1158015612c53573d6000803e3d6000fd5b506000925050505b600e54811015612e83576000600e8281548110612c7457fe5b6000918252602082200154600f80546001600160a01b0390921693509084908110612c9b57fe5b90600052602060002001549050600060128481548110612cb757fe5b60009182526020822001546040516323b872dd60e01b81529092506001600160a01b038516906323b872dd90612cf590339030908890600401614103565b602060405180830381600087803b158015612d0f57600080fd5b505af1158015612d23573d6000803e3d6000fd5b505050506040513d601f19601f82011682018060405250810190612d479190613ecc565b905080612d665760405162461bcd60e51b815260040161060b906147b2565b60075460405163095ea7b360e01b81526001600160a01b038681169263095ea7b392612d9c929091169060001990600401614127565b602060405180830381600087803b158015612db657600080fd5b505af1158015612dca573d6000803e3d6000fd5b505050506040513d601f19601f82011682018060405250810190612dee9190613ecc565b905080612e0d5760405162461bcd60e51b815260040161060b906147b2565b600754604051631c9c3ca760e31b81526001600160a01b039091169063e4e1e53890612e4190879087908790600401614140565b600060405180830381600087803b158015612e5b57600080fd5b505af1158015612e6f573d6000803e3d6000fd5b505060019096019550612c5b945050505050565b505b600e5415612ebf57600e805480612e9857fe5b600082815260209020810160001990810180546001600160a01b0319169055019055612e85565b6007546040516324dacaa960e11b81526001600160a01b03909116906349b5955290612ef090600190600401614161565b600060405180830381600087803b158015612f0a57600080fd5b505af1158015612f1e573d6000803e3d6000fd5b50505050612f2b83611132565b612f3533846107d1565b5050600160055550565b6004546001600160a01b03163314612f695760405162461bcd60e51b815260040161060b9061439a565b60026005541415612f8c5760405162461bcd60e51b815260040161060b90614675565b60026005556040513390600080356001600160e01b03191691612fb19190369061416c565b60405180910390a2600854640100000000900460ff16612fe35760405162461bcd60e51b815260040161060b90614521565b6001600160a01b0381166130095760405162461bcd60e51b815260040161060b906146c4565b6001600160a01b03166000908152601660205260409020805460ff19166001908117909155600555565b3360009081526002602090815260408083206001600160a01b03861684529091528120546130619083613b31565b3360008181526002602090815260408083206001600160a01b038916808552925291829020849055905190926000805160206149b183398151915291610826919061492f565b6001600160a01b03918216600090815260026020908152604080832093909416825291909152205490565b336001600160a01b03166000356001600160e01b0319166001600160e01b03191660003660405161310492919061416c565b60405180910390a26002600554141561312f5760405162461bcd60e51b815260040161060b90614675565b60026005556007546001600160a01b031661315c5760405162461bcd60e51b815260040161060b906145bf565b60085462010000900460ff166131845760405162461bcd60e51b815260040161060b90614558565b6007546010546011546040516281bd0560e31b815273__SmartPoolManager______________________9363040de828936131d6936001600160a01b03909216929091906012906013906004016142fc565b60006040518083038186803b1580156131ee57600080fd5b505af4158015613202573d6000803e3d6000fd5b5050505060115443106132155760006010555b6001600555565b6004546001600160a01b031633146132465760405162461bcd60e51b815260040161060b9061439a565b600260055414156132695760405162461bcd60e51b815260040161060b90614675565b60026005556040513390600080356001600160e01b0319169161328e9190369061416c565b60405180910390a2600854640100000000900460ff166132c05760405162461bcd60e51b815260040161060b90614521565b6001600160a01b03811660009081526016602052604090205460ff166132f85760405162461bcd60e51b815260040161060b9061458f565b6001600160a01b03811661331e5760405162461bcd60e51b815260040161060b906146c4565b6001600160a01b03166000908152601660205260409020805460ff191690556001600555565b60405160009033906001600160e01b031983351690613366908490369061416c565b60405180910390a2600260055414156133915760405162461bcd60e51b815260040161060b90614675565b60026005556007546001600160a01b03166133be5760405162461bcd60e51b815260040161060b906145bf565b600760009054906101000a90046001600160a01b03166001600160a01b031663fde924f76040518163ffffffff1660e01b815260040160206040518083038186803b15801561340c57600080fd5b505afa158015613420573d6000803e3d6000fd5b505050506040513d601f19601f820116820180604052508101906134449190613ecc565b9050600160055590565b600080600061345d8585613b5d565b91509150801561347f5760405162461bcd60e51b815260040161060b9061480a565b509392505050565b6007546001600160a01b03166134af5760405162461bcd60e51b815260040161060b906145bf565b60075460405163f8b2cb4f60e01b81526000916001600160a01b03169063f8b2cb4f906134e09087906004016140ef565b60206040518083038186803b1580156134f857600080fd5b505afa15801561350c573d6000803e3d6000fd5b505050506040513d601f19601f820116820180604052508101906135309190613f3b565b600754604051634a46c67360e11b81529192506000916001600160a01b039091169063948d8ce6906135669088906004016140ef565b60206040518083038186803b15801561357e57600080fd5b505afa158015613592573d6000803e3d6000fd5b505050506040513d601f19601f820116820180604052508101906135b69190613f3b565b6007549091506001600160a01b0316633fdddaa2866135d5858761344e565b846040518463ffffffff1660e01b81526004016135f493929190614140565b600060405180830381600087803b15801561360e57600080fd5b505af1158015613622573d6000803e3d6000fd5b505060405163a9059cbb60e01b8152600092506001600160a01b038816915063a9059cbb906136579088908890600401614127565b602060405180830381600087803b15801561367157600080fd5b505af1158015613685573d6000803e3d6000fd5b505050506040513d601f19601f820116820180604052508101906136a99190613ecc565b9050806136c85760405162461bcd60e51b815260040161060b906147b2565b505050505050565b6107db308383613784565b3060009081526001602052604090205481111561370a5760405162461bcd60e51b815260040161060b90614610565b30600090815260016020526040902054613724908261344e565b3060009081526001602052604081209190915554613742908261344e565b600090815560405130907fddf252ad1be2c89b69c2b068fc378daa952ba7f163c4a11628f55a4df523b3ef9061377990859061492f565b60405180910390a350565b6001600160a01b0383166000908152600160205260409020548111156137bc5760405162461bcd60e51b815260040161060b90614610565b6001600160a01b0383166000908152600160205260409020546137df908261344e565b6001600160a01b03808516600090815260016020526040808220939093559084168152205461380e9082613b31565b6001600160a01b0380841660008181526001602052604090819020939093559151908516907fddf252ad1be2c89b69c2b068fc378daa952ba7f163c4a11628f55a4df523b3ef9061386090859061492f565b60405180910390a3505050565b306000908152600160205260409020546138879082613b31565b30600090815260016020526040812091909155546138a59082613b31565b60009081556040513091907fddf252ad1be2c89b69c2b068fc378daa952ba7f163c4a11628f55a4df523b3ef9061377990859061492f565b6007546001600160a01b03166139055760405162461bcd60e51b815260040161060b906145bf565b60075460405163f8b2cb4f60e01b81526000916001600160a01b03169063f8b2cb4f906139369087906004016140ef565b60206040518083038186803b15801561394e57600080fd5b505afa158015613962573d6000803e3d6000fd5b505050506040513d601f19601f820116820180604052508101906139869190613f3b565b600754604051634a46c67360e11b81529192506000916001600160a01b039091169063948d8ce6906139bc9088906004016140ef565b60206040518083038186803b1580156139d457600080fd5b505afa1580156139e8573d6000803e3d6000fd5b505050506040513d601f19601f82011682018060405250810190613a0c9190613f3b565b90506000856001600160a01b03166323b872dd8630876040518463ffffffff1660e01b8152600401613a4093929190614103565b602060405180830381600087803b158015613a5a57600080fd5b505af1158015613a6e573d6000803e3d6000fd5b505050506040513d601f19601f82011682018060405250810190613a929190613ecc565b905080613ab15760405162461bcd60e51b815260040161060b906147b2565b6007546001600160a01b0316633fdddaa287613acd8688613b31565b856040518463ffffffff1660e01b8152600401613aec93929190614140565b600060405180830381600087803b158015613b0657600080fd5b505af1158015613b1a573d6000803e3d6000fd5b50505050505050505050565b6107db823083613784565b600082820183811015613b565760405162461bcd60e51b815260040161060b90614835565b9392505050565b600080838311613b735750508082036000613b7b565b505081810360015b9250929050565b828054828255906000526020600020908101928215613bbd579160200282015b82811115613bbd578235825591602001919060010190613ba2565b50613bc9929150613bcd565b5090565b6107af91905b80821115613bc95760008155600101613bd3565b60008083601f840112613bf8578081fd5b50813567ffffffffffffffff811115613c0f578182fd5b6020830191508360208083028501011115613b7b57600080fd5b600082601f830112613c39578081fd5b8151613c4c613c478261496d565b614946565b818152915060208083019084810181840286018201871015613c6d57600080fd5b60005b84811015613c8c57815184529282019290820190600101613c70565b505050505092915050565b600060208284031215613ca8578081fd5b8135613b568161498d565b60008060408385031215613cc5578081fd5b8235613cd08161498d565b91506020830135613ce08161498d565b809150509250929050565b600080600060608486031215613cff578081fd5b8335613d0a8161498d565b92506020840135613d1a8161498d565b929592945050506040919091013590565b60008060408385031215613d3d578182fd5b8235613d488161498d565b946020939093013593505050565b600080600060608486031215613d6a578283fd5b8335613d758161498d565b95602085013595506040909401359392505050565b60006020808385031215613d9c578182fd5b825167ffffffffffffffff811115613db2578283fd5b80840185601f820112613dc3578384fd5b80519150613dd3613c478361496d565b8281528381019082850185850284018601891015613def578687fd5b8693505b84841015613e1a578051613e068161498d565b835260019390930192918501918501613df3565b50979650505050505050565b60008060008060608587031215613e3b578081fd5b843567ffffffffffffffff811115613e51578182fd5b613e5d87828801613be7565b90989097506020870135966040013595509350505050565b600060208284031215613e86578081fd5b815167ffffffffffffffff811115613e9c578182fd5b613ea884828501613c29565b949350505050565b600060208284031215613ec1578081fd5b8135613b56816149a2565b600060208284031215613edd578081fd5b8151613b56816149a2565b600060208284031215613ef9578081fd5b8151613b568161498d565b600060208284031215613f15578081fd5b813560058110613b56578182fd5b600060208284031215613f34578081fd5b5035919050565b600060208284031215613f4c578081fd5b5051919050565b600080600060408486031215613f67578081fd5b83359250602084013567ffffffffffffffff811115613f84578182fd5b613f9086828701613be7565b9497909650939450505050565b60008060408385031215613faf578182fd5b82519150602083015167ffffffffffffffff811115613fcc578182fd5b613fd885828601613c29565b9150509250929050565b60008060408385031215613ff4578182fd5b505080516020909101519092909150565b600080600060608486031215614019578081fd5b8351925060208401519150604084015167ffffffffffffffff81111561403d578182fd5b61404986828701613c29565b9150509250925092565b600080600060608486031215614067578081fd5b505081359360208301359350604090920135919050565b81835260006001600160fb1b03831115614096578081fd5b6020830280836020870137939093016020019283525090919050565b6000815480845260208085019450838352808320835b838110156140e4578154875295820195600191820191016140c8565b509495945050505050565b6001600160a01b0391909116815260200190565b6001600160a01b039384168152919092166020820152604081019190915260600190565b6001600160a01b03929092168252602082015260400190565b6001600160a01b039390931683526020830191909152604082015260600190565b901515815260200190565b60006020825282602083015282846040840137818301604090810191909152601f909201601f19160101919050565b6001600160a01b0393841681529183166020830152909116604082015260600190565b6001600160a01b039485168152928416602084015292166040820152606081019190915260800190565b6001600160a01b03958616815293851660208501529190931660408301526060820192909252608081019190915260a00190565b6001600160a01b0386811682528516602082015260408101849052608060608201819052600090614250908301848661407e565b979650505050505050565b6001600160a01b0394851681529290931660208301526040820152606081019190915260800190565b6001600160a01b03958616815293909416602084015260408301919091526060820152608081019190915260a00190565b600060018060a01b038916825287602083015260c060408301526142dd60c08301878961407e565b606083019590955250608081019290925260a090910152949350505050565b600060018060a01b038716825285602083015284604083015260a0606083015261432960a08301856140b2565b828103608084015261433b81856140b2565b98975050505050505050565b6000602080835283518082850152825b8181101561437357858101830151858201604001528201614357565b818111156143845783604083870101525b50601f01601f1916929092016040019392505050565b60208082526012908201527122a9292fa727aa2fa1a7a72a2927a62622a960711b604082015260600190565b6020808252601c908201527f4552525f43414e4e4f545f4144445f52454d4f56455f544f4b454e5300000000604082015260600190565b6020808252818101527f4552525f494e434f4e53495354454e545f544f4b454e5f54494d455f4c4f434b604082015260600190565b60208082526018908201527f4552525f494e56414c49445f424c4f434b5f504552494f440000000000000000604082015260600190565b6020808252601a908201527f4552525f53544152545f574549474854535f4d49534d41544348000000000000604082015260600190565b6020808252600f908201526e4552525f494e49545f535550504c5960881b604082015260600190565b60208082526014908201527311549497d393d517d3d397d5d2125511531254d560621b604082015260600190565b60208082526010908201526f4552525f5a45524f5f4144445245535360801b604082015260600190565b60208082526018908201527f4552525f43414e4e4f545f57484954454c4953545f4c50530000000000000000604082015260600190565b6020808252601c908201527f4552525f4e4f545f434f4e464947555241424c455f5745494748545300000000604082015260600190565b60208082526016908201527511549497d31417d393d517d5d2125511531254d5115160521b604082015260600190565b6020808252600f908201526e11549497d393d517d0d49150551151608a1b604082015260600190565b6020808252600e908201526d11549497d254d7d0d4915055115160921b604082015260600190565b60208082526014908201527311549497d25394d551919250d251539517d0905360621b604082015260600190565b6020808252601b908201527f4552525f494e56414c49445f544f4b454e5f54494d455f4c4f434b0000000000604082015260600190565b6020808252600b908201526a4552525f5245454e54525960a81b604082015260600190565b60208082526010908201526f4552525f5245454e5452595f5649455760801b604082015260600190565b6020808252601390820152724552525f494e56414c49445f4144445245535360681b604082015260600190565b6020808252601490820152734552525f4e4f4e5a45524f5f455849545f46454560601b604082015260600190565b60208082526016908201527522a9292fa821aa27a5a2a72fa120a22fa1a0a62622a960511b604082015260600190565b6020808252601290820152714552525f544f4f5f4645575f544f4b454e5360701b604082015260600190565b6020808252601b908201527f4552525f52454d4f56455f574954485f4144445f50454e44494e470000000000604082015260600190565b6020808252600f908201526e4552525f45524332305f46414c534560881b604082015260600190565b60208082526015908201527404552525f4e4f545f5041555341424c455f5357415605c1b604082015260600190565b6020808252601190820152704552525f5355425f554e444552464c4f5760781b604082015260600190565b60208082526010908201526f4552525f4144445f4f564552464c4f5760801b604082015260600190565b6020808252601d908201527f4552525f4e4f545f434f4e464947555241424c455f535741505f464545000000604082015260600190565b6020808252601c908201527f4552525f4e4f5f5550444154455f445552494e475f4752414455414c00000000604082015260600190565b600060c082019050835460ff81161515835260ff8160081c161515602084015260ff8160101c161515604084015260ff8160181c161515606084015260ff8160201c1615156080840152506005831061492257fe5b8260a08301529392505050565b90815260200190565b60ff91909116815260200190565b60405181810167ffffffffffffffff8111828210171561496557600080fd5b604052919050565b600067ffffffffffffffff821115614983578081fd5b5060209081020190565b6001600160a01b038116811461087457600080fd5b801515811461087457600080fdfe8c5be1e5ebec7d5bd14f71427d1e84f3dd0314c0f7b2291e5b200ac8c7c3b925a26469706673582212205f05aa23ab19713f805b4eeed4b515afa6563ae4e0d9a33dcd6efc87fffd74c664736f6c63430006060033",
  "immutableReferences": {},
  "source": "// SPDX-License-Identifier: GPL-3.0-or-later\npragma solidity ^0.6.6;\n\n// Needed to handle structures externally\npragma experimental ABIEncoderV2;\n\n// Imports\n\nimport \"./IBFactory.sol\";\nimport \"./PCToken.sol\";\nimport \"./utils/BalancerReentrancyGuard.sol\";\nimport \"./utils/BalancerOwnable.sol\";\n\n// Interfaces\n\n// Libraries\nimport { RightsManager } from \"./libraries/RightsManager.sol\";\nimport \"./libraries/SmartPoolManager.sol\";\n\n// Contracts\n\n/**\n * @author Balancer Labs\n * @title Smart Pool with customizable features\n * @notice PCToken is the \"Balancer Smart Pool\" token (transferred upon finalization)\n * @dev Rights are defined as follows (index values into the array)\n *      0: canPauseSwapping - can setPublicSwap back to false after turning it on\n *                            by default, it is off on initialization and can only be turned on\n *      1: canChangeSwapFee - can setSwapFee after initialization (by default, it is fixed at create time)\n *      2: canChangeWeights - can bind new token weights (allowed by default in base pool)\n *      3: canAddRemoveTokens - can bind/unbind tokens (allowed by default in base pool)\n *      4: canWhitelistLPs - can restrict LPs to a whitelist\n *\n * Note that functions called on bPool and bFactory may look like internal calls,\n *   but since they are contracts accessed through an interface, they are really external.\n * To make this explicit, we could write \"IBPool(address(bPool)).function()\" everywhere,\n *   instead of \"bPool.function()\".\n */\ncontract ConfigurableRightsPool is PCToken, BalancerOwnable, BalancerReentrancyGuard {\n    using BalancerSafeMath for uint;\n\n    // State variables\n\n    IBFactory public bFactory;\n    IBPool public bPool;\n\n    // Struct holding the rights configuration\n    RightsManager.Rights private _rights;\n\n    // This is for adding a new (currently unbound) token to the pool\n    // It's a two-step process: commitAddToken(), then applyAddToken()\n    SmartPoolManager.NewToken private _newToken;\n\n    // Fee is initialized on creation, and can be changed if permission is set\n    // Only needed for temporary storage between construction and createPool\n    // Thereafter, the swap fee should always be read from the underlying pool\n    uint private _swapFee;\n\n    // Store the list of tokens in the pool, and balances\n    // NOTE that the token list is *only* used to store the pool tokens between\n    //   construction and createPool - thereafter, use the underlying BPool's list\n    //   (avoids synchronization issues)\n    address[] private _tokens;\n    uint[] private _startBalances;\n\n    // For blockwise, automated weight updates\n    // Move weights linearly from _startWeights to _newWeights,\n    // between _startBlock and _endBlock\n    uint private _startBlock;\n    uint private _endBlock;\n    uint[] private _startWeights;\n    uint[] private _newWeights;\n\n    // Enforce a minimum time between the start and end blocks\n    uint private _minimumWeightChangeBlockPeriod;\n    // Enforce a mandatory wait time between updates\n    // This is also the wait time between committing and applying a new token\n    uint private _addTokenTimeLockInBlocks;\n\n    // Whitelist of LPs (if configured)\n    mapping(address => bool) private _liquidityProviderWhitelist;\n\n    // Event declarations\n\n    // Anonymous logger event - can only be filtered by contract address\n\n    event LogCall(\n        bytes4  indexed sig,\n        address indexed caller,\n        bytes data\n    ) anonymous;\n\n    event LogJoin(\n        address indexed caller,\n        address indexed tokenIn,\n        uint tokenAmountIn\n    );\n\n    event LogExit(\n        address indexed caller,\n        address indexed tokenOut,\n        uint tokenAmountOut\n    );\n\n    // Modifiers\n\n    modifier logs() {\n        emit LogCall(msg.sig, msg.sender, msg.data);\n        _;\n    }\n\n    // Mark functions that require delegation to the underlying Pool\n    modifier needsBPool() {\n        require(address(bPool) != address(0), \"ERR_NOT_CREATED\");\n        _;\n    }\n\n    // Default values for these variables (used only in updateWeightsGradually), set in the constructor\n    // Pools without permission to update weights cannot use them anyway, and should call\n    //   the default createPool() function.\n    // To override these defaults, pass them into the overloaded createPool()\n    uint public constant DEFAULT_MIN_WEIGHT_CHANGE_BLOCK_PERIOD = 10;\n    uint public constant DEFAULT_ADD_TOKEN_TIME_LOCK_IN_BLOCKS = 10;\n\n    // Function declarations\n\n    /**\n     * @notice Construct a new Configurable Rights Pool (wrapper around BPool)\n     * @dev _tokens and _swapFee are only used for temporary storage between construction\n     *      and create pool, and should not be used thereafter! _tokens is destroyed in\n     *      createPool to prevent this, and _swapFee is kept in sync (defensively), but\n     *      should never be used except in this constructor and createPool()\n     * @param factoryAddress - the BPoolFactory used to create the underlying pool\n     * @param tokenSymbolString - Token symbol (named thus to avoid shadowing)\n     * @param tokens - list of tokens to include\n     * @param startBalances - initial token balances\n     * @param startWeights - initial token weights\n     * @param swapFee - initial swap fee (will set on the core pool after pool creation)\n     * @param rights - Set of permissions we are assigning to this smart pool\n     */\n    constructor(\n        address factoryAddress,\n        string memory tokenSymbolString,\n        address[] memory tokens,\n        uint[] memory startBalances,\n        uint[] memory startWeights,\n        uint swapFee,\n        RightsManager.Rights memory rights\n    )\n        public\n        PCToken(tokenSymbolString)\n    {\n        require(tokens.length >= BalancerConstants.MIN_ASSET_LIMIT, \"ERR_TOO_FEW_TOKENS\");\n\n        // Arrays must be parallel\n        require(startBalances.length == tokens.length, \"ERR_START_BALANCES_MISMATCH\");\n        require(startWeights.length == tokens.length, \"ERR_START_WEIGHTS_MISMATCH\");\n\n        // We don't have a pool yet; check now or it will fail later\n        // (and be unrecoverable if they don't have permission set to change it)\n        require(swapFee >= BalancerConstants.MIN_FEE, \"ERR_INVALID_SWAP_FEE\");\n        require(swapFee <= BalancerConstants.MAX_FEE, \"ERR_INVALID_SWAP_FEE\");\n\n        bFactory = IBFactory(factoryAddress);\n        _tokens = tokens;\n        _startBalances = startBalances;\n        _startWeights = startWeights;\n        _swapFee = swapFee;\n        _minimumWeightChangeBlockPeriod = DEFAULT_MIN_WEIGHT_CHANGE_BLOCK_PERIOD;\n        _addTokenTimeLockInBlocks = DEFAULT_ADD_TOKEN_TIME_LOCK_IN_BLOCKS;\n        // Initializing (unnecessarily) for documentation - 0 means no gradual weight change has been initiated\n        _startBlock = 0;\n        _rights = rights;\n    }\n\n    // External functions\n\n    /**\n     * @notice Getter for the RightsManager contract\n     * @dev Convenience function to get the address of the RightsManager library (so clients can check version)\n     * @return address of the RightsManager library\n    */\n    function getRightsManagerVersion() external pure returns (address) {\n        return address(RightsManager);\n    }\n\n    /**\n     * @notice Getter for the BalancerSafeMath contract\n     * @dev Convenience function to get the address of the BalancerSafeMath library (so clients can check version)\n     * @return address of the BalancerSafeMath library\n    */\n    function getBalancerSafeMathVersion() external pure returns (address) {\n        return address(BalancerSafeMath);\n    }\n\n    /**\n     * @notice Getter for the SmartPoolManager contract\n     * @dev Convenience function to get the address of the SmartPoolManager library (so clients can check version)\n     * @return address of the SmartPoolManager library\n    */\n    function getSmartPoolManagerVersion() external pure returns (address) {\n        return address(SmartPoolManager);\n    }\n\n    /**\n     * @notice Getter for specific permissions\n     * @dev value of the enum is just the 0-based index in the enumeration\n     *      For instance canPauseSwapping is 0; canChangeWeights is 2\n     * @return token boolean true if we have the given permission\n    */\n    function hasPermission(RightsManager.Permissions permission)\n        external\n        view\n        virtual\n        returns(bool)\n    {\n        return RightsManager.hasPermission(_rights, permission);\n    }\n\n    /**\n     * @notice Get the denormalized weight of a token\n     * @dev viewlock to prevent calling if it's being updated\n     * @return token weight\n     */\n    function getDenormalizedWeight(address token)\n        external\n        view\n        viewlock\n        needsBPool\n        returns (uint)\n    {\n        return bPool.getDenormalizedWeight(token);\n    }\n\n    /**\n     * @notice Set the swap fee on the underlying pool\n     * @dev Keep the local version and core in sync (see below)\n     *      bPool is a contract interface; function calls on it are external\n     * @param swapFee in Wei\n     */\n    function setSwapFee(uint swapFee)\n        external\n        logs\n        lock\n        onlyOwner\n        needsBPool\n        virtual\n    {\n        require(_rights.canChangeSwapFee, \"ERR_NOT_CONFIGURABLE_SWAP_FEE\");\n\n        // Like the _token list, this is only needed between construction and createPool\n        // The _token list is destroyed in createPool to prevent later use, but _swapFee\n        // is just a uint, so keep it in sync defensively, but always read from the\n        // underlying pool after it's created\n        _swapFee = swapFee;\n\n        // Underlying pool will check against min/max fee\n        bPool.setSwapFee(swapFee);\n    }\n\n    /**\n     * @notice Getter for the publicSwap field on the underlying pool\n     * @dev nonReentrantView, because setPublicSwap is nonReentrant\n     *      bPool is a contract interface; function calls on it are external\n     * @return Current value of isPublicSwap\n     */\n    function isPublicSwap()\n        external\n        logs\n        lock\n        needsBPool\n        virtual\n        returns (bool)\n    {\n        return bPool.isPublicSwap();\n    }\n\n    /**\n     * @notice Set the public swap flag on the underlying pool\n     * @dev If this smart pool has canPauseSwapping enabled, we can turn publicSwap off if it's already on\n     *      Note that if they turn swapping off - but then finalize the pool - finalizing will turn the\n     *      swapping back on. They're not supposed to finalize the underlying pool... would defeat the\n     *      smart pool functions. (Only the owner can finalize the pool - which is this contract -\n     *      so there is no risk from outside.)\n     *\n     *      bPool is a contract interface; function calls on it are external\n     * @param publicSwap new value of the swap\n     */\n    function setPublicSwap(bool publicSwap)\n        external\n        logs\n        lock\n        onlyOwner\n        needsBPool\n        virtual\n    {\n        require(_rights.canPauseSwapping, \"ERR_NOT_PAUSABLE_SWAP\");\n\n        bPool.setPublicSwap(publicSwap);\n    }\n\n    /**\n     * @notice Create a new Smart Pool - and set the block period time parameters\n     * @dev Initialize the swap fee to the value provided in the CRP constructor\n     *      Can be changed if the canChangeSwapFee permission is enabled\n     *      Time parameters will be fixed at these values\n     *\n     *      If this contract doesn't have canChangeWeights permission - or you want to use the default\n     *      values, the block time arguments\n     *      are not needed, and you can just call the single-argument createPool()\n     *\n     *      Code is duplicated in the overloaded createPool! If you change one, change the other!\n     *      Unfortunately I cannot call this.createPool(initialSupply) from the overloaded one,\n     *      because msg.sender will be different (contract address vs external account), and the\n     *      token transfers would fail\n     * @param initialSupply starting token balance\n     * @param minimumWeightChangeBlockPeriod - Enforce a minimum time between the start and end blocks\n     * @param addTokenTimeLockInBlocks - Enforce a mandatory wait time between updates\n     *                                   This is also the wait time between committing and applying a new token\n     */\n    function createPool(\n        uint initialSupply,\n        uint minimumWeightChangeBlockPeriod,\n        uint addTokenTimeLockInBlocks\n    )\n        external\n        logs\n        lock\n        virtual\n    {\n        require(minimumWeightChangeBlockPeriod >= BalancerConstants.MIN_WEIGHT_CHANGE_BLOCK_PERIOD,\n                \"ERR_INVALID_BLOCK_PERIOD\");\n        require(addTokenTimeLockInBlocks <= minimumWeightChangeBlockPeriod,\n                \"ERR_INCONSISTENT_TOKEN_TIME_LOCK\");\n        require(addTokenTimeLockInBlocks >= BalancerConstants.MIN_TOKEN_TIME_LOCK_PERIOD,\n                \"ERR_INVALID_TOKEN_TIME_LOCK\");\n\n        _minimumWeightChangeBlockPeriod = minimumWeightChangeBlockPeriod;\n        _addTokenTimeLockInBlocks = addTokenTimeLockInBlocks;\n\n        require(address(bPool) == address(0), \"ERR_IS_CREATED\");\n        require(initialSupply > 0, \"ERR_INIT_SUPPLY\");\n\n        // There is technically reentrancy here, since we're making external calls and\n        //   then transferring tokens. However, the external calls are all to the underlying BPool\n\n        // Deploy new BPool (bFactory and bPool are interfaces; all calls are external)\n        bPool = bFactory.newBPool();\n\n        // EXIT_FEE must always be zero, or ConfigurableRightsPool._pushUnderlying will fail\n        require(bPool.EXIT_FEE() == 0, \"ERR_NONZERO_EXIT_FEE\");\n        require(BalancerConstants.EXIT_FEE == 0, \"ERR_NONZERO_EXIT_FEE\");\n\n        // Set fee to the initial value set in the constructor\n        // Hereafter, read the swapFee from the underlying pool, not the local state variable\n        bPool.setSwapFee(_swapFee);\n\n        for (uint i = 0; i < _tokens.length; i++) {\n            address t = _tokens[i];\n            uint bal = _startBalances[i];\n            uint denorm = _startWeights[i];\n\n            bool returnValue = IERC20(t).transferFrom(msg.sender, address(this), bal);\n            require(returnValue, \"ERR_ERC20_FALSE\");\n\n            returnValue = IERC20(t).approve(address(bPool), uint(-1));\n            require(returnValue, \"ERR_ERC20_FALSE\");\n\n            // Binding pushes a token to the end of the underlying pool's array\n            // After binding, we discard the local _tokens array\n            bPool.bind(t, bal, denorm);\n        }\n\n        // Destroy local storage token list to prevent use of it after createPool\n        // Hereafter, the token list is maintained by the underlying pool\n        while (_tokens.length > 0) {\n            _tokens.pop();\n        }\n\n        bPool.setPublicSwap(true);\n\n        _mintPoolShare(initialSupply);\n        _pushPoolShare(msg.sender, initialSupply);\n    }\n\n    /**\n     * @notice Create a new Smart Pool\n     * @dev Initialize the swap fee to the value provided in the CRP constructor\n     *      Can be changed if the canChangeSwapFee permission is enabled\n     *      NB:\n     *      Code is duplicated in the overloaded createPool! If you change one, change the other!\n     *      Unfortunately I cannot call this.createPool(initialSupply) from the overloaded one,\n     *      because msg.sender will be different (contract address vs external account), and the\n     *      token transfers would fail. Overloading is tricky with external functions.\n     * @param initialSupply starting token balance\n     */\n    function createPool(uint initialSupply)\n        external\n        logs\n        lock\n        virtual\n    {\n        require(address(bPool) == address(0), \"ERR_IS_CREATED\");\n        require(initialSupply > 0, \"ERR_INIT_SUPPLY\");\n\n        // There is technically reentrancy here, since we're making external calls and\n        // then transferring tokens. However, the external calls are all to the underlying BPool\n\n        // Deploy new BPool (bFactory and bPool are interfaces; all calls are external)\n        bPool = bFactory.newBPool();\n\n        // EXIT_FEE must always be zero, or ConfigurableRightsPool._pushUnderlying will fail\n        require(bPool.EXIT_FEE() == 0, \"ERR_NONZERO_EXIT_FEE\");\n        require(BalancerConstants.EXIT_FEE == 0, \"ERR_NONZERO_EXIT_FEE\");\n\n        // Set fee to the initial value set in the constructor\n        // Hereafter, read the swapFee from the underlying pool, not the local state variable\n        bPool.setSwapFee(_swapFee);\n\n        for (uint i = 0; i < _tokens.length; i++) {\n            address t = _tokens[i];\n            uint bal = _startBalances[i];\n            uint denorm = _startWeights[i];\n\n            bool returnValue = IERC20(t).transferFrom(msg.sender, address(this), bal);\n            require(returnValue, \"ERR_ERC20_FALSE\");\n\n            returnValue = IERC20(t).approve(address(bPool), uint(-1));\n            require(returnValue, \"ERR_ERC20_FALSE\");\n\n            bPool.bind(t, bal, denorm);\n        }\n\n        // Clear local storage to prevent use of it after createPool\n        while (_tokens.length > 0) {\n            _tokens.pop();\n        }\n\n        // Do \"finalize\" things, but can't call bPool.finalize(), or it wouldn't let us rebind or do any\n        // adjustments. The underlying pool has to remain unfinalized, but we want to mint the tokens\n        // immediately. This is how a CRP differs from base Pool. Base Pool tokens are issued on finalize;\n        // CRP pool tokens are issued on create.\n        //\n        // We really don't need a \"CRP level\" finalize. It is considered \"finalized\" on creation.\n        // The underlying pool is never finalized. So it is sufficient just to check that the pool exists,\n        // and you can join it.\n        bPool.setPublicSwap(true);\n\n        _mintPoolShare(initialSupply);\n        _pushPoolShare(msg.sender, initialSupply);\n    }\n\n    /**\n     * @notice Update the weight of an existing token\n     * @dev Notice Balance is not an input (like with rebind on BPool) since we will require prices not to change\n     *      This is achieved by forcing balances to change proportionally to weights, so that prices don't change\n     *      If prices could be changed, this would allow the controller to drain the pool by arbing price changes\n     * @param token - token to be reweighted\n     * @param newWeight - new weight of the token\n    */\n    function updateWeight(address token, uint newWeight)\n        external\n        logs\n        lock\n        onlyOwner\n        needsBPool\n        virtual\n    {\n        require(_rights.canChangeWeights, \"ERR_NOT_CONFIGURABLE_WEIGHTS\");\n\n        // We don't want people to set weights manually if there's a block-based update in progress\n        require(_startBlock == 0, \"ERR_NO_UPDATE_DURING_GRADUAL\");\n\n        // Delegate to library to save space\n        SmartPoolManager.updateWeight(this, bPool, token, newWeight);\n    }\n\n    /**\n     * @notice Update weights in a predetermined way, between startBlock and endBlock,\n     *         through external calls to pokeWeights\n     * @dev Must call pokeWeights at least once past the end for it to do the final update\n     *      and enable calling this again.\n     *      It is possible to call updateWeightsGradually during an update in some use cases\n     *      For instance, setting newWeights to currentWeights to stop the update where it is\n     * @param newWeights - final weights we want to get to\n     * @param startBlock - when weights should start to change\n     * @param endBlock - when weights will be at their final values\n    */\n    function updateWeightsGradually(\n        uint[] calldata newWeights,\n        uint startBlock,\n        uint endBlock\n    )\n        external\n        logs\n        lock\n        onlyOwner\n        needsBPool\n        virtual\n    {\n        require(_rights.canChangeWeights, \"ERR_NOT_CONFIGURABLE_WEIGHTS\");\n        // After createPool, token list is maintained in the underlying BPool\n        address[] memory poolTokens = bPool.getCurrentTokens();\n\n        // Must specify weights for all tokens\n        require(newWeights.length == poolTokens.length, \"ERR_START_WEIGHTS_MISMATCH\");\n\n        // Delegate to library to save space\n\n        // Library computes the startBlock, computes startWeights as the current\n        // denormalized weights of the core pool tokens.\n        (uint actualStartBlock,\n         uint[] memory startWeights) = SmartPoolManager.updateWeightsGradually(\n                                           bPool,\n                                           _newToken,\n                                           newWeights,\n                                           startBlock,\n                                           endBlock,\n                                           _minimumWeightChangeBlockPeriod\n                                       );\n        _startBlock = actualStartBlock;\n        _endBlock = endBlock;\n        _newWeights = newWeights;\n\n        for (uint i = 0; i < poolTokens.length; i++) {\n            _startWeights[i] = startWeights[i];\n        }\n    }\n\n    /**\n     * @notice External function called to make the contract update weights according to plan\n     * @dev Still works if we poke after the end of the period; also works if the weights don't change\n     *      Resets if we are poking beyond the end, so that we can do it again\n    */\n    function pokeWeights()\n        external\n        logs\n        lock\n        needsBPool\n        virtual\n    {\n        require(_rights.canChangeWeights, \"ERR_NOT_CONFIGURABLE_WEIGHTS\");\n\n        // Delegate to library to save space\n        SmartPoolManager.pokeWeights(\n            bPool,\n            _startBlock,\n            _endBlock,\n            _startWeights,\n            _newWeights\n        );\n\n        // Reset to allow add/remove tokens, or manual weight updates\n        if (block.number >= _endBlock) {\n            _startBlock = 0;\n        }\n    }\n\n    /**\n     * @notice Schedule (commit) a token to be added; must call applyAddToken after a fixed\n     *         number of blocks to actually add the token\n     * @dev Not sure about the naming here. Kind of reversed; I would think you would \"Apply\" to add\n     *      a token, then \"Commit\" it to actually do the binding.\n     * @param token - the token to be added\n     * @param balance - how much to be added\n     * @param denormalizedWeight - the desired token weight\n     */\n    function commitAddToken(\n        address token,\n        uint balance,\n        uint denormalizedWeight\n    )\n        external\n        logs\n        lock\n        onlyOwner\n        needsBPool\n        virtual\n    {\n        require(_rights.canAddRemoveTokens, \"ERR_CANNOT_ADD_REMOVE_TOKENS\");\n\n        // Can't do this while a progressive update is happening\n        require(_startBlock == 0, \"ERR_NO_UPDATE_DURING_GRADUAL\");\n\n        // Delegate to library to save space\n        SmartPoolManager.commitAddToken(\n            bPool,\n            token,\n            balance,\n            denormalizedWeight,\n            _newToken\n        );\n    }\n\n    /**\n     * @notice Add the token previously committed (in commitAddToken) to the pool\n     */\n    function applyAddToken()\n        external\n        logs\n        lock\n        onlyOwner\n        needsBPool\n        virtual\n    {\n        require(_rights.canAddRemoveTokens, \"ERR_CANNOT_ADD_REMOVE_TOKENS\");\n\n        // Delegate to library to save space\n        SmartPoolManager.applyAddToken(\n            this,\n            bPool,\n            _addTokenTimeLockInBlocks,\n            _newToken\n        );\n    }\n\n     /**\n     * @notice Remove a token from the pool\n     * @dev bPool is a contract interface; function calls on it are external\n     * @param token - token to remove\n     */\n    function removeToken(address token)\n        external\n        logs\n        lock\n        onlyOwner\n        needsBPool\n    {\n        require(_rights.canAddRemoveTokens, \"ERR_CANNOT_ADD_REMOVE_TOKENS\");\n        // After createPool, token list is maintained in the underlying BPool\n        address[] memory poolTokens = bPool.getCurrentTokens();\n\n        require(poolTokens.length > BalancerConstants.MIN_ASSET_LIMIT, \"ERR_TOO_FEW_TOKENS\");\n        require(!_newToken.isCommitted, \"ERR_REMOVE_WITH_ADD_PENDING\");\n\n        // Delegate to library to save space\n        SmartPoolManager.removeToken(\n            this,\n            bPool,\n            token\n        );\n   }\n\n    /**\n     * @notice Join a pool\n     * @dev Emits a LogJoin event (for each token)\n     *      bPool is a contract interface; function calls on it are external\n     * @param poolAmountOut - number of pool tokens to receive\n     * @param maxAmountsIn - Max amount of asset tokens to spend\n     */\n    function joinPool(uint poolAmountOut, uint[] calldata maxAmountsIn)\n         external\n        logs\n        lock\n        needsBPool\n    {\n        require(!_rights.canWhitelistLPs || _liquidityProviderWhitelist[msg.sender],\n                \"ERR_NOT_ON_WHITELIST\");\n\n        // Delegate to library to save space\n\n        // Library computes actualAmountsIn, and does many validations\n        // Cannot call the push/pull/min from an external library for\n        // any of these pool functions. Since msg.sender can be anybody,\n        // they must be internal\n        uint[] memory actualAmountsIn = SmartPoolManager.joinPool(\n                                            this,\n                                            bPool,\n                                            poolAmountOut,\n                                            maxAmountsIn\n                                        );\n\n        // After createPool, token list is maintained in the underlying BPool\n        address[] memory poolTokens = bPool.getCurrentTokens();\n\n        for (uint i = 0; i < poolTokens.length; i++) {\n            address t = poolTokens[i];\n            uint tokenAmountIn = actualAmountsIn[i];\n\n            emit LogJoin(msg.sender, t, tokenAmountIn);\n\n            _pullUnderlying(t, msg.sender, tokenAmountIn);\n        }\n\n        _mintPoolShare(poolAmountOut);\n        _pushPoolShare(msg.sender, poolAmountOut);\n    }\n\n    /**\n     * @notice Exit a pool - redeem pool tokens for underlying assets\n     * @dev Emits a LogExit event for each token\n     *      bPool is a contract interface; function calls on it are external\n     * @param poolAmountIn - amount of pool tokens to redeem\n     * @param minAmountsOut - minimum amount of asset tokens to receive\n     */\n    function exitPool(uint poolAmountIn, uint[] calldata minAmountsOut)\n        external\n        logs\n        lock\n        needsBPool\n    {\n        // Delegate to library to save space\n\n        // Library computes actualAmountsOut, and does many validations\n        // Also computes the exitFee and pAiAfterExitFee\n        (uint exitFee,\n         uint pAiAfterExitFee,\n         uint[] memory actualAmountsOut) = SmartPoolManager.exitPool(\n                                               this,\n                                               bPool,\n                                               poolAmountIn,\n                                               minAmountsOut\n                                           );\n\n        _pullPoolShare(msg.sender, poolAmountIn);\n        _pushPoolShare(address(bFactory), exitFee);\n        _burnPoolShare(pAiAfterExitFee);\n\n        // After createPool, token list is maintained in the underlying BPool\n        address[] memory poolTokens = bPool.getCurrentTokens();\n\n        for (uint i = 0; i < poolTokens.length; i++) {\n            address t = poolTokens[i];\n            uint tokenAmountOut = actualAmountsOut[i];\n\n            emit LogExit(msg.sender, t, tokenAmountOut);\n\n            _pushUnderlying(t, msg.sender, tokenAmountOut);\n        }\n    }\n\n    /**\n     * @notice Join by swapping a fixed amount of an external token in (must be present in the pool)\n     *         System calculates the pool token amount\n     * @dev emits a LogJoin event\n     * @param tokenIn - which token we're transferring in\n     * @param tokenAmountIn - amount of deposit\n     * @param minPoolAmountOut - minimum of pool tokens to receive\n     * @return poolAmountOut - amount of pool tokens minted and transferred\n     */\n    function joinswapExternAmountIn(\n        address tokenIn,\n        uint tokenAmountIn,\n        uint minPoolAmountOut\n    )\n        external\n        logs\n        lock\n        needsBPool\n        returns (uint poolAmountOut)\n    {\n        require(!_rights.canWhitelistLPs || _liquidityProviderWhitelist[msg.sender],\n                \"ERR_NOT_ON_WHITELIST\");\n\n        // Delegate to library to save space\n        poolAmountOut = SmartPoolManager.joinswapExternAmountIn(\n                            this,\n                            bPool,\n                            tokenIn,\n                            tokenAmountIn,\n                            minPoolAmountOut\n                        );\n\n        emit LogJoin(msg.sender, tokenIn, tokenAmountIn);\n\n        _mintPoolShare(poolAmountOut);\n        _pushPoolShare(msg.sender, poolAmountOut);\n        _pullUnderlying(tokenIn, msg.sender, tokenAmountIn);\n\n        return poolAmountOut;\n    }\n\n    /**\n     * @notice Join by swapping an external token in (must be present in the pool)\n     *         To receive an exact amount of pool tokens out. System calculates the deposit amount\n     * @dev emits a LogJoin event\n     * @param tokenIn - which token we're transferring in (system calculates amount required)\n     * @param poolAmountOut - amount of pool tokens to be received\n     * @param maxAmountIn - Maximum asset tokens that can be pulled to pay for the pool tokens\n     * @return tokenAmountIn - amount of asset tokens transferred in to purchase the pool tokens\n     */\n    function joinswapPoolAmountOut(\n        address tokenIn,\n        uint poolAmountOut,\n        uint maxAmountIn\n    )\n        external\n        logs\n        lock\n        needsBPool\n        returns (uint tokenAmountIn)\n    {\n        require(!_rights.canWhitelistLPs || _liquidityProviderWhitelist[msg.sender],\n                \"ERR_NOT_ON_WHITELIST\");\n\n        // Delegate to library to save space\n        tokenAmountIn = SmartPoolManager.joinswapPoolAmountOut(\n                            this,\n                            bPool,\n                            tokenIn,\n                            poolAmountOut,\n                            maxAmountIn\n                        );\n\n        emit LogJoin(msg.sender, tokenIn, tokenAmountIn);\n\n        _mintPoolShare(poolAmountOut);\n        _pushPoolShare(msg.sender, poolAmountOut);\n        _pullUnderlying(tokenIn, msg.sender, tokenAmountIn);\n\n        return tokenAmountIn;\n    }\n\n    /**\n     * @notice Exit a pool - redeem a specific number of pool tokens for an underlying asset\n     *         Asset must be present in the pool, and will incur an EXIT_FEE (if set to non-zero)\n     * @dev Emits a LogExit event for the token\n     * @param tokenOut - which token the caller wants to receive\n     * @param poolAmountIn - amount of pool tokens to redeem\n     * @param minAmountOut - minimum asset tokens to receive\n     * @return tokenAmountOut - amount of asset tokens returned\n     */\n    function exitswapPoolAmountIn(\n        address tokenOut,\n        uint poolAmountIn,\n        uint minAmountOut\n    )\n        external\n        logs\n        lock\n        needsBPool\n        returns (uint tokenAmountOut)\n    {\n        // Delegate to library to save space\n\n        // Calculates final amountOut, and the fee and final amount in\n        (uint exitFee,\n         uint amountOut) = SmartPoolManager.exitswapPoolAmountIn(\n                               this,\n                               bPool,\n                               tokenOut,\n                               poolAmountIn,\n                               minAmountOut\n                           );\n\n        tokenAmountOut = amountOut;\n        uint pAiAfterExitFee = BalancerSafeMath.bsub(poolAmountIn, exitFee);\n\n        emit LogExit(msg.sender, tokenOut, tokenAmountOut);\n\n        _pullPoolShare(msg.sender, poolAmountIn);\n        _burnPoolShare(pAiAfterExitFee);\n        _pushPoolShare(address(bFactory), exitFee);\n        _pushUnderlying(tokenOut, msg.sender, tokenAmountOut);\n\n        return tokenAmountOut;\n    }\n\n    /**\n     * @notice Exit a pool - redeem pool tokens for a specific amount of underlying assets\n     *         Asset must be present in the pool\n     * @dev Emits a LogExit event for the token\n     * @param tokenOut - which token the caller wants to receive\n     * @param tokenAmountOut - amount of underlying asset tokens to receive\n     * @param maxPoolAmountIn - maximum pool tokens to be redeemed\n     * @return poolAmountIn - amount of pool tokens redeemed\n     */\n    function exitswapExternAmountOut(\n        address tokenOut,\n        uint tokenAmountOut,\n        uint maxPoolAmountIn\n    )\n        external\n        logs\n        lock\n        needsBPool\n        returns (uint poolAmountIn)\n    {\n        // Delegate to library to save space\n\n        // Calculates final amounts in, accounting for the exit fee\n        (uint exitFee,\n         uint amountIn) = SmartPoolManager.exitswapExternAmountOut(\n                              this,\n                              bPool,\n                              tokenOut,\n                              tokenAmountOut,\n                              maxPoolAmountIn\n                          );\n\n        poolAmountIn = amountIn;\n        uint pAiAfterExitFee = BalancerSafeMath.bsub(poolAmountIn, exitFee);\n\n        emit LogExit(msg.sender, tokenOut, tokenAmountOut);\n\n        _pullPoolShare(msg.sender, poolAmountIn);\n        _burnPoolShare(pAiAfterExitFee);\n        _pushPoolShare(address(bFactory), exitFee);\n        _pushUnderlying(tokenOut, msg.sender, tokenAmountOut);\n\n        return poolAmountIn;\n    }\n\n    /**\n     * @notice Check if an address is a liquidity provider\n     * @dev If the whitelist feature is not enabled, anyone can provide liquidity (assuming finalized)\n     * @return boolean value indicating whether the address can join a pool\n     */\n    function canProvideLiquidity(address provider)\n        external\n        view\n        returns(bool)\n    {\n        if (_rights.canWhitelistLPs) {\n            return _liquidityProviderWhitelist[provider];\n        }\n        else {\n            // Probably don't strictly need this (could just return true)\n            // But the null address can't provide funds\n            return provider != address(0);\n        }\n    }\n\n    /**\n     * @notice Add to the whitelist of liquidity providers (if enabled)\n     * @param provider - address of the liquidity provider\n     */\n    function whitelistLiquidityProvider(address provider)\n        external\n        onlyOwner\n        lock\n        logs\n    {\n        require(_rights.canWhitelistLPs, \"ERR_CANNOT_WHITELIST_LPS\");\n        require(provider != address(0), \"ERR_INVALID_ADDRESS\");\n\n        _liquidityProviderWhitelist[provider] = true;\n    }\n\n    /**\n     * @notice Remove from the whitelist of liquidity providers (if enabled)\n     * @param provider - address of the liquidity provider\n     */\n    function removeWhitelistedLiquidityProvider(address provider)\n        external\n        onlyOwner\n        lock\n        logs\n    {\n        require(_rights.canWhitelistLPs, \"ERR_CANNOT_WHITELIST_LPS\");\n        require(_liquidityProviderWhitelist[provider], \"ERR_LP_NOT_WHITELISTED\");\n        require(provider != address(0), \"ERR_INVALID_ADDRESS\");\n\n        _liquidityProviderWhitelist[provider] = false;\n    }\n\n    // Public functions\n\n    // Internal functions\n\n    // Accessor to allow subclasses to check the start block\n    function getStartBlock() internal view returns (uint) {\n        return _startBlock;\n    }\n\n    // Rebind BPool and pull tokens from address\n    // bPool is a contract interface; function calls on it are external\n    function _pullUnderlying(address erc20, address from, uint amount) internal needsBPool {\n        // Gets current Balance of token i, Bi, and weight of token i, Wi, from BPool.\n        uint tokenBalance = bPool.getBalance(erc20);\n        uint tokenWeight = bPool.getDenormalizedWeight(erc20);\n\n        bool xfer = IERC20(erc20).transferFrom(from, address(this), amount);\n        require(xfer, \"ERR_ERC20_FALSE\");\n        bPool.rebind(erc20, BalancerSafeMath.badd(tokenBalance, amount), tokenWeight);\n    }\n\n    // Rebind BPool and push tokens to address\n    // bPool is a contract interface; function calls on it are external\n    function _pushUnderlying(address erc20, address to, uint amount) internal needsBPool {\n        // Gets current Balance of token i, Bi, and weight of token i, Wi, from BPool.\n        uint tokenBalance = bPool.getBalance(erc20);\n        uint tokenWeight = bPool.getDenormalizedWeight(erc20);\n        bPool.rebind(erc20, BalancerSafeMath.bsub(tokenBalance, amount), tokenWeight);\n\n        bool xfer = IERC20(erc20).transfer(to, amount);\n        require(xfer, \"ERR_ERC20_FALSE\");\n    }\n\n    // Wrappers around corresponding core functions\n\n    function _mintPoolShare(uint amount) internal {\n        _mint(amount);\n    }\n\n    function _pushPoolShare(address to, uint amount) internal {\n        _push(to, amount);\n    }\n\n    function _pullPoolShare(address from, uint amount) internal  {\n        _pull(from, amount);\n    }\n\n    function _burnPoolShare(uint amount) internal  {\n        _burn(amount);\n    }\n\n    // \"Public\" versions that can safely be called from SmartPoolManager\n    // Allows only the contract itself to call them (not the controller or any external account)\n\n    function mintPoolShareFromLib(uint amount) public {\n        require (msg.sender == address(this), \"ERR_NOT_CONTROLLER\");\n\n        _mint(amount);\n    }\n\n    function pushPoolShareFromLib(address to, uint amount) public {\n        require (msg.sender == address(this), \"ERR_NOT_CONTROLLER\");\n\n        _push(to, amount);\n    }\n\n    function pullPoolShareFromLib(address from, uint amount) public  {\n        require (msg.sender == address(this), \"ERR_NOT_CONTROLLER\");\n\n        _pull(from, amount);\n    }\n\n    function burnPoolShareFromLib(uint amount) public  {\n        require (msg.sender == address(this), \"ERR_NOT_CONTROLLER\");\n\n        _burn(amount);\n    }\n}\n",
  "sourcePath": "/Users/arseny/Projects/curvelabs/research/1-balancer-sale/contracts/ConfigurableRightsPool.sol",
  "compiler": {
    "name": "solc",
    "version": "0.6.6+commit.6c089d02.Emscripten.clang"
  },
  "schemaVersion": "3.2.4",
  "updatedAt": "2020-09-11T09:34:19.053Z",
  "devdoc": {
    "author": "Balancer Labs",
    "details": "Rights are defined as follows (index values into the array)     0: canPauseSwapping - can setPublicSwap back to false after turning it on                           by default, it is off on initialization and can only be turned on     1: canChangeSwapFee - can setSwapFee after initialization (by default, it is fixed at create time)     2: canChangeWeights - can bind new token weights (allowed by default in base pool)     3: canAddRemoveTokens - can bind/unbind tokens (allowed by default in base pool)     4: canWhitelistLPs - can restrict LPs to a whitelist * Note that functions called on bPool and bFactory may look like internal calls,  but since they are contracts accessed through an interface, they are really external. To make this explicit, we could write \"IBPool(address(bPool)).function()\" everywhere,  instead of \"bPool.function()\".",
    "methods": {
      "allowance(address,address)": {
        "params": {
          "owner": "- owner of the tokens",
          "spender": "- entity allowed to spend the tokens"
        },
        "returns": {
          "_0": "uint - remaining amount spender is allowed to transfer"
        }
      },
      "approve(address,uint256)": {
        "details": "emits an Approval event",
        "params": {
          "amount": "- number of tokens being approved",
          "spender": "- entity the owner (sender) is approving to spend his tokens"
        },
        "returns": {
          "_0": "bool - result of the approval (will always be true if it doesn't revert)"
        }
      },
      "balanceOf(address)": {
        "params": {
          "account": "- address we're checking the balance of"
        },
        "returns": {
          "_0": "uint - token balance in the account"
        }
      },
      "canProvideLiquidity(address)": {
        "details": "If the whitelist feature is not enabled, anyone can provide liquidity (assuming finalized)",
        "returns": {
          "_0": "boolean value indicating whether the address can join a pool"
        }
      },
      "commitAddToken(address,uint256,uint256)": {
        "details": "Not sure about the naming here. Kind of reversed; I would think you would \"Apply\" to add     a token, then \"Commit\" it to actually do the binding.",
        "params": {
          "balance": "- how much to be added",
          "denormalizedWeight": "- the desired token weight",
          "token": "- the token to be added"
        }
      },
      "constructor": {
        "details": "_tokens and _swapFee are only used for temporary storage between construction     and create pool, and should not be used thereafter! _tokens is destroyed in     createPool to prevent this, and _swapFee is kept in sync (defensively), but     should never be used except in this constructor and createPool()",
        "params": {
          "factoryAddress": "- the BPoolFactory used to create the underlying pool",
          "rights": "- Set of permissions we are assigning to this smart pool",
          "startBalances": "- initial token balances",
          "startWeights": "- initial token weights",
          "swapFee": "- initial swap fee (will set on the core pool after pool creation)",
          "tokenSymbolString": "- Token symbol (named thus to avoid shadowing)",
          "tokens": "- list of tokens to include"
        }
      },
      "createPool(uint256)": {
        "details": "Initialize the swap fee to the value provided in the CRP constructor     Can be changed if the canChangeSwapFee permission is enabled     NB:     Code is duplicated in the overloaded createPool! If you change one, change the other!     Unfortunately I cannot call this.createPool(initialSupply) from the overloaded one,     because msg.sender will be different (contract address vs external account), and the     token transfers would fail. Overloading is tricky with external functions.",
        "params": {
          "initialSupply": "starting token balance"
        }
      },
      "createPool(uint256,uint256,uint256)": {
        "details": "Initialize the swap fee to the value provided in the CRP constructor     Can be changed if the canChangeSwapFee permission is enabled     Time parameters will be fixed at these values     *      If this contract doesn't have canChangeWeights permission - or you want to use the default     values, the block time arguments     are not needed, and you can just call the single-argument createPool()     *      Code is duplicated in the overloaded createPool! If you change one, change the other!     Unfortunately I cannot call this.createPool(initialSupply) from the overloaded one,     because msg.sender will be different (contract address vs external account), and the     token transfers would fail",
        "params": {
          "addTokenTimeLockInBlocks": "- Enforce a mandatory wait time between updates                                  This is also the wait time between committing and applying a new token",
          "initialSupply": "starting token balance",
          "minimumWeightChangeBlockPeriod": "- Enforce a minimum time between the start and end blocks"
        }
      },
      "decimals()": {
        "details": "Returns the number of decimals used to get its user representation. For example, if `decimals` equals `2`, a balance of `505` tokens should be displayed to a user as `5,05` (`505 / 10 ** 2`).     * Tokens usually opt for a value of 18, imitating the relationship between Ether and Wei. This is the value {ERC20} uses, unless {_setupDecimals} is called.     * NOTE: This information is only used for _display_ purposes: it in no way affects any of the arithmetic of the contract, including {IERC20-balanceOf} and {IERC20-transfer}."
      },
      "decreaseApproval(address,uint256)": {
        "details": "emits an Approval eventIf you try to decrease it below the current limit, it's just set to zero (not an error)",
        "params": {
          "amount": "- number of tokens being approved",
          "spender": "- entity the owner (sender) is approving to spend his tokens"
        },
        "returns": {
          "_0": "bool - result of the approval (will always be true if it doesn't revert)"
        }
      },
      "exitPool(uint256,uint256[])": {
        "details": "Emits a LogExit event for each token     bPool is a contract interface; function calls on it are external",
        "params": {
          "minAmountsOut": "- minimum amount of asset tokens to receive",
          "poolAmountIn": "- amount of pool tokens to redeem"
        }
      },
      "exitswapExternAmountOut(address,uint256,uint256)": {
        "details": "Emits a LogExit event for the token",
        "params": {
          "maxPoolAmountIn": "- maximum pool tokens to be redeemed",
          "tokenAmountOut": "- amount of underlying asset tokens to receive",
          "tokenOut": "- which token the caller wants to receive"
        },
        "returns": {
          "poolAmountIn": "- amount of pool tokens redeemed"
        }
      },
      "exitswapPoolAmountIn(address,uint256,uint256)": {
        "details": "Emits a LogExit event for the token",
        "params": {
          "minAmountOut": "- minimum asset tokens to receive",
          "poolAmountIn": "- amount of pool tokens to redeem",
          "tokenOut": "- which token the caller wants to receive"
        },
        "returns": {
          "tokenAmountOut": "- amount of asset tokens returned"
        }
      },
      "getBalancerSafeMathVersion()": {
        "details": "Convenience function to get the address of the BalancerSafeMath library (so clients can check version)",
        "returns": {
          "_0": "address of the BalancerSafeMath library"
        }
      },
      "getController()": {
        "details": "external for gas optimization",
        "returns": {
          "_0": "address - of the owner (AKA controller)"
        }
      },
      "getDenormalizedWeight(address)": {
        "details": "viewlock to prevent calling if it's being updated",
        "returns": {
          "_0": "token weight"
        }
      },
      "getRightsManagerVersion()": {
        "details": "Convenience function to get the address of the RightsManager library (so clients can check version)",
        "returns": {
          "_0": "address of the RightsManager library"
        }
      },
      "getSmartPoolManagerVersion()": {
        "details": "Convenience function to get the address of the SmartPoolManager library (so clients can check version)",
        "returns": {
          "_0": "address of the SmartPoolManager library"
        }
      },
      "hasPermission(uint8)": {
        "details": "value of the enum is just the 0-based index in the enumeration     For instance canPauseSwapping is 0; canChangeWeights is 2",
        "returns": {
          "_0": "token boolean true if we have the given permission"
        }
      },
      "increaseApproval(address,uint256)": {
        "details": "emits an Approval event",
        "params": {
          "amount": "- number of tokens being approved",
          "spender": "- entity the owner (sender) is approving to spend his tokens"
        },
        "returns": {
          "_0": "bool - result of the approval (will always be true if it doesn't revert)"
        }
      },
      "isPublicSwap()": {
        "details": "nonReentrantView, because setPublicSwap is nonReentrant     bPool is a contract interface; function calls on it are external",
        "returns": {
          "_0": "Current value of isPublicSwap"
        }
      },
      "joinPool(uint256,uint256[])": {
        "details": "Emits a LogJoin event (for each token)     bPool is a contract interface; function calls on it are external",
        "params": {
          "maxAmountsIn": "- Max amount of asset tokens to spend",
          "poolAmountOut": "- number of pool tokens to receive"
        }
      },
      "joinswapExternAmountIn(address,uint256,uint256)": {
        "details": "emits a LogJoin event",
        "params": {
          "minPoolAmountOut": "- minimum of pool tokens to receive",
          "tokenAmountIn": "- amount of deposit",
          "tokenIn": "- which token we're transferring in"
        },
        "returns": {
          "poolAmountOut": "- amount of pool tokens minted and transferred"
        }
      },
      "joinswapPoolAmountOut(address,uint256,uint256)": {
        "details": "emits a LogJoin event",
        "params": {
          "maxAmountIn": "- Maximum asset tokens that can be pulled to pay for the pool tokens",
          "poolAmountOut": "- amount of pool tokens to be received",
          "tokenIn": "- which token we're transferring in (system calculates amount required)"
        },
        "returns": {
          "tokenAmountIn": "- amount of asset tokens transferred in to purchase the pool tokens"
        }
      },
      "name()": {
        "details": "Returns the name of the token."
      },
      "pokeWeights()": {
        "details": "Still works if we poke after the end of the period; also works if the weights don't change     Resets if we are poking beyond the end, so that we can do it again"
      },
      "removeToken(address)": {
        "details": "bPool is a contract interface; function calls on it are external",
        "params": {
          "token": "- token to remove"
        }
      },
      "removeWhitelistedLiquidityProvider(address)": {
        "params": {
          "provider": "- address of the liquidity provider"
        }
      },
      "setController(address)": {
        "details": "external for gas optimization",
        "params": {
          "newOwner": "- address of new owner"
        }
      },
      "setPublicSwap(bool)": {
        "details": "If this smart pool has canPauseSwapping enabled, we can turn publicSwap off if it's already on     Note that if they turn swapping off - but then finalize the pool - finalizing will turn the     swapping back on. They're not supposed to finalize the underlying pool... would defeat the     smart pool functions. (Only the owner can finalize the pool - which is this contract -     so there is no risk from outside.)     *      bPool is a contract interface; function calls on it are external",
        "params": {
          "publicSwap": "new value of the swap"
        }
      },
      "setSwapFee(uint256)": {
        "details": "Keep the local version and core in sync (see below)     bPool is a contract interface; function calls on it are external",
        "params": {
          "swapFee": "in Wei"
        }
      },
      "symbol()": {
        "details": "Returns the symbol of the token, usually a shorter version of the name."
      },
      "totalSupply()": {
        "details": "declared external for gas optimization",
        "returns": {
          "_0": "uint - total number of tokens in existence"
        }
      },
      "transfer(address,uint256)": {
        "details": "_move emits a Transfer event if successful",
        "params": {
          "amount": "- number of tokens being transferred",
          "recipient": "- entity receiving the tokens"
        },
        "returns": {
          "_0": "bool - result of the transfer (will always be true if it doesn't revert)"
        }
      },
      "transferFrom(address,address,uint256)": {
        "details": "_move emits a Transfer event if successful; may also emit an Approval event",
        "params": {
          "amount": "- number of tokens being transferred",
          "recipient": "- recipient of the tokens",
          "sender": "- entity sending the tokens (must be caller or allowed to spend on behalf of caller)"
        },
        "returns": {
          "_0": "bool - result of the transfer (will always be true if it doesn't revert)"
        }
      },
      "updateWeight(address,uint256)": {
        "details": "Notice Balance is not an input (like with rebind on BPool) since we will require prices not to change     This is achieved by forcing balances to change proportionally to weights, so that prices don't change     If prices could be changed, this would allow the controller to drain the pool by arbing price changes",
        "params": {
          "newWeight": "- new weight of the token",
          "token": "- token to be reweighted"
        }
      },
      "updateWeightsGradually(uint256[],uint256,uint256)": {
        "details": "Must call pokeWeights at least once past the end for it to do the final update     and enable calling this again.     It is possible to call updateWeightsGradually during an update in some use cases     For instance, setting newWeights to currentWeights to stop the update where it is",
        "params": {
          "endBlock": "- when weights will be at their final values",
          "newWeights": "- final weights we want to get to",
          "startBlock": "- when weights should start to change"
        }
      },
      "whitelistLiquidityProvider(address)": {
        "params": {
          "provider": "- address of the liquidity provider"
        }
      }
    },
    "title": "Smart Pool with customizable features"
  },
  "userdoc": {
    "methods": {
      "allowance(address,address)": {
        "notice": "Getter for allowance: amount spender will be allowed to spend on behalf of owner"
      },
      "applyAddToken()": {
        "notice": "Add the token previously committed (in commitAddToken) to the pool"
      },
      "approve(address,uint256)": {
        "notice": "Approve owner (sender) to spend a certain amount"
      },
      "balanceOf(address)": {
        "notice": "Getter for current account balance"
      },
      "canProvideLiquidity(address)": {
        "notice": "Check if an address is a liquidity provider"
      },
      "commitAddToken(address,uint256,uint256)": {
        "notice": "Schedule (commit) a token to be added; must call applyAddToken after a fixed        number of blocks to actually add the token"
      },
      "constructor": "Construct a new Configurable Rights Pool (wrapper around BPool)",
      "createPool(uint256)": {
        "notice": "Create a new Smart Pool"
      },
      "createPool(uint256,uint256,uint256)": {
        "notice": "Create a new Smart Pool - and set the block period time parameters"
      },
      "decreaseApproval(address,uint256)": {
        "notice": "Decrease the amount the spender is allowed to spend on behalf of the owner (sender)"
      },
      "exitPool(uint256,uint256[])": {
        "notice": "Exit a pool - redeem pool tokens for underlying assets"
      },
      "exitswapExternAmountOut(address,uint256,uint256)": {
        "notice": "Exit a pool - redeem pool tokens for a specific amount of underlying assets        Asset must be present in the pool"
      },
      "exitswapPoolAmountIn(address,uint256,uint256)": {
        "notice": "Exit a pool - redeem a specific number of pool tokens for an underlying asset        Asset must be present in the pool, and will incur an EXIT_FEE (if set to non-zero)"
      },
      "getBalancerSafeMathVersion()": {
        "notice": "Getter for the BalancerSafeMath contract"
      },
      "getController()": {
        "notice": "Returns the address of the current owner"
      },
      "getDenormalizedWeight(address)": {
        "notice": "Get the denormalized weight of a token"
      },
      "getRightsManagerVersion()": {
        "notice": "Getter for the RightsManager contract"
      },
      "getSmartPoolManagerVersion()": {
        "notice": "Getter for the SmartPoolManager contract"
      },
      "hasPermission(uint8)": {
        "notice": "Getter for specific permissions"
      },
      "increaseApproval(address,uint256)": {
        "notice": "Increase the amount the spender is allowed to spend on behalf of the owner (sender)"
      },
      "isPublicSwap()": {
        "notice": "Getter for the publicSwap field on the underlying pool"
      },
      "joinPool(uint256,uint256[])": {
        "notice": "Join a pool"
      },
      "joinswapExternAmountIn(address,uint256,uint256)": {
        "notice": "Join by swapping a fixed amount of an external token in (must be present in the pool)        System calculates the pool token amount"
      },
      "joinswapPoolAmountOut(address,uint256,uint256)": {
        "notice": "Join by swapping an external token in (must be present in the pool)        To receive an exact amount of pool tokens out. System calculates the deposit amount"
      },
      "pokeWeights()": {
        "notice": "External function called to make the contract update weights according to plan"
      },
      "removeToken(address)": {
        "notice": "Remove a token from the pool"
      },
      "removeWhitelistedLiquidityProvider(address)": {
        "notice": "Remove from the whitelist of liquidity providers (if enabled)"
      },
      "setController(address)": {
        "notice": "Transfers ownership of the contract to a new account (`newOwner`).        Can only be called by the current owner"
      },
      "setPublicSwap(bool)": {
        "notice": "Set the public swap flag on the underlying pool"
      },
      "setSwapFee(uint256)": {
        "notice": "Set the swap fee on the underlying pool"
      },
      "totalSupply()": {
        "notice": "Getter for the total supply"
      },
      "transfer(address,uint256)": {
        "notice": "Transfer the given amount from sender (caller) to recipient"
      },
      "transferFrom(address,address,uint256)": {
        "notice": "Transfer the given amount from sender to recipient"
      },
      "updateWeight(address,uint256)": {
        "notice": "Update the weight of an existing token"
      },
      "updateWeightsGradually(uint256[],uint256,uint256)": {
        "notice": "Update weights in a predetermined way, between startBlock and endBlock,        through external calls to pokeWeights"
      },
      "whitelistLiquidityProvider(address)": {
        "notice": "Add to the whitelist of liquidity providers (if enabled)"
      }
    },
    "notice": "PCToken is the \"Balancer Smart Pool\" token (transferred upon finalization)"
  }
}