{
  "contractName": "CRPFactory",
  "abi": [
    {
      "anonymous": false,
      "inputs": [
        {
          "indexed": true,
          "internalType": "address",
          "name": "caller",
          "type": "address"
        },
        {
          "indexed": true,
          "internalType": "address",
          "name": "pool",
          "type": "address"
        }
      ],
      "name": "LogNewCrp",
      "type": "event"
    },
    {
      "inputs": [
        {
          "internalType": "address",
          "name": "addr",
          "type": "address"
        }
      ],
      "name": "isCrp",
      "outputs": [
        {
          "internalType": "bool",
          "name": "",
          "type": "bool"
        }
      ],
      "stateMutability": "view",
      "type": "function"
    },
    {
      "inputs": [
        {
          "internalType": "address",
          "name": "factoryAddress",
          "type": "address"
        },
        {
          "internalType": "string",
          "name": "symbol",
          "type": "string"
        },
        {
          "internalType": "address[]",
          "name": "tokens",
          "type": "address[]"
        },
        {
          "internalType": "uint256[]",
          "name": "startBalances",
          "type": "uint256[]"
        },
        {
          "internalType": "uint256[]",
          "name": "startWeights",
          "type": "uint256[]"
        },
        {
          "internalType": "uint256",
          "name": "swapFee",
          "type": "uint256"
        },
        {
          "components": [
            {
              "internalType": "bool",
              "name": "canPauseSwapping",
              "type": "bool"
            },
            {
              "internalType": "bool",
              "name": "canChangeSwapFee",
              "type": "bool"
            },
            {
              "internalType": "bool",
              "name": "canChangeWeights",
              "type": "bool"
            },
            {
              "internalType": "bool",
              "name": "canAddRemoveTokens",
              "type": "bool"
            },
            {
              "internalType": "bool",
              "name": "canWhitelistLPs",
              "type": "bool"
            }
          ],
          "internalType": "struct RightsManager.Rights",
          "name": "rights",
          "type": "tuple"
        }
      ],
      "name": "newCrp",
      "outputs": [
        {
          "internalType": "contract ConfigurableRightsPool",
          "name": "",
          "type": "address"
        }
      ],
      "stateMutability": "nonpayable",
      "type": "function"
    }
  ],
  "bytecode": "0x608060405234801561001057600080fd5b50615884806100206000396000f3fe60806040523480156200001157600080fd5b50600436106200003a5760003560e01c80631e91db55146200003f578063dc19e842146200006e575b600080fd5b620000566200005036600462000330565b62000094565b604051620000659190620004da565b60405180910390f35b620000856200007f3660046200030b565b6200021a565b604051620000659190620005c7565b60006002881015620000c35760405162461bcd60e51b8152600401620000ba9062000640565b60405180910390fd5b858814620000e55760405162461bcd60e51b8152600401620000ba9062000609565b838814620001075760405162461bcd60e51b8152600401620000ba90620005d2565b60008c8c8c8c8c8c8c8c8c8c8c604051620001229062000238565b620001389b9a99989796959493929190620004ee565b604051809103906000f08015801562000155573d6000803e3d6000fd5b506001600160a01b03811660008181526020819052604090819020805460ff19166001179055516392eefe9b60e01b8152919250906392eefe9b90620001a0903390600401620004da565b600060405180830381600087803b158015620001bb57600080fd5b505af1158015620001d0573d6000803e3d6000fd5b50506040516001600160a01b03841692503391507f8aaa45dbe91f274e1c80489691f3d62dbf595d587fcc6a989fa27696e7c2a23290600090a39c9b505050505050505050505050565b6001600160a01b031660009081526020819052604090205460ff1690565b6151d0806200067f83390190565b80356001600160a01b03811681146200025e57600080fd5b92915050565b60008083601f84011262000276578182fd5b50813567ffffffffffffffff8111156200028e578182fd5b6020830191508360208083028501011115620002a957600080fd5b9250929050565b60008083601f840112620002c2578182fd5b50813567ffffffffffffffff811115620002da578182fd5b602083019150836020828501011115620002a957600080fd5b600060a0828403121562000305578081fd5b50919050565b6000602082840312156200031d578081fd5b62000329838362000246565b9392505050565b60008060008060008060008060008060006101608c8e03121562000352578687fd5b6200035e8d8d62000246565b9a5067ffffffffffffffff8060208e013511156200037a578788fd5b6200038c8e60208f01358f01620002b0565b909b50995060408d0135811015620003a2578788fd5b620003b48e60408f01358f0162000264565b909950975060608d0135811015620003ca578687fd5b620003dc8e60608f01358f0162000264565b909750955060808d0135811015620003f2578485fd5b50620004058d60808e01358e0162000264565b909450925060a08c01359150620004208d60c08e01620002f3565b90509295989b509295989b9093969950565b81835260006001600160fb1b038311156200044b578081fd5b6020830280836020870137939093016020019283525090919050565b803562000474816200066c565b15158252602081013562000488816200066c565b1515602083015260408101356200049f816200066c565b151560408301526060810135620004b6816200066c565b151560608301526080810135620004cd816200066c565b8015156080840152505050565b6001600160a01b0391909116815260200190565b6001600160a01b038c8116825261016060208084018290529083018c9052600091610180918d8f84870137848e018301849052601f8e01601f19168501858103840160408701529283018c90526101a0909201918c845b8d8110156200057057828201846200055e828562000246565b16865294830194915060010162000545565b5050505082810360608401526200058981898b62000432565b83810360808501526200059e81888a62000432565b925050508360a0830152620005b760c083018462000467565b9c9b505050505050505050505050565b901515815260200190565b6020808252601a908201527f4552525f53544152545f574549474854535f4d49534d41544348000000000000604082015260600190565b6020808252601b908201527f4552525f53544152545f42414c414e4345535f4d49534d415443480000000000604082015260600190565b6020808252601290820152714552525f544f4f5f4645575f544f4b454e5360701b604082015260600190565b80151581146200067b57600080fd5b5056fe60806040523480156200001157600080fd5b50604051620051d0380380620051d08339810160408190526200003491620005bb565b855186906200004b90600390602084019062000225565b5050600480546001600160a01b031916331790556001600555845160021115620000925760405162461bcd60e51b8152600401620000899062000710565b60405180910390fd5b8451845114620000b65760405162461bcd60e51b81526004016200008990620006d9565b8451835114620000da5760405162461bcd60e51b81526004016200008990620006a2565b64e8d4a51000821015620001025760405162461bcd60e51b815260040162000089906200073c565b67016345785d8a00008211156200012d5760405162461bcd60e51b815260040162000089906200073c565b600680546001600160a01b0319166001600160a01b03891617905584516200015d90600e906020880190620002aa565b5083516200017390600f90602087019062000310565b5082516200018990601290602086019062000310565b50600d91909155600a6014819055601555600060105580516008805460208401516040850151606086015160809096015115156401000000000260ff60201b1996151563010000000263ff00000019921515620100000262ff0000199415156101000261ff001998151560ff19909716969096179790971694909417929092169490941793909316179290921617905550620007ba9350505050565b828054600181600116156101000203166002900490600052602060002090601f016020900481019282601f106200026857805160ff191683800117855562000298565b8280016001018555821562000298579182015b82811115620002985782518255916020019190600101906200027b565b50620002a69291506200034d565b5090565b82805482825590600052602060002090810192821562000302579160200282015b828111156200030257825182546001600160a01b0319166001600160a01b03909116178255602090920191600190910190620002cb565b50620002a69291506200036d565b828054828255906000526020600020908101928215620002985791602002820182811115620002985782518255916020019190600101906200027b565b6200036a91905b80821115620002a6576000815560010162000354565b90565b6200036a91905b80821115620002a65780546001600160a01b031916815560010162000374565b80516001600160a01b0381168114620003ac57600080fd5b92915050565b600082601f830112620003c3578081fd5b8151620003da620003d4826200079a565b62000773565b818152915060208083019084810181840286018201871015620003fc57600080fd5b60005b84811015620004275762000414888362000394565b84529282019290820190600101620003ff565b505050505092915050565b600082601f83011262000443578081fd5b815162000454620003d4826200079a565b8181529150602080830190848101818402860182018710156200047657600080fd5b60005b84811015620004275781518452928201929082019060010162000479565b80518015158114620003ac57600080fd5b600082601f830112620004b9578081fd5b81516001600160401b03811115620004cf578182fd5b6020620004e5601f8301601f1916820162000773565b92508183528481838601011115620004fc57600080fd5b60005b828110156200051c578481018201518482018301528101620004ff565b828111156200052e5760008284860101525b50505092915050565b600060a0828403121562000549578081fd5b6200055560a062000773565b905062000563838362000497565b815262000574836020840162000497565b602082015262000588836040840162000497565b60408201526200059c836060840162000497565b6060820152620005b0836080840162000497565b608082015292915050565b6000806000806000806000610160888a031215620005d7578283fd5b620005e3898962000394565b60208901519097506001600160401b038082111562000600578485fd5b6200060e8b838c01620004a8565b975060408a015191508082111562000624578485fd5b620006328b838c01620003b2565b965060608a015191508082111562000648578485fd5b620006568b838c0162000432565b955060808a01519150808211156200066c578485fd5b506200067b8a828b0162000432565b93505060a08801519150620006948960c08a0162000537565b905092959891949750929550565b6020808252601a908201527f4552525f53544152545f574549474854535f4d49534d41544348000000000000604082015260600190565b6020808252601b908201527f4552525f53544152545f42414c414e4345535f4d49534d415443480000000000604082015260600190565b6020808252601290820152714552525f544f4f5f4645575f544f4b454e5360701b604082015260600190565b60208082526014908201527f4552525f494e56414c49445f535741505f464545000000000000000000000000604082015260600190565b6040518181016001600160401b03811182821017156200079257600080fd5b604052919050565b60006001600160401b03821115620007b0578081fd5b5060209081020190565b614a0680620007ca6000396000f3fe608060405234801561001057600080fd5b50600436106102a05760003560e01c806370a0823111610167578063a9059cbb116100ce578063d73dd62311610087578063d73dd62314610575578063dd62ed3e14610588578063e211b8751461059b578063e2762d4b146105a3578063f226b52814610511578063fde924f7146105b6576102a0565b8063a9059cbb14610519578063b02f0b731461052c578063b64ef17b1461053f578063c275d81b14610547578063c3391d271461054f578063c83a1c2d14610562576102a0565b806395d89b411161012057806395d89b41146104de5780639776e94b146104e65780639a82417e146104f95780639d829c2b14610501578063a3f4df7e14610509578063a835a0de14610511576102a0565b806370a082311461047757806374983a0d1461048a578063806c6f87146104925780638259e6a0146104a557806392eefe9b146104b8578063948d8ce6146104cb576102a0565b806334e199071161020b5780634f69c0d4116101c45780634f69c0d41461040557806355c32a23146104185780635db342771461042b5780635fa7b5841461043e57806366188463146104515780636d06dfa014610464576102a0565b806334e199071461039357806337c6f4d9146103a657806346ab38f1146103b957806349b59552146103cc5780634ba57882146103df5780634c20d209146103f2576102a0565b8063220eb7601161025d578063220eb7601461033557806323b872dd14610348578063246bc19b1461035b5780632e0f26251461036e5780633018205f14610383578063313ce5671461038b576102a0565b806302c96748146102a557806306fdde03146102ce578063095dcccc146102e3578063095ea7b3146102f85780630a1659401461031857806318160ddd1461032d575b600080fd5b6102b86102b3366004613d56565b6105be565b6040516102c5919061492f565b60405180910390f35b6102d6610784565b6040516102c59190614347565b6102f66102f1366004613d2b565b6107b2565b005b61030b610306366004613d2b565b6107df565b6040516102c59190614161565b610320610837565b6040516102c591906140ef565b6102b8610846565b6102f6610343366004613f23565b61084c565b61030b610356366004613ceb565b610877565b6102f6610369366004613e26565b6109ce565b610376610c67565b6040516102c59190614938565b610320610c6c565b610376610c7b565b6102f66103a1366004613f23565b610c80565b61030b6103b4366004613f04565b610dca565b6102b86103c7366004613d56565b610e5f565b6102f66103da366004613eb0565b61100d565b6102f66103ed366004613f23565b611113565b6102f6610400366004613d56565b61113b565b6102f6610413366004613f53565b6112bd565b6102f6610426366004613d2b565b61156c565b6102b8610439366004613d56565b611595565b6102f661044c366004613c97565b611767565b61030b61045f366004613d2b565b611993565b6102b8610472366004613d56565b611a5b565b6102b8610485366004613c97565b611c21565b610320611c3c565b61030b6104a0366004613c97565b611c54565b6102f66104b3366004613f23565b611c9e565b6102f66104c6366004613c97565b6121c7565b6102b86104d9366004613c97565b612273565b6102d6612340565b6102f66104f4366004613d2b565b6123d6565b61032061251c565b610320612534565b6102d661254c565b6102b861257b565b61030b610527366004613d2b565b612580565b6102f661053a366004613f53565b6125bc565b61032061283a565b6102f6612849565b6102f661055d366004614053565b6129a8565b6102f6610570366004613c97565b612f3f565b61030b610583366004613d2b565b613033565b6102b8610596366004613cb3565b6130a7565b6102f66130d2565b6102f66105b1366004613c97565b61321c565b61030b613344565b60405160009033906001600160e01b0319833516906105e0908490369061416c565b60405180910390a2600260055414156106145760405162461bcd60e51b815260040161060b90614675565b60405180910390fd5b60026005556007546001600160a01b03166106415760405162461bcd60e51b815260040161060b906145bf565b600754604051631ce1a8c960e21b8152600091829173__SmartPoolManager______________________91637386a324916106929130916001600160a01b03909116908b908b908b906004016141e8565b604080518083038186803b1580156106a957600080fd5b505af41580156106bd573d6000803e3d6000fd5b505050506040513d601f19601f820116820180604052508101906106e19190613fe2565b9150915080925060006106f4848461344e565b9050866001600160a01b0316336001600160a01b03167fc62fc35ac75e3bff532648e2859a3e1694002cfa357614ae8e034df7f83db5e988604051610739919061492f565b60405180910390a361074b338561158b565b6107548161086b565b60065461076a906001600160a01b0316846107d1565b610775873388613487565b50505060016005559392505050565b60408051808201909152601381527210985b185b98d95c8814db585c9d08141bdbdb606a1b60208201525b90565b3330146107d15760405162461bcd60e51b815260040161060b9061439a565b6107db82826136d0565b5050565b3360008181526002602090815260408083206001600160a01b038716808552925280832085905551919290916000805160206149b18339815191529061082690869061492f565b60405180910390a350600192915050565b6006546001600160a01b031681565b60005490565b33301461086b5760405162461bcd60e51b815260040161060b9061439a565b610874816136db565b50565b60006001600160a01b03831661089f5760405162461bcd60e51b815260040161060b906144f7565b336001600160a01b03851614806108d957506001600160a01b03841660009081526002602090815260408083203384529091529020548211155b6108f55760405162461bcd60e51b815260040161060b9061471f565b610900848484613784565b336001600160a01b0385161480159061093e57506001600160a01b038416600090815260026020908152604080832033845290915290205460001914155b156109c4576001600160a01b0384166000908152600260209081526040808320338452909152902054610971908361344e565b6001600160a01b0385811660009081526002602090815260408083203380855292529182902084905590519186169290916000805160206149b1833981519152916109bb9161492f565b60405180910390a35b5060019392505050565b336001600160a01b03166000356001600160e01b0319166001600160e01b031916600036604051610a0092919061416c565b60405180910390a260026005541415610a2b5760405162461bcd60e51b815260040161060b90614675565b60026005556004546001600160a01b03163314610a5a5760405162461bcd60e51b815260040161060b9061439a565b6007546001600160a01b0316610a825760405162461bcd60e51b815260040161060b906145bf565b60085462010000900460ff16610aaa5760405162461bcd60e51b815260040161060b90614558565b6007546040805163cc77828d60e01b815290516060926001600160a01b03169163cc77828d916004808301926000929190829003018186803b158015610aef57600080fd5b505afa158015610b03573d6000803e3d6000fd5b505050506040513d6000823e601f3d908101601f19168201604052610b2b9190810190613d8a565b80519091508414610b4e5760405162461bcd60e51b815260040161060b90614469565b600754601454604051630500fe7b60e21b815260009260609273__SmartPoolManager______________________92631403f9ec92610ba7926001600160a01b03909116916009918d918d918d918d91906004016142b5565b60006040518083038186803b158015610bbf57600080fd5b505af4158015610bd3573d6000803e3d6000fd5b505050506040513d6000823e601f3d908101601f19168201604052610bfb9190810190613f9d565b601082905560118690559092509050610c1660138888613b82565b5060005b8351811015610c5857818181518110610c2f57fe5b602002602001015160128281548110610c4457fe5b600091825260209091200155600101610c1a565b50506001600555505050505050565b601281565b6004546001600160a01b031690565b601290565b336001600160a01b03166000356001600160e01b0319166001600160e01b031916600036604051610cb292919061416c565b60405180910390a260026005541415610cdd5760405162461bcd60e51b815260040161060b90614675565b60026005556004546001600160a01b03163314610d0c5760405162461bcd60e51b815260040161060b9061439a565b6007546001600160a01b0316610d345760405162461bcd60e51b815260040161060b906145bf565b600854610100900460ff16610d5b5760405162461bcd60e51b815260040161060b9061485f565b600d8190556007546040516334e1990760e01b81526001600160a01b03909116906334e1990790610d9090849060040161492f565b600060405180830381600087803b158015610daa57600080fd5b505af1158015610dbe573d6000803e3d6000fd5b50506001600555505050565b6040516322c1aa2560e11b815260009073__RightsManager_________________________90634583544a90610e079060089086906004016148cd565b60206040518083038186803b158015610e1f57600080fd5b505af4158015610e33573d6000803e3d6000fd5b505050506040513d601f19601f82011682018060405250810190610e579190613ecc565b90505b919050565b60405160009033906001600160e01b031983351690610e81908490369061416c565b60405180910390a260026005541415610eac5760405162461bcd60e51b815260040161060b90614675565b60026005556007546001600160a01b0316610ed95760405162461bcd60e51b815260040161060b906145bf565b600754604051633461ee9560e11b8152600091829173__SmartPoolManager______________________916368c3dd2a91610f2a9130916001600160a01b03909116908b908b908b906004016141e8565b604080518083038186803b158015610f4157600080fd5b505af4158015610f55573d6000803e3d6000fd5b505050506040513d601f19601f82011682018060405250810190610f799190613fe2565b915091508092506000610f8c868461344e565b9050866001600160a01b0316336001600160a01b03167fc62fc35ac75e3bff532648e2859a3e1694002cfa357614ae8e034df7f83db5e986604051610fd1919061492f565b60405180910390a3610fe3338761158b565b610fec8161086b565b600654611002906001600160a01b0316846107d1565b610775873386613487565b336001600160a01b03166000356001600160e01b0319166001600160e01b03191660003660405161103f92919061416c565b60405180910390a26002600554141561106a5760405162461bcd60e51b815260040161060b90614675565b60026005556004546001600160a01b031633146110995760405162461bcd60e51b815260040161060b9061439a565b6007546001600160a01b03166110c15760405162461bcd60e51b815260040161060b906145bf565b60085460ff166110e35760405162461bcd60e51b815260040161060b906147db565b6007546040516324dacaa960e11b81526001600160a01b03909116906349b5955290610d90908490600401614161565b3330146111325760405162461bcd60e51b815260040161060b9061439a565b6108748161386d565b336001600160a01b03166000356001600160e01b0319166001600160e01b03191660003660405161116d92919061416c565b60405180910390a2600260055414156111985760405162461bcd60e51b815260040161060b90614675565b60026005556004546001600160a01b031633146111c75760405162461bcd60e51b815260040161060b9061439a565b6007546001600160a01b03166111ef5760405162461bcd60e51b815260040161060b906145bf565b6008546301000000900460ff166112185760405162461bcd60e51b815260040161060b906143c6565b601054156112385760405162461bcd60e51b815260040161060b90614896565b6007546040516307f9f55960e21b815273__SmartPoolManager______________________91631fe7d56491611283916001600160a01b031690879087908790600990600401614284565b60006040518083038186803b15801561129b57600080fd5b505af41580156112af573d6000803e3d6000fd5b505060016005555050505050565b336001600160a01b03166000356001600160e01b0319166001600160e01b0319166000366040516112ef92919061416c565b60405180910390a26002600554141561131a5760405162461bcd60e51b815260040161060b90614675565b60026005556007546001600160a01b03166113475760405162461bcd60e51b815260040161060b906145bf565b600854640100000000900460ff16158061137057503360009081526016602052604090205460ff165b61138c5760405162461bcd60e51b815260040161060b906144c9565b6007546040516289af5d60e51b815260609173__SmartPoolManager______________________91631135eba0916113d89130916001600160a01b03169089908990899060040161421c565b60006040518083038186803b1580156113f057600080fd5b505af4158015611404573d6000803e3d6000fd5b505050506040513d6000823e601f3d908101601f1916820160405261142c9190810190613e75565b90506060600760009054906101000a90046001600160a01b03166001600160a01b031663cc77828d6040518163ffffffff1660e01b815260040160006040518083038186803b15801561147e57600080fd5b505afa158015611492573d6000803e3d6000fd5b505050506040513d6000823e601f3d908101601f191682016040526114ba9190810190613d8a565b905060005b81518110156115585760008282815181106114d657fe5b6020026020010151905060008483815181106114ee57fe5b60200260200101519050816001600160a01b0316336001600160a01b03167fea39e3b35c5cd8937999ed5f7fbab30acd562a931fc4a887fed2a47c3074aa728360405161153b919061492f565b60405180910390a361154e8233836138dd565b50506001016114bf565b5061156285611132565b610dbe33866107d1565b33301461158b5760405162461bcd60e51b815260040161060b9061439a565b6107db8282613b26565b60405160009033906001600160e01b0319833516906115b7908490369061416c565b60405180910390a2600260055414156115e25760405162461bcd60e51b815260040161060b90614675565b60026005556007546001600160a01b031661160f5760405162461bcd60e51b815260040161060b906145bf565b600854640100000000900460ff16158061163857503360009081526016602052604090205460ff165b6116545760405162461bcd60e51b815260040161060b906144c9565b600754604051636f50bd5d60e01b815273__SmartPoolManager______________________91636f50bd5d916116a09130916001600160a01b03909116908990899089906004016141e8565b60206040518083038186803b1580156116b857600080fd5b505af41580156116cc573d6000803e3d6000fd5b505050506040513d601f19601f820116820180604052508101906116f09190613f3b565b9050836001600160a01b0316336001600160a01b03167fea39e3b35c5cd8937999ed5f7fbab30acd562a931fc4a887fed2a47c3074aa7285604051611735919061492f565b60405180910390a361174681611132565b61175033826107d1565b61175b8433856138dd565b60016005559392505050565b336001600160a01b03166000356001600160e01b0319166001600160e01b03191660003660405161179992919061416c565b60405180910390a2600260055414156117c45760405162461bcd60e51b815260040161060b90614675565b60026005556004546001600160a01b031633146117f35760405162461bcd60e51b815260040161060b9061439a565b6007546001600160a01b031661181b5760405162461bcd60e51b815260040161060b906145bf565b6008546301000000900460ff166118445760405162461bcd60e51b815260040161060b906143c6565b6007546040805163cc77828d60e01b815290516060926001600160a01b03169163cc77828d916004808301926000929190829003018186803b15801561188957600080fd5b505afa15801561189d573d6000803e3d6000fd5b505050506040513d6000823e601f3d908101601f191682016040526118c59190810190613d8a565b905060028151116118e85760405162461bcd60e51b815260040161060b9061474f565b600954600160a01b900460ff16156119125760405162461bcd60e51b815260040161060b9061477b565b60075460405163cfc3120960e01b815273__SmartPoolManager______________________9163cfc312099161195a9130916001600160a01b0390911690879060040161419b565b60006040518083038186803b15801561197257600080fd5b505af4158015611986573d6000803e3d6000fd5b5050600160055550505050565b3360009081526002602090815260408083206001600160a01b03861684529091528120548083106119e7573360009081526002602090815260408083206001600160a01b0388168452909152812055611a16565b6119f1818461344e565b3360009081526002602090815260408083206001600160a01b03891684529091529020555b3360008181526002602090815260408083206001600160a01b0389168085529252918290205491519092916000805160206149b1833981519152916109bb919061492f565b60405160009033906001600160e01b031983351690611a7d908490369061416c565b60405180910390a260026005541415611aa85760405162461bcd60e51b815260040161060b90614675565b60026005556007546001600160a01b0316611ad55760405162461bcd60e51b815260040161060b906145bf565b600854640100000000900460ff161580611afe57503360009081526016602052604090205460ff165b611b1a5760405162461bcd60e51b815260040161060b906144c9565b60075460405163c8ebc9ab60e01b815273__SmartPoolManager______________________9163c8ebc9ab91611b669130916001600160a01b03909116908990899089906004016141e8565b60206040518083038186803b158015611b7e57600080fd5b505af4158015611b92573d6000803e3d6000fd5b505050506040513d601f19601f82011682018060405250810190611bb69190613f3b565b9050836001600160a01b0316336001600160a01b03167fea39e3b35c5cd8937999ed5f7fbab30acd562a931fc4a887fed2a47c3074aa7283604051611bfb919061492f565b60405180910390a3611c0c83611132565b611c1633846107d1565b61175b8433836138dd565b6001600160a01b031660009081526001602052604090205490565b73__RightsManager_________________________90565b600854600090640100000000900460ff1615611c8c57506001600160a01b03811660009081526016602052604090205460ff16610e5a565b506001600160a01b0381161515610e5a565b336001600160a01b03166000356001600160e01b0319166001600160e01b031916600036604051611cd092919061416c565b60405180910390a260026005541415611cfb5760405162461bcd60e51b815260040161060b90614675565b60026005556007546001600160a01b031615611d295760405162461bcd60e51b815260040161060b906145e8565b60008111611d495760405162461bcd60e51b815260040161060b906144a0565b600660009054906101000a90046001600160a01b03166001600160a01b031663d556c5dc6040518163ffffffff1660e01b8152600401602060405180830381600087803b158015611d9957600080fd5b505af1158015611dad573d6000803e3d6000fd5b505050506040513d601f19601f82011682018060405250810190611dd19190613ee8565b600780546001600160a01b0319166001600160a01b0392831617908190556040805163632c068960e11b81529051919092169163c6580d12916004808301926020929190829003018186803b158015611e2957600080fd5b505afa158015611e3d573d6000803e3d6000fd5b505050506040513d601f19601f82011682018060405250810190611e619190613f3b565b15611e7e5760405162461bcd60e51b815260040161060b906146f1565b600754600d546040516334e1990760e01b81526001600160a01b03909216916334e1990791611eaf9160040161492f565b600060405180830381600087803b158015611ec957600080fd5b505af1158015611edd573d6000803e3d6000fd5b506000925050505b600e5481101561210d576000600e8281548110611efe57fe5b6000918252602082200154600f80546001600160a01b0390921693509084908110611f2557fe5b90600052602060002001549050600060128481548110611f4157fe5b60009182526020822001546040516323b872dd60e01b81529092506001600160a01b038516906323b872dd90611f7f90339030908890600401614103565b602060405180830381600087803b158015611f9957600080fd5b505af1158015611fad573d6000803e3d6000fd5b505050506040513d601f19601f82011682018060405250810190611fd19190613ecc565b905080611ff05760405162461bcd60e51b815260040161060b906147b2565b60075460405163095ea7b360e01b81526001600160a01b038681169263095ea7b392612026929091169060001990600401614127565b602060405180830381600087803b15801561204057600080fd5b505af1158015612054573d6000803e3d6000fd5b505050506040513d601f19601f820116820180604052508101906120789190613ecc565b9050806120975760405162461bcd60e51b815260040161060b906147b2565b600754604051631c9c3ca760e31b81526001600160a01b039091169063e4e1e538906120cb90879087908790600401614140565b600060405180830381600087803b1580156120e557600080fd5b505af11580156120f9573d6000803e3d6000fd5b505060019096019550611ee5945050505050565b505b600e541561214957600e80548061212257fe5b600082815260209020810160001990810180546001600160a01b031916905501905561210f565b6007546040516324dacaa960e11b81526001600160a01b03909116906349b595529061217a90600190600401614161565b600060405180830381600087803b15801561219457600080fd5b505af11580156121a8573d6000803e3d6000fd5b505050506121b581611132565b6121bf33826107d1565b506001600555565b6004546001600160a01b031633146121f15760405162461bcd60e51b815260040161060b9061439a565b6001600160a01b0381166122175760405162461bcd60e51b815260040161060b906144f7565b6004546040516001600160a01b038084169216907f8be0079c531659141344cd1fd0a4f28419497f9722a3daafe3b4186f6b6457e090600090a3600480546001600160a01b0319166001600160a01b0392909216919091179055565b6000600260055414156122985760405162461bcd60e51b815260040161060b9061469a565b6007546001600160a01b03166122c05760405162461bcd60e51b815260040161060b906145bf565b600754604051634a46c67360e11b81526001600160a01b039091169063948d8ce6906122f09085906004016140ef565b60206040518083038186803b15801561230857600080fd5b505afa15801561231c573d6000803e3d6000fd5b505050506040513d601f19601f82011682018060405250810190610e579190613f3b565b60038054604080516020601f60026000196101006001881615020190951694909404938401819004810282018101909252828152606093909290918301828280156123cc5780601f106123a1576101008083540402835291602001916123cc565b820191906000526020600020905b8154815290600101906020018083116123af57829003601f168201915b5050505050905090565b336001600160a01b03166000356001600160e01b0319166001600160e01b03191660003660405161240892919061416c565b60405180910390a2600260055414156124335760405162461bcd60e51b815260040161060b90614675565b60026005556004546001600160a01b031633146124625760405162461bcd60e51b815260040161060b9061439a565b6007546001600160a01b031661248a5760405162461bcd60e51b815260040161060b906145bf565b60085462010000900460ff166124b25760405162461bcd60e51b815260040161060b90614558565b601054156124d25760405162461bcd60e51b815260040161060b90614896565b60075460405163089d8f8d60e31b815273__SmartPoolManager______________________916344ec7c689161195a9130916001600160a01b0390911690879087906004016141be565b73__BalancerSafeMath______________________90565b73__SmartPoolManager______________________90565b6040518060400160405280601381526020017210985b185b98d95c8814db585c9d08141bdbdb606a1b81525081565b600a81565b60006001600160a01b0383166125a85760405162461bcd60e51b815260040161060b906144f7565b6125b3338484613784565b50600192915050565b336001600160a01b03166000356001600160e01b0319166001600160e01b0319166000366040516125ee92919061416c565b60405180910390a2600260055414156126195760405162461bcd60e51b815260040161060b90614675565b60026005556007546001600160a01b03166126465760405162461bcd60e51b815260040161060b906145bf565b60075460405163747591bb60e11b8152600091829160609173__SmartPoolManager______________________9163e8eb2376916126989130916001600160a01b0316908b908b908b9060040161421c565b60006040518083038186803b1580156126b057600080fd5b505af41580156126c4573d6000803e3d6000fd5b505050506040513d6000823e601f3d908101601f191682016040526126ec9190810190614005565b9250925092506126fc338761158b565b600654612712906001600160a01b0316846107d1565b61271b8261086b565b6007546040805163cc77828d60e01b815290516060926001600160a01b03169163cc77828d916004808301926000929190829003018186803b15801561276057600080fd5b505afa158015612774573d6000803e3d6000fd5b505050506040513d6000823e601f3d908101601f1916820160405261279c9190810190613d8a565b905060005b8151811015610c585760008282815181106127b857fe5b6020026020010151905060008483815181106127d057fe5b60200260200101519050816001600160a01b0316336001600160a01b03167fc62fc35ac75e3bff532648e2859a3e1694002cfa357614ae8e034df7f83db5e98360405161281d919061492f565b60405180910390a3612830823383613487565b50506001016127a1565b6007546001600160a01b031681565b336001600160a01b03166000356001600160e01b0319166001600160e01b03191660003660405161287b92919061416c565b60405180910390a2600260055414156128a65760405162461bcd60e51b815260040161060b90614675565b60026005556004546001600160a01b031633146128d55760405162461bcd60e51b815260040161060b9061439a565b6007546001600160a01b03166128fd5760405162461bcd60e51b815260040161060b906145bf565b6008546301000000900460ff166129265760405162461bcd60e51b815260040161060b906143c6565b600754601554604051632235713560e21b815273__SmartPoolManager______________________926388d5c4d4926129719230926001600160a01b0316919060099060040161425b565b60006040518083038186803b15801561298957600080fd5b505af415801561299d573d6000803e3d6000fd5b505060016005555050565b336001600160a01b03166000356001600160e01b0319166001600160e01b0319166000366040516129da92919061416c565b60405180910390a260026005541415612a055760405162461bcd60e51b815260040161060b90614675565b6002600555600a821015612a2b5760405162461bcd60e51b815260040161060b90614432565b81811115612a4b5760405162461bcd60e51b815260040161060b906143fd565b600a811015612a6c5760405162461bcd60e51b815260040161060b9061463e565b601482905560158190556007546001600160a01b031615612a9f5760405162461bcd60e51b815260040161060b906145e8565b60008311612abf5760405162461bcd60e51b815260040161060b906144a0565b600660009054906101000a90046001600160a01b03166001600160a01b031663d556c5dc6040518163ffffffff1660e01b8152600401602060405180830381600087803b158015612b0f57600080fd5b505af1158015612b23573d6000803e3d6000fd5b505050506040513d601f19601f82011682018060405250810190612b479190613ee8565b600780546001600160a01b0319166001600160a01b0392831617908190556040805163632c068960e11b81529051919092169163c6580d12916004808301926020929190829003018186803b158015612b9f57600080fd5b505afa158015612bb3573d6000803e3d6000fd5b505050506040513d601f19601f82011682018060405250810190612bd79190613f3b565b15612bf45760405162461bcd60e51b815260040161060b906146f1565b600754600d546040516334e1990760e01b81526001600160a01b03909216916334e1990791612c259160040161492f565b600060405180830381600087803b158015612c3f57600080fd5b505af1158015612c53573d6000803e3d6000fd5b506000925050505b600e54811015612e83576000600e8281548110612c7457fe5b6000918252602082200154600f80546001600160a01b0390921693509084908110612c9b57fe5b90600052602060002001549050600060128481548110612cb757fe5b60009182526020822001546040516323b872dd60e01b81529092506001600160a01b038516906323b872dd90612cf590339030908890600401614103565b602060405180830381600087803b158015612d0f57600080fd5b505af1158015612d23573d6000803e3d6000fd5b505050506040513d601f19601f82011682018060405250810190612d479190613ecc565b905080612d665760405162461bcd60e51b815260040161060b906147b2565b60075460405163095ea7b360e01b81526001600160a01b038681169263095ea7b392612d9c929091169060001990600401614127565b602060405180830381600087803b158015612db657600080fd5b505af1158015612dca573d6000803e3d6000fd5b505050506040513d601f19601f82011682018060405250810190612dee9190613ecc565b905080612e0d5760405162461bcd60e51b815260040161060b906147b2565b600754604051631c9c3ca760e31b81526001600160a01b039091169063e4e1e53890612e4190879087908790600401614140565b600060405180830381600087803b158015612e5b57600080fd5b505af1158015612e6f573d6000803e3d6000fd5b505060019096019550612c5b945050505050565b505b600e5415612ebf57600e805480612e9857fe5b600082815260209020810160001990810180546001600160a01b0319169055019055612e85565b6007546040516324dacaa960e11b81526001600160a01b03909116906349b5955290612ef090600190600401614161565b600060405180830381600087803b158015612f0a57600080fd5b505af1158015612f1e573d6000803e3d6000fd5b50505050612f2b83611132565b612f3533846107d1565b5050600160055550565b6004546001600160a01b03163314612f695760405162461bcd60e51b815260040161060b9061439a565b60026005541415612f8c5760405162461bcd60e51b815260040161060b90614675565b60026005556040513390600080356001600160e01b03191691612fb19190369061416c565b60405180910390a2600854640100000000900460ff16612fe35760405162461bcd60e51b815260040161060b90614521565b6001600160a01b0381166130095760405162461bcd60e51b815260040161060b906146c4565b6001600160a01b03166000908152601660205260409020805460ff19166001908117909155600555565b3360009081526002602090815260408083206001600160a01b03861684529091528120546130619083613b31565b3360008181526002602090815260408083206001600160a01b038916808552925291829020849055905190926000805160206149b183398151915291610826919061492f565b6001600160a01b03918216600090815260026020908152604080832093909416825291909152205490565b336001600160a01b03166000356001600160e01b0319166001600160e01b03191660003660405161310492919061416c565b60405180910390a26002600554141561312f5760405162461bcd60e51b815260040161060b90614675565b60026005556007546001600160a01b031661315c5760405162461bcd60e51b815260040161060b906145bf565b60085462010000900460ff166131845760405162461bcd60e51b815260040161060b90614558565b6007546010546011546040516281bd0560e31b815273__SmartPoolManager______________________9363040de828936131d6936001600160a01b03909216929091906012906013906004016142fc565b60006040518083038186803b1580156131ee57600080fd5b505af4158015613202573d6000803e3d6000fd5b5050505060115443106132155760006010555b6001600555565b6004546001600160a01b031633146132465760405162461bcd60e51b815260040161060b9061439a565b600260055414156132695760405162461bcd60e51b815260040161060b90614675565b60026005556040513390600080356001600160e01b0319169161328e9190369061416c565b60405180910390a2600854640100000000900460ff166132c05760405162461bcd60e51b815260040161060b90614521565b6001600160a01b03811660009081526016602052604090205460ff166132f85760405162461bcd60e51b815260040161060b9061458f565b6001600160a01b03811661331e5760405162461bcd60e51b815260040161060b906146c4565b6001600160a01b03166000908152601660205260409020805460ff191690556001600555565b60405160009033906001600160e01b031983351690613366908490369061416c565b60405180910390a2600260055414156133915760405162461bcd60e51b815260040161060b90614675565b60026005556007546001600160a01b03166133be5760405162461bcd60e51b815260040161060b906145bf565b600760009054906101000a90046001600160a01b03166001600160a01b031663fde924f76040518163ffffffff1660e01b815260040160206040518083038186803b15801561340c57600080fd5b505afa158015613420573d6000803e3d6000fd5b505050506040513d601f19601f820116820180604052508101906134449190613ecc565b9050600160055590565b600080600061345d8585613b5d565b91509150801561347f5760405162461bcd60e51b815260040161060b9061480a565b509392505050565b6007546001600160a01b03166134af5760405162461bcd60e51b815260040161060b906145bf565b60075460405163f8b2cb4f60e01b81526000916001600160a01b03169063f8b2cb4f906134e09087906004016140ef565b60206040518083038186803b1580156134f857600080fd5b505afa15801561350c573d6000803e3d6000fd5b505050506040513d601f19601f820116820180604052508101906135309190613f3b565b600754604051634a46c67360e11b81529192506000916001600160a01b039091169063948d8ce6906135669088906004016140ef565b60206040518083038186803b15801561357e57600080fd5b505afa158015613592573d6000803e3d6000fd5b505050506040513d601f19601f820116820180604052508101906135b69190613f3b565b6007549091506001600160a01b0316633fdddaa2866135d5858761344e565b846040518463ffffffff1660e01b81526004016135f493929190614140565b600060405180830381600087803b15801561360e57600080fd5b505af1158015613622573d6000803e3d6000fd5b505060405163a9059cbb60e01b8152600092506001600160a01b038816915063a9059cbb906136579088908890600401614127565b602060405180830381600087803b15801561367157600080fd5b505af1158015613685573d6000803e3d6000fd5b505050506040513d601f19601f820116820180604052508101906136a99190613ecc565b9050806136c85760405162461bcd60e51b815260040161060b906147b2565b505050505050565b6107db308383613784565b3060009081526001602052604090205481111561370a5760405162461bcd60e51b815260040161060b90614610565b30600090815260016020526040902054613724908261344e565b3060009081526001602052604081209190915554613742908261344e565b600090815560405130907fddf252ad1be2c89b69c2b068fc378daa952ba7f163c4a11628f55a4df523b3ef9061377990859061492f565b60405180910390a350565b6001600160a01b0383166000908152600160205260409020548111156137bc5760405162461bcd60e51b815260040161060b90614610565b6001600160a01b0383166000908152600160205260409020546137df908261344e565b6001600160a01b03808516600090815260016020526040808220939093559084168152205461380e9082613b31565b6001600160a01b0380841660008181526001602052604090819020939093559151908516907fddf252ad1be2c89b69c2b068fc378daa952ba7f163c4a11628f55a4df523b3ef9061386090859061492f565b60405180910390a3505050565b306000908152600160205260409020546138879082613b31565b30600090815260016020526040812091909155546138a59082613b31565b60009081556040513091907fddf252ad1be2c89b69c2b068fc378daa952ba7f163c4a11628f55a4df523b3ef9061377990859061492f565b6007546001600160a01b03166139055760405162461bcd60e51b815260040161060b906145bf565b60075460405163f8b2cb4f60e01b81526000916001600160a01b03169063f8b2cb4f906139369087906004016140ef565b60206040518083038186803b15801561394e57600080fd5b505afa158015613962573d6000803e3d6000fd5b505050506040513d601f19601f820116820180604052508101906139869190613f3b565b600754604051634a46c67360e11b81529192506000916001600160a01b039091169063948d8ce6906139bc9088906004016140ef565b60206040518083038186803b1580156139d457600080fd5b505afa1580156139e8573d6000803e3d6000fd5b505050506040513d601f19601f82011682018060405250810190613a0c9190613f3b565b90506000856001600160a01b03166323b872dd8630876040518463ffffffff1660e01b8152600401613a4093929190614103565b602060405180830381600087803b158015613a5a57600080fd5b505af1158015613a6e573d6000803e3d6000fd5b505050506040513d601f19601f82011682018060405250810190613a929190613ecc565b905080613ab15760405162461bcd60e51b815260040161060b906147b2565b6007546001600160a01b0316633fdddaa287613acd8688613b31565b856040518463ffffffff1660e01b8152600401613aec93929190614140565b600060405180830381600087803b158015613b0657600080fd5b505af1158015613b1a573d6000803e3d6000fd5b50505050505050505050565b6107db823083613784565b600082820183811015613b565760405162461bcd60e51b815260040161060b90614835565b9392505050565b600080838311613b735750508082036000613b7b565b505081810360015b9250929050565b828054828255906000526020600020908101928215613bbd579160200282015b82811115613bbd578235825591602001919060010190613ba2565b50613bc9929150613bcd565b5090565b6107af91905b80821115613bc95760008155600101613bd3565b60008083601f840112613bf8578081fd5b50813567ffffffffffffffff811115613c0f578182fd5b6020830191508360208083028501011115613b7b57600080fd5b600082601f830112613c39578081fd5b8151613c4c613c478261496d565b614946565b818152915060208083019084810181840286018201871015613c6d57600080fd5b60005b84811015613c8c57815184529282019290820190600101613c70565b505050505092915050565b600060208284031215613ca8578081fd5b8135613b568161498d565b60008060408385031215613cc5578081fd5b8235613cd08161498d565b91506020830135613ce08161498d565b809150509250929050565b600080600060608486031215613cff578081fd5b8335613d0a8161498d565b92506020840135613d1a8161498d565b929592945050506040919091013590565b60008060408385031215613d3d578182fd5b8235613d488161498d565b946020939093013593505050565b600080600060608486031215613d6a578283fd5b8335613d758161498d565b95602085013595506040909401359392505050565b60006020808385031215613d9c578182fd5b825167ffffffffffffffff811115613db2578283fd5b80840185601f820112613dc3578384fd5b80519150613dd3613c478361496d565b8281528381019082850185850284018601891015613def578687fd5b8693505b84841015613e1a578051613e068161498d565b835260019390930192918501918501613df3565b50979650505050505050565b60008060008060608587031215613e3b578081fd5b843567ffffffffffffffff811115613e51578182fd5b613e5d87828801613be7565b90989097506020870135966040013595509350505050565b600060208284031215613e86578081fd5b815167ffffffffffffffff811115613e9c578182fd5b613ea884828501613c29565b949350505050565b600060208284031215613ec1578081fd5b8135613b56816149a2565b600060208284031215613edd578081fd5b8151613b56816149a2565b600060208284031215613ef9578081fd5b8151613b568161498d565b600060208284031215613f15578081fd5b813560058110613b56578182fd5b600060208284031215613f34578081fd5b5035919050565b600060208284031215613f4c578081fd5b5051919050565b600080600060408486031215613f67578081fd5b83359250602084013567ffffffffffffffff811115613f84578182fd5b613f9086828701613be7565b9497909650939450505050565b60008060408385031215613faf578182fd5b82519150602083015167ffffffffffffffff811115613fcc578182fd5b613fd885828601613c29565b9150509250929050565b60008060408385031215613ff4578182fd5b505080516020909101519092909150565b600080600060608486031215614019578081fd5b8351925060208401519150604084015167ffffffffffffffff81111561403d578182fd5b61404986828701613c29565b9150509250925092565b600080600060608486031215614067578081fd5b505081359360208301359350604090920135919050565b81835260006001600160fb1b03831115614096578081fd5b6020830280836020870137939093016020019283525090919050565b6000815480845260208085019450838352808320835b838110156140e4578154875295820195600191820191016140c8565b509495945050505050565b6001600160a01b0391909116815260200190565b6001600160a01b039384168152919092166020820152604081019190915260600190565b6001600160a01b03929092168252602082015260400190565b6001600160a01b039390931683526020830191909152604082015260600190565b901515815260200190565b60006020825282602083015282846040840137818301604090810191909152601f909201601f19160101919050565b6001600160a01b0393841681529183166020830152909116604082015260600190565b6001600160a01b039485168152928416602084015292166040820152606081019190915260800190565b6001600160a01b03958616815293851660208501529190931660408301526060820192909252608081019190915260a00190565b6001600160a01b0386811682528516602082015260408101849052608060608201819052600090614250908301848661407e565b979650505050505050565b6001600160a01b0394851681529290931660208301526040820152606081019190915260800190565b6001600160a01b03958616815293909416602084015260408301919091526060820152608081019190915260a00190565b600060018060a01b038916825287602083015260c060408301526142dd60c08301878961407e565b606083019590955250608081019290925260a090910152949350505050565b600060018060a01b038716825285602083015284604083015260a0606083015261432960a08301856140b2565b828103608084015261433b81856140b2565b98975050505050505050565b6000602080835283518082850152825b8181101561437357858101830151858201604001528201614357565b818111156143845783604083870101525b50601f01601f1916929092016040019392505050565b60208082526012908201527122a9292fa727aa2fa1a7a72a2927a62622a960711b604082015260600190565b6020808252601c908201527f4552525f43414e4e4f545f4144445f52454d4f56455f544f4b454e5300000000604082015260600190565b6020808252818101527f4552525f494e434f4e53495354454e545f544f4b454e5f54494d455f4c4f434b604082015260600190565b60208082526018908201527f4552525f494e56414c49445f424c4f434b5f504552494f440000000000000000604082015260600190565b6020808252601a908201527f4552525f53544152545f574549474854535f4d49534d41544348000000000000604082015260600190565b6020808252600f908201526e4552525f494e49545f535550504c5960881b604082015260600190565b60208082526014908201527311549497d393d517d3d397d5d2125511531254d560621b604082015260600190565b60208082526010908201526f4552525f5a45524f5f4144445245535360801b604082015260600190565b60208082526018908201527f4552525f43414e4e4f545f57484954454c4953545f4c50530000000000000000604082015260600190565b6020808252601c908201527f4552525f4e4f545f434f4e464947555241424c455f5745494748545300000000604082015260600190565b60208082526016908201527511549497d31417d393d517d5d2125511531254d5115160521b604082015260600190565b6020808252600f908201526e11549497d393d517d0d49150551151608a1b604082015260600190565b6020808252600e908201526d11549497d254d7d0d4915055115160921b604082015260600190565b60208082526014908201527311549497d25394d551919250d251539517d0905360621b604082015260600190565b6020808252601b908201527f4552525f494e56414c49445f544f4b454e5f54494d455f4c4f434b0000000000604082015260600190565b6020808252600b908201526a4552525f5245454e54525960a81b604082015260600190565b60208082526010908201526f4552525f5245454e5452595f5649455760801b604082015260600190565b6020808252601390820152724552525f494e56414c49445f4144445245535360681b604082015260600190565b6020808252601490820152734552525f4e4f4e5a45524f5f455849545f46454560601b604082015260600190565b60208082526016908201527522a9292fa821aa27a5a2a72fa120a22fa1a0a62622a960511b604082015260600190565b6020808252601290820152714552525f544f4f5f4645575f544f4b454e5360701b604082015260600190565b6020808252601b908201527f4552525f52454d4f56455f574954485f4144445f50454e44494e470000000000604082015260600190565b6020808252600f908201526e4552525f45524332305f46414c534560881b604082015260600190565b60208082526015908201527404552525f4e4f545f5041555341424c455f5357415605c1b604082015260600190565b6020808252601190820152704552525f5355425f554e444552464c4f5760781b604082015260600190565b60208082526010908201526f4552525f4144445f4f564552464c4f5760801b604082015260600190565b6020808252601d908201527f4552525f4e4f545f434f4e464947555241424c455f535741505f464545000000604082015260600190565b6020808252601c908201527f4552525f4e4f5f5550444154455f445552494e475f4752414455414c00000000604082015260600190565b600060c082019050835460ff81161515835260ff8160081c161515602084015260ff8160101c161515604084015260ff8160181c161515606084015260ff8160201c1615156080840152506005831061492257fe5b8260a08301529392505050565b90815260200190565b60ff91909116815260200190565b60405181810167ffffffffffffffff8111828210171561496557600080fd5b604052919050565b600067ffffffffffffffff821115614983578081fd5b5060209081020190565b6001600160a01b038116811461087457600080fd5b801515811461087457600080fdfe8c5be1e5ebec7d5bd14f71427d1e84f3dd0314c0f7b2291e5b200ac8c7c3b925a26469706673582212205f05aa23ab19713f805b4eeed4b515afa6563ae4e0d9a33dcd6efc87fffd74c664736f6c63430006060033a2646970667358221220265d79f4e30245fcd3e6ba611287b8cc115bc89e615429cfdcf1e62dc3ccf4ee64736f6c63430006060033",
  "immutableReferences": {},
  "source": "// SPDX-License-Identifier: GPL-3.0-or-later\npragma solidity ^0.6.6;\n\n// Needed to handle structures externally\npragma experimental ABIEncoderV2;\n\n// Imports\n\nimport \"./ConfigurableRightsPool.sol\";\n\n// Contracts\n\n/**\n * @author Balancer Labs\n * @title Configurable Rights Pool Factory - create parameterized smart pools\n * @dev Rights are held in a corresponding struct in ConfigurableRightsPool\n *      Index values are as follows:\n *      0: canPauseSwapping - can setPublicSwap back to false after turning it on\n *                            by default, it is off on initialization and can only be turned on\n *      1: canChangeSwapFee - can setSwapFee after initialization (by default, it is fixed at create time)\n *      2: canChangeWeights - can bind new token weights (allowed by default in base pool)\n *      3: canAddRemoveTokens - can bind/unbind tokens (allowed by default in base pool)\n *      4: canWhitelistLPs - if set, only whitelisted addresses can join pools\n *                           (enables private pools with more than one LP)\n */\ncontract CRPFactory {\n    // State variables\n\n    // Keep a list of all Configurable Rights Pools\n    mapping(address=>bool) private _isCrp;\n\n    // Event declarations\n\n    // Log the address of each new smart pool, and its creator\n    event LogNewCrp(\n        address indexed caller,\n        address indexed pool\n    );\n\n    // Function declarations\n\n    /**\n     * @notice Check to see if a given address is a CRP\n     * @param addr - address to check\n     * @return boolean indicating whether it is a CRP\n     */\n    function isCrp(address addr) external view returns (bool) {\n        return _isCrp[addr];\n    }\n\n    /**\n     * @notice Create a new CRP\n     * @dev emits a LogNewCRP event\n     * @param factoryAddress - the BFactory instance used to create the underlying pool\n     * @param tokens - initial set of tokens\n     * @param startBalances - initial balances (parallel array)\n     * @param startWeights - initial weights (parallal array)\n     * @param swapFee - initial swap fee\n     * @param rights - struct of permissions, configuring this CRP instance (see above for definitions)\n     */\n    function newCrp(\n        address factoryAddress,\n        string calldata symbol,\n        address[] calldata tokens,\n        uint[] calldata startBalances,\n        uint[] calldata startWeights,\n        uint swapFee,\n        RightsManager.Rights calldata rights\n    )\n        external\n        returns (ConfigurableRightsPool)\n    {\n        require(tokens.length >= BalancerConstants.MIN_ASSET_LIMIT, \"ERR_TOO_FEW_TOKENS\");\n\n        // Arrays must be parallel\n        require(startBalances.length == tokens.length, \"ERR_START_BALANCES_MISMATCH\");\n        require(startWeights.length == tokens.length, \"ERR_START_WEIGHTS_MISMATCH\");\n\n        ConfigurableRightsPool crp = new ConfigurableRightsPool(\n            factoryAddress,\n            symbol,\n            tokens,\n            startBalances,\n            startWeights,\n            swapFee,\n            rights\n        );\n\n        _isCrp[address(crp)] = true;\n        crp.setController(msg.sender);\n\n        emit LogNewCrp(msg.sender, address(crp));\n\n        return crp;\n    }\n}\n",
  "sourcePath": "/Users/arseny/Projects/curvelabs/research/1-balancer-sale/contracts/CRPFactory.sol",
  "compiler": {
    "name": "solc",
    "version": "0.6.6+commit.6c089d02.Emscripten.clang"
  },
  "schemaVersion": "3.2.4",
  "updatedAt": "2020-09-10T09:13:51.059Z",
  "devdoc": {
    "author": "Balancer Labs",
    "details": "Rights are held in a corresponding struct in ConfigurableRightsPool     Index values are as follows:     0: canPauseSwapping - can setPublicSwap back to false after turning it on                           by default, it is off on initialization and can only be turned on     1: canChangeSwapFee - can setSwapFee after initialization (by default, it is fixed at create time)     2: canChangeWeights - can bind new token weights (allowed by default in base pool)     3: canAddRemoveTokens - can bind/unbind tokens (allowed by default in base pool)     4: canWhitelistLPs - if set, only whitelisted addresses can join pools                          (enables private pools with more than one LP)",
    "methods": {
      "isCrp(address)": {
        "params": {
          "addr": "- address to check"
        },
        "returns": {
          "_0": "boolean indicating whether it is a CRP"
        }
      },
      "newCrp(address,string,address[],uint256[],uint256[],uint256,(bool,bool,bool,bool,bool))": {
        "details": "emits a LogNewCRP event",
        "params": {
          "factoryAddress": "- the BFactory instance used to create the underlying pool",
          "rights": "- struct of permissions, configuring this CRP instance (see above for definitions)",
          "startBalances": "- initial balances (parallel array)",
          "startWeights": "- initial weights (parallal array)",
          "swapFee": "- initial swap fee",
          "tokens": "- initial set of tokens"
        }
      }
    },
    "title": "Configurable Rights Pool Factory - create parameterized smart pools"
  },
  "userdoc": {
    "methods": {
      "isCrp(address)": {
        "notice": "Check to see if a given address is a CRP"
      },
      "newCrp(address,string,address[],uint256[],uint256[],uint256,(bool,bool,bool,bool,bool))": {
        "notice": "Create a new CRP"
      }
    }
  }
}