{
  "contractName": "RightsManager",
  "abi": [
    {
      "inputs": [],
      "name": "DEFAULT_CAN_ADD_REMOVE_TOKENS",
      "outputs": [
        {
          "internalType": "bool",
          "name": "",
          "type": "bool"
        }
      ],
      "stateMutability": "view",
      "type": "function"
    },
    {
      "inputs": [],
      "name": "DEFAULT_CAN_CHANGE_SWAP_FEE",
      "outputs": [
        {
          "internalType": "bool",
          "name": "",
          "type": "bool"
        }
      ],
      "stateMutability": "view",
      "type": "function"
    },
    {
      "inputs": [],
      "name": "DEFAULT_CAN_CHANGE_WEIGHTS",
      "outputs": [
        {
          "internalType": "bool",
          "name": "",
          "type": "bool"
        }
      ],
      "stateMutability": "view",
      "type": "function"
    },
    {
      "inputs": [],
      "name": "DEFAULT_CAN_PAUSE_SWAPPING",
      "outputs": [
        {
          "internalType": "bool",
          "name": "",
          "type": "bool"
        }
      ],
      "stateMutability": "view",
      "type": "function"
    },
    {
      "inputs": [],
      "name": "DEFAULT_CAN_WHITELIST_LPS",
      "outputs": [
        {
          "internalType": "bool",
          "name": "",
          "type": "bool"
        }
      ],
      "stateMutability": "view",
      "type": "function"
    },
    {
      "inputs": [
        {
          "internalType": "bool[]",
          "name": "a",
          "type": "bool[]"
        }
      ],
      "name": "constructRights",
      "outputs": [
        {
          "components": [
            {
              "internalType": "bool",
              "name": "canPauseSwapping",
              "type": "bool"
            },
            {
              "internalType": "bool",
              "name": "canChangeSwapFee",
              "type": "bool"
            },
            {
              "internalType": "bool",
              "name": "canChangeWeights",
              "type": "bool"
            },
            {
              "internalType": "bool",
              "name": "canAddRemoveTokens",
              "type": "bool"
            },
            {
              "internalType": "bool",
              "name": "canWhitelistLPs",
              "type": "bool"
            }
          ],
          "internalType": "struct RightsManager.Rights",
          "name": "",
          "type": "tuple"
        }
      ],
      "stateMutability": "pure",
      "type": "function"
    },
    {
      "inputs": [
        {
          "components": [
            {
              "internalType": "bool",
              "name": "canPauseSwapping",
              "type": "bool"
            },
            {
              "internalType": "bool",
              "name": "canChangeSwapFee",
              "type": "bool"
            },
            {
              "internalType": "bool",
              "name": "canChangeWeights",
              "type": "bool"
            },
            {
              "internalType": "bool",
              "name": "canAddRemoveTokens",
              "type": "bool"
            },
            {
              "internalType": "bool",
              "name": "canWhitelistLPs",
              "type": "bool"
            }
          ],
          "internalType": "struct RightsManager.Rights",
          "name": "self",
          "type": "tuple"
        },
        {
          "internalType": "enum RightsManager.Permissions",
          "name": "permission",
          "type": "RightsManager.Permissions"
        }
      ],
      "name": "hasPermission",
      "outputs": [
        {
          "internalType": "bool",
          "name": "",
          "type": "bool"
        }
      ],
      "stateMutability": "pure",
      "type": "function"
    }
  ],
  "bytecode": "0x61044e610026600b82828239805160001a60731461001957fe5b30600052607381538281f3fe73000000000000000000000000000000000000000030146080604052600436106100875760003560e01c80634583544a116100655780634583544a146100b2578063c08473fc146100c5578063cb0d28f6146100aa578063dccf54e7146100aa57610087565b806321bb04ae1461008c5780632cc0c346146100aa5780633d027b9d1461008c575b600080fd5b6100946100e5565b6040516100a191906103c9565b60405180910390f35b6100946100ea565b6100946100c0366004610389565b6100ef565b6100d86100d33660046102f6565b6101ab565b6040516100a191906103d4565b600181565b600081565b60008160048111156100fd57fe5b6101155761010e6020840184610362565b90506101a5565b81600481111561012157fe5b600114156101395761010e6040840160208501610362565b81600481111561014557fe5b6002141561015d5761010e6060840160408501610362565b81600481111561016957fe5b600314156101815761010e6080840160608501610362565b81600481111561018d57fe5b600414156101a55761010e60a0840160808501610362565b92915050565b6101b36102c8565b816101ec57506040805160a0810182526000808252602082018190526001928201839052606082019290925260808101919091526101a5565b6040518060a001604052808484600081811061020457fe5b90506020020160208101906102199190610362565b151581526020018484600181811061022d57fe5b90506020020160208101906102429190610362565b151581526020018484600281811061025657fe5b905060200201602081019061026b9190610362565b151581526020018484600381811061027f57fe5b90506020020160208101906102949190610362565b15158152602001848460048181106102a857fe5b90506020020160208101906102bd9190610362565b1515905290506101a5565b6040805160a08101825260008082526020820181905291810182905260608101829052608081019190915290565b60008060208385031215610308578182fd5b823567ffffffffffffffff8082111561031f578384fd5b81850186601f820112610330578485fd5b8035925081831115610340578485fd5b8660208085028301011115610353578485fd5b60200196919550909350505050565b600060208284031215610373578081fd5b81358015158114610382578182fd5b9392505050565b60008082840360c081121561039c578283fd5b60a08112156103a9578283fd5b5082915060a0830135600581106103be578182fd5b809150509250929050565b901515815260200190565b600060a0820190508251151582526020830151151560208301526040830151151560408301526060830151151560608301526080830151151560808301529291505056fea2646970667358221220dc2d799ed181de3df0883334781e41aca5bf38aeb32861ea873455b0ae91735f64736f6c63430006060033",
  "immutableReferences": {},
  "source": "// SPDX-License-Identifier: GPL-3.0-or-later\npragma solidity ^0.6.6;\n\n// Needed to handle structures externally\npragma experimental ABIEncoderV2;\n\n/**\n * @author Balancer Labs\n * @title Manage Configurable Rights for the smart pool\n *      canPauseSwapping - can setPublicSwap back to false after turning it on\n *                         by default, it is off on initialization and can only be turned on\n *      canChangeSwapFee - can setSwapFee after initialization (by default, it is fixed at create time)\n *      canChangeWeights - can bind new token weights (allowed by default in base pool)\n *      canAddRemoveTokens - can bind/unbind tokens (allowed by default in base pool)\n */\nlibrary RightsManager {\n\n    // Type declarations\n\n    enum Permissions { PAUSE_SWAPPING,\n                       CHANGE_SWAP_FEE,\n                       CHANGE_WEIGHTS,\n                       ADD_REMOVE_TOKENS,\n                       WHITELIST_LPS }\n\n    struct Rights {\n        bool canPauseSwapping;\n        bool canChangeSwapFee;\n        bool canChangeWeights;\n        bool canAddRemoveTokens;\n        bool canWhitelistLPs;\n    }\n\n    // State variables (can only be constants in a library)\n    bool public constant DEFAULT_CAN_PAUSE_SWAPPING = false;\n    bool public constant DEFAULT_CAN_CHANGE_SWAP_FEE = false;\n    bool public constant DEFAULT_CAN_CHANGE_WEIGHTS = true;\n    bool public constant DEFAULT_CAN_ADD_REMOVE_TOKENS = true;\n    bool public constant DEFAULT_CAN_WHITELIST_LPS = false;\n\n    // Functions\n\n    // Used in ConfigurableRightsPool constructor, so that we don't need to hard-code the number of permissions\n    // If you pass an empty array, it will construct it using the defaults\n    // See note above about external vs internal\n    function constructRights(bool[] calldata a) external pure returns (Rights memory) {\n        if (a.length == 0) {\n            return Rights(DEFAULT_CAN_PAUSE_SWAPPING,\n                          DEFAULT_CAN_CHANGE_SWAP_FEE,\n                          DEFAULT_CAN_CHANGE_WEIGHTS,\n                          DEFAULT_CAN_ADD_REMOVE_TOKENS,\n                          DEFAULT_CAN_WHITELIST_LPS);\n        }\n        else {\n            return Rights(a[0], a[1], a[2], a[3], a[4]);\n        }\n    }\n\n    /**\n     * @notice Externally check permissions using the Enum\n     * @param self - Rights struct containing the permissions\n     * @param permission - The permission to check\n     * @return Boolean true if it has the permission\n     */\n    function hasPermission(Rights calldata self, Permissions permission) external pure returns (bool) {\n        if (Permissions.PAUSE_SWAPPING == permission) {\n            return self.canPauseSwapping;\n        }\n        else if (Permissions.CHANGE_SWAP_FEE == permission) {\n            return self.canChangeSwapFee;\n        }\n        else if (Permissions.CHANGE_WEIGHTS == permission) {\n            return self.canChangeWeights;\n        }\n        else if (Permissions.ADD_REMOVE_TOKENS == permission) {\n            return self.canAddRemoveTokens;\n        }\n        else if (Permissions.WHITELIST_LPS == permission) {\n            return self.canWhitelistLPs;\n        }\n    }\n}\n",
  "sourcePath": "/Users/arseny/Projects/curvelabs/research/1-balancer-sale/contracts/libraries/RightsManager.sol",
  "compiler": {
    "name": "solc",
    "version": "0.6.6+commit.6c089d02.Emscripten.clang"
  },
  "schemaVersion": "3.2.4",
  "updatedAt": "2020-09-10T10:38:34.239Z",
  "devdoc": {
    "author": "Balancer Labs",
    "methods": {
      "hasPermission(RightsManager.Rights,RightsManager.Permissions)": {
        "params": {
          "permission": "- The permission to check",
          "self": "- Rights struct containing the permissions"
        },
        "returns": {
          "_0": "Boolean true if it has the permission"
        }
      }
    },
    "title": "Manage Configurable Rights for the smart pool     canPauseSwapping - can setPublicSwap back to false after turning it on                        by default, it is off on initialization and can only be turned on     canChangeSwapFee - can setSwapFee after initialization (by default, it is fixed at create time)     canChangeWeights - can bind new token weights (allowed by default in base pool)     canAddRemoveTokens - can bind/unbind tokens (allowed by default in base pool)"
  },
  "userdoc": {
    "methods": {
      "hasPermission(RightsManager.Rights,RightsManager.Permissions)": {
        "notice": "Externally check permissions using the Enum"
      }
    }
  }
}