{
  "contractName": "RightsManager",
  "abi": [
    {
      "inputs": [],
      "name": "DEFAULT_CAN_ADD_REMOVE_TOKENS",
      "outputs": [
        {
          "internalType": "bool",
          "name": "",
          "type": "bool"
        }
      ],
      "stateMutability": "view",
      "type": "function",
      "constant": true
    },
    {
      "inputs": [],
      "name": "DEFAULT_CAN_CHANGE_CAP",
      "outputs": [
        {
          "internalType": "bool",
          "name": "",
          "type": "bool"
        }
      ],
      "stateMutability": "view",
      "type": "function",
      "constant": true
    },
    {
      "inputs": [],
      "name": "DEFAULT_CAN_CHANGE_SWAP_FEE",
      "outputs": [
        {
          "internalType": "bool",
          "name": "",
          "type": "bool"
        }
      ],
      "stateMutability": "view",
      "type": "function",
      "constant": true
    },
    {
      "inputs": [],
      "name": "DEFAULT_CAN_CHANGE_WEIGHTS",
      "outputs": [
        {
          "internalType": "bool",
          "name": "",
          "type": "bool"
        }
      ],
      "stateMutability": "view",
      "type": "function",
      "constant": true
    },
    {
      "inputs": [],
      "name": "DEFAULT_CAN_PAUSE_SWAPPING",
      "outputs": [
        {
          "internalType": "bool",
          "name": "",
          "type": "bool"
        }
      ],
      "stateMutability": "view",
      "type": "function",
      "constant": true
    },
    {
      "inputs": [],
      "name": "DEFAULT_CAN_WHITELIST_LPS",
      "outputs": [
        {
          "internalType": "bool",
          "name": "",
          "type": "bool"
        }
      ],
      "stateMutability": "view",
      "type": "function",
      "constant": true
    },
    {
      "inputs": [
        {
          "internalType": "bool[]",
          "name": "a",
          "type": "bool[]"
        }
      ],
      "name": "constructRights",
      "outputs": [
        {
          "components": [
            {
              "internalType": "bool",
              "name": "canPauseSwapping",
              "type": "bool"
            },
            {
              "internalType": "bool",
              "name": "canChangeSwapFee",
              "type": "bool"
            },
            {
              "internalType": "bool",
              "name": "canChangeWeights",
              "type": "bool"
            },
            {
              "internalType": "bool",
              "name": "canAddRemoveTokens",
              "type": "bool"
            },
            {
              "internalType": "bool",
              "name": "canWhitelistLPs",
              "type": "bool"
            },
            {
              "internalType": "bool",
              "name": "canChangeCap",
              "type": "bool"
            }
          ],
          "internalType": "struct RightsManager.Rights",
          "name": "",
          "type": "tuple"
        }
      ],
      "stateMutability": "pure",
      "type": "function",
      "constant": true
    },
    {
      "inputs": [
        {
          "components": [
            {
              "internalType": "bool",
              "name": "canPauseSwapping",
              "type": "bool"
            },
            {
              "internalType": "bool",
              "name": "canChangeSwapFee",
              "type": "bool"
            },
            {
              "internalType": "bool",
              "name": "canChangeWeights",
              "type": "bool"
            },
            {
              "internalType": "bool",
              "name": "canAddRemoveTokens",
              "type": "bool"
            },
            {
              "internalType": "bool",
              "name": "canWhitelistLPs",
              "type": "bool"
            },
            {
              "internalType": "bool",
              "name": "canChangeCap",
              "type": "bool"
            }
          ],
          "internalType": "struct RightsManager.Rights",
          "name": "rights",
          "type": "tuple"
        }
      ],
      "name": "convertRights",
      "outputs": [
        {
          "internalType": "bool[]",
          "name": "",
          "type": "bool[]"
        }
      ],
      "stateMutability": "pure",
      "type": "function",
      "constant": true
    },
    {
      "inputs": [
        {
          "components": [
            {
              "internalType": "bool",
              "name": "canPauseSwapping",
              "type": "bool"
            },
            {
              "internalType": "bool",
              "name": "canChangeSwapFee",
              "type": "bool"
            },
            {
              "internalType": "bool",
              "name": "canChangeWeights",
              "type": "bool"
            },
            {
              "internalType": "bool",
              "name": "canAddRemoveTokens",
              "type": "bool"
            },
            {
              "internalType": "bool",
              "name": "canWhitelistLPs",
              "type": "bool"
            },
            {
              "internalType": "bool",
              "name": "canChangeCap",
              "type": "bool"
            }
          ],
          "internalType": "struct RightsManager.Rights",
          "name": "self",
          "type": "tuple"
        },
        {
          "internalType": "enum RightsManager.Permissions",
          "name": "permission",
          "type": "RightsManager.Permissions"
        }
      ],
      "name": "hasPermission",
      "outputs": [
        {
          "internalType": "bool",
          "name": "",
          "type": "bool"
        }
      ],
      "stateMutability": "pure",
      "type": "function",
      "constant": true
    }
  ],
  "bytecode": "0x610696610026600b82828239805160001a60731461001957fe5b30600052607381538281f3fe730000000000000000000000000000000000000000301460806040526004361061009d5760003560e01c80634583544a116100705780634583544a146100c8578063710a51c2146100db578063c08473fc146100fb578063cb0d28f6146100c0578063dccf54e7146100a25761009d565b806308395a34146100a257806321bb04ae146100c05780632cc0c346146100a25780633d027b9d146100a2575b600080fd5b6100aa61011b565b6040516100b79190610605565b60405180910390f35b6100aa610120565b6100aa6100d6366004610585565b610125565b6100ee6100e936600461056a565b610205565b6040516100b791906105bf565b61010e6101093660046104d4565b61033b565b6040516100b79190610610565b600081565b600181565b600081600581111561013357fe5b61014b576101446020840184610543565b90506101ff565b81600581111561015757fe5b6001141561016f576101446040840160208501610543565b81600581111561017b57fe5b60021415610193576101446060840160408501610543565b81600581111561019f57fe5b600314156101b7576101446080840160608501610543565b8160058111156101c357fe5b600414156101db5761014460a0840160808501610543565b8160058111156101e757fe5b600514156101ff5761014460c0840160a08501610543565b92915050565b60408051600680825260e082019092526060918291906020820160c0803683370190505090506102386020840184610543565b8160008151811061024557fe5b9115156020928302919091018201526102649060408501908501610543565b8160018151811061027157fe5b911515602092830291909101909101526102916060840160408501610543565b8160028151811061029e57fe5b911515602092830291909101909101526102be6080840160608501610543565b816003815181106102cb57fe5b911515602092830291909101909101526102eb60a0840160808501610543565b816004815181106102f857fe5b9115156020928302919091019091015261031860c0840160a08501610543565b8160058151811061032557fe5b9115156020928302919091019091015292915050565b610343610488565b8161038357506040805160c081018252600080825260016020830181905292820192909252606081018290526080810182905260a08101919091526101ff565b6040518060c001604052808484600081811061039b57fe5b90506020020160208101906103b09190610543565b15158152602001848460018181106103c457fe5b90506020020160208101906103d99190610543565b15158152602001848460028181106103ed57fe5b90506020020160208101906104029190610543565b151581526020018484600381811061041657fe5b905060200201602081019061042b9190610543565b151581526020018484600481811061043f57fe5b90506020020160208101906104549190610543565b151581526020018484600581811061046857fe5b905060200201602081019061047d9190610543565b1515905290506101ff565b6040805160c081018252600080825260208201819052918101829052606081018290526080810182905260a081019190915290565b600060c082840312156104ce578081fd5b50919050565b600080602083850312156104e6578182fd5b823567ffffffffffffffff808211156104fd578384fd5b818501915085601f830112610510578384fd5b81358181111561051e578485fd5b8660208083028501011115610531578485fd5b60209290920196919550909350505050565b600060208284031215610554578081fd5b81358015158114610563578182fd5b9392505050565b600060c0828403121561057b578081fd5b61056383836104bd565b60008060e08385031215610597578182fd5b6105a184846104bd565b915060c0830135600681106105b4578182fd5b809150509250929050565b6020808252825182820181905260009190848201906040850190845b818110156105f95783511515835292840192918401916001016105db565b50909695505050505050565b901515815260200190565b600060c08201905082511515825260208301511515602083015260408301511515604083015260608301511515606083015260808301511515608083015260a0830151151560a08301529291505056fea2646970667358221220e12e307dfa74c62e4ffb5fbbe43e680bde4167fe63076e1701134697450a27c864736f6c634300060c0033",
  "immutableReferences": {},
  "source": "// SPDX-License-Identifier: GPL-3.0-or-later\npragma solidity 0.6.12;\n\n// Needed to handle structures externally\npragma experimental ABIEncoderV2;\n\n/**\n * @author Balancer Labs\n * @title Manage Configurable Rights for the smart pool\n *      canPauseSwapping - can setPublicSwap back to false after turning it on\n *                         by default, it is off on initialization and can only be turned on\n *      canChangeSwapFee - can setSwapFee after initialization (by default, it is fixed at create time)\n *      canChangeWeights - can bind new token weights (allowed by default in base pool)\n *      canAddRemoveTokens - can bind/unbind tokens (allowed by default in base pool)\n *      canWhitelistLPs - can limit liquidity providers to a given set of addresses\n *      canChangeCap - can change the BSP cap (max # of pool tokens)\n */\nlibrary RightsManager {\n\n    // Type declarations\n\n    enum Permissions { PAUSE_SWAPPING,\n                       CHANGE_SWAP_FEE,\n                       CHANGE_WEIGHTS,\n                       ADD_REMOVE_TOKENS,\n                       WHITELIST_LPS,\n                       CHANGE_CAP }\n\n    struct Rights {\n        bool canPauseSwapping;\n        bool canChangeSwapFee;\n        bool canChangeWeights;\n        bool canAddRemoveTokens;\n        bool canWhitelistLPs;\n        bool canChangeCap;\n    }\n\n    // State variables (can only be constants in a library)\n    bool public constant DEFAULT_CAN_PAUSE_SWAPPING = false;\n    bool public constant DEFAULT_CAN_CHANGE_SWAP_FEE = true;\n    bool public constant DEFAULT_CAN_CHANGE_WEIGHTS = true;\n    bool public constant DEFAULT_CAN_ADD_REMOVE_TOKENS = false;\n    bool public constant DEFAULT_CAN_WHITELIST_LPS = false;\n    bool public constant DEFAULT_CAN_CHANGE_CAP = false;\n\n    // Functions\n\n    /**\n     * @notice create a struct from an array (or return defaults)\n     * @dev If you pass an empty array, it will construct it using the defaults\n     * @param a - array input\n     * @return Rights struct\n     */ \n    function constructRights(bool[] calldata a) external pure returns (Rights memory) {\n        if (a.length == 0) {\n            return Rights(DEFAULT_CAN_PAUSE_SWAPPING,\n                          DEFAULT_CAN_CHANGE_SWAP_FEE,\n                          DEFAULT_CAN_CHANGE_WEIGHTS,\n                          DEFAULT_CAN_ADD_REMOVE_TOKENS,\n                          DEFAULT_CAN_WHITELIST_LPS,\n                          DEFAULT_CAN_CHANGE_CAP);\n        }\n        else {\n            return Rights(a[0], a[1], a[2], a[3], a[4], a[5]);\n        }\n    }\n\n    /**\n     * @notice Convert rights struct to an array (e.g., for events, GUI)\n     * @dev avoids multiple calls to hasPermission\n     * @param rights - the rights struct to convert\n     * @return boolean array containing the rights settings\n     */\n    function convertRights(Rights calldata rights) external pure returns (bool[] memory) {\n        bool[] memory result = new bool[](6);\n\n        result[0] = rights.canPauseSwapping;\n        result[1] = rights.canChangeSwapFee;\n        result[2] = rights.canChangeWeights;\n        result[3] = rights.canAddRemoveTokens;\n        result[4] = rights.canWhitelistLPs;\n        result[5] = rights.canChangeCap;\n\n        return result;\n    }\n\n    // Though it is actually simple, the number of branches triggers code-complexity\n    /* solhint-disable code-complexity */\n\n    /**\n     * @notice Externally check permissions using the Enum\n     * @param self - Rights struct containing the permissions\n     * @param permission - The permission to check\n     * @return Boolean true if it has the permission\n     */\n    function hasPermission(Rights calldata self, Permissions permission) external pure returns (bool) {\n        if (Permissions.PAUSE_SWAPPING == permission) {\n            return self.canPauseSwapping;\n        }\n        else if (Permissions.CHANGE_SWAP_FEE == permission) {\n            return self.canChangeSwapFee;\n        }\n        else if (Permissions.CHANGE_WEIGHTS == permission) {\n            return self.canChangeWeights;\n        }\n        else if (Permissions.ADD_REMOVE_TOKENS == permission) {\n            return self.canAddRemoveTokens;\n        }\n        else if (Permissions.WHITELIST_LPS == permission) {\n            return self.canWhitelistLPs;\n        }\n        else if (Permissions.CHANGE_CAP == permission) {\n            return self.canChangeCap;\n        }\n    }\n\n    /* solhint-enable code-complexity */\n}\n",
  "sourcePath": "/Users/arseny/Projects/primeDAO/configurable-rights-pool/libraries/RightsManager.sol",
  "compiler": {
    "name": "solc",
    "version": "0.6.12+commit.27d51765.Emscripten.clang"
  },
  "schemaVersion": "3.2.5",
  "updatedAt": "2020-10-15T09:49:38.460Z",
  "networkType": "ethereum",
  "devdoc": {
    "author": "Balancer Labs",
    "kind": "dev",
    "methods": {
      "constructRights(bool[])": {
        "details": "If you pass an empty array, it will construct it using the defaults",
        "params": {
          "a": "- array input"
        },
        "returns": {
          "_0": "Rights struct"
        }
      },
      "convertRights(RightsManager.Rights)": {
        "details": "avoids multiple calls to hasPermission",
        "params": {
          "rights": "- the rights struct to convert"
        },
        "returns": {
          "_0": "boolean array containing the rights settings"
        }
      },
      "hasPermission(RightsManager.Rights,RightsManager.Permissions)": {
        "params": {
          "permission": "- The permission to check",
          "self": "- Rights struct containing the permissions"
        },
        "returns": {
          "_0": "Boolean true if it has the permission"
        }
      }
    },
    "title": "Manage Configurable Rights for the smart pool      canPauseSwapping - can setPublicSwap back to false after turning it on                         by default, it is off on initialization and can only be turned on      canChangeSwapFee - can setSwapFee after initialization (by default, it is fixed at create time)      canChangeWeights - can bind new token weights (allowed by default in base pool)      canAddRemoveTokens - can bind/unbind tokens (allowed by default in base pool)      canWhitelistLPs - can limit liquidity providers to a given set of addresses      canChangeCap - can change the BSP cap (max # of pool tokens)",
    "version": 1
  },
  "userdoc": {
    "kind": "user",
    "methods": {
      "constructRights(bool[])": {
        "notice": "create a struct from an array (or return defaults)"
      },
      "convertRights(RightsManager.Rights)": {
        "notice": "Convert rights struct to an array (e.g., for events, GUI)"
      },
      "hasPermission(RightsManager.Rights,RightsManager.Permissions)": {
        "notice": "Externally check permissions using the Enum"
      }
    },
    "version": 1
  }
}