{
  "contractName": "SmartPoolManager",
  "abi": [
    {
      "inputs": [
        {
          "internalType": "contract ConfigurableRightsPool",
          "name": "self",
          "type": "ConfigurableRightsPool"
        },
        {
          "internalType": "contract IBPool",
          "name": "bPool",
          "type": "IBPool"
        },
        {
          "internalType": "uint256",
          "name": "poolAmountOut",
          "type": "uint256"
        },
        {
          "internalType": "uint256[]",
          "name": "maxAmountsIn",
          "type": "uint256[]"
        }
      ],
      "name": "joinPool",
      "outputs": [
        {
          "internalType": "uint256[]",
          "name": "actualAmountsIn",
          "type": "uint256[]"
        }
      ],
      "stateMutability": "view",
      "type": "function",
      "constant": true
    },
    {
      "inputs": [
        {
          "internalType": "contract ConfigurableRightsPool",
          "name": "self",
          "type": "ConfigurableRightsPool"
        },
        {
          "internalType": "contract IBPool",
          "name": "bPool",
          "type": "IBPool"
        },
        {
          "internalType": "uint256",
          "name": "poolAmountIn",
          "type": "uint256"
        },
        {
          "internalType": "uint256[]",
          "name": "minAmountsOut",
          "type": "uint256[]"
        }
      ],
      "name": "exitPool",
      "outputs": [
        {
          "internalType": "uint256",
          "name": "exitFee",
          "type": "uint256"
        },
        {
          "internalType": "uint256",
          "name": "pAiAfterExitFee",
          "type": "uint256"
        },
        {
          "internalType": "uint256[]",
          "name": "actualAmountsOut",
          "type": "uint256[]"
        }
      ],
      "stateMutability": "view",
      "type": "function",
      "constant": true
    },
    {
      "inputs": [
        {
          "internalType": "contract ConfigurableRightsPool",
          "name": "self",
          "type": "ConfigurableRightsPool"
        },
        {
          "internalType": "contract IBPool",
          "name": "bPool",
          "type": "IBPool"
        },
        {
          "internalType": "address",
          "name": "tokenIn",
          "type": "address"
        },
        {
          "internalType": "uint256",
          "name": "tokenAmountIn",
          "type": "uint256"
        },
        {
          "internalType": "uint256",
          "name": "minPoolAmountOut",
          "type": "uint256"
        }
      ],
      "name": "joinswapExternAmountIn",
      "outputs": [
        {
          "internalType": "uint256",
          "name": "poolAmountOut",
          "type": "uint256"
        }
      ],
      "stateMutability": "view",
      "type": "function",
      "constant": true
    },
    {
      "inputs": [
        {
          "internalType": "contract ConfigurableRightsPool",
          "name": "self",
          "type": "ConfigurableRightsPool"
        },
        {
          "internalType": "contract IBPool",
          "name": "bPool",
          "type": "IBPool"
        },
        {
          "internalType": "address",
          "name": "tokenIn",
          "type": "address"
        },
        {
          "internalType": "uint256",
          "name": "poolAmountOut",
          "type": "uint256"
        },
        {
          "internalType": "uint256",
          "name": "maxAmountIn",
          "type": "uint256"
        }
      ],
      "name": "joinswapPoolAmountOut",
      "outputs": [
        {
          "internalType": "uint256",
          "name": "tokenAmountIn",
          "type": "uint256"
        }
      ],
      "stateMutability": "view",
      "type": "function",
      "constant": true
    },
    {
      "inputs": [
        {
          "internalType": "contract ConfigurableRightsPool",
          "name": "self",
          "type": "ConfigurableRightsPool"
        },
        {
          "internalType": "contract IBPool",
          "name": "bPool",
          "type": "IBPool"
        },
        {
          "internalType": "address",
          "name": "tokenOut",
          "type": "address"
        },
        {
          "internalType": "uint256",
          "name": "poolAmountIn",
          "type": "uint256"
        },
        {
          "internalType": "uint256",
          "name": "minAmountOut",
          "type": "uint256"
        }
      ],
      "name": "exitswapPoolAmountIn",
      "outputs": [
        {
          "internalType": "uint256",
          "name": "exitFee",
          "type": "uint256"
        },
        {
          "internalType": "uint256",
          "name": "tokenAmountOut",
          "type": "uint256"
        }
      ],
      "stateMutability": "view",
      "type": "function",
      "constant": true
    },
    {
      "inputs": [
        {
          "internalType": "contract ConfigurableRightsPool",
          "name": "self",
          "type": "ConfigurableRightsPool"
        },
        {
          "internalType": "contract IBPool",
          "name": "bPool",
          "type": "IBPool"
        },
        {
          "internalType": "address",
          "name": "tokenOut",
          "type": "address"
        },
        {
          "internalType": "uint256",
          "name": "tokenAmountOut",
          "type": "uint256"
        },
        {
          "internalType": "uint256",
          "name": "maxPoolAmountIn",
          "type": "uint256"
        }
      ],
      "name": "exitswapExternAmountOut",
      "outputs": [
        {
          "internalType": "uint256",
          "name": "exitFee",
          "type": "uint256"
        },
        {
          "internalType": "uint256",
          "name": "poolAmountIn",
          "type": "uint256"
        }
      ],
      "stateMutability": "view",
      "type": "function",
      "constant": true
    }
  ],
  "bytecode": "0x613f7c610026600b82828239805160001a60731461001957fe5b30600052607381538281f3fe73000000000000000000000000000000000000000030146080604052600436106100f45760003560e01c80637386a32411610096578063c8ebc9ab11610070578063c8ebc9ab14610238578063cfc312091461024b578063d8731c331461026b578063e8eb23761461028b576100f4565b80637386a324146101e557806377d44349146101f8578063b489ec1914610218576100f4565b806344ec7c68116100d257806344ec7c68146101645780635977141d1461018457806368c3dd2a146101a45780636f50bd5d146101c5576100f4565b80631135eba0146100f95780631c1af1361461012257806341768e0b14610144575b600080fd5b61010c61010736600461373c565b6102ad565b60405161011991906139c0565b60405180910390f35b81801561012e57600080fd5b5061014261013d366004613505565b61057b565b005b81801561015057600080fd5b5061014261015f3660046137ad565b610587565b81801561017057600080fd5b5061014261017f366004613692565b61096c565b81801561019057600080fd5b5061014261019f36600461386d565b611025565b6101b76101b23660046136e2565b61131e565b604051610119929190613eb5565b6101d86101d33660046136e2565b611764565b6040516101199190613eac565b6101b76101f33660046136e2565b611b9c565b81801561020457600080fd5b5061014261021336600461353d565b611f95565b81801561022457600080fd5b506101426102333660046137f2565b611fd6565b6101d86102463660046136e2565b6121cf565b81801561025757600080fd5b50610142610266366004613648565b6125bd565b81801561027757600080fd5b50610142610286366004613842565b6129de565b61029e61029936600461373c565b612d60565b60405161011993929190613ec3565b606080856001600160a01b031663cc77828d6040518163ffffffff1660e01b815260040160006040518083038186803b1580156102e957600080fd5b505afa1580156102fd573d6000803e3d6000fd5b505050506040513d6000823e601f3d908101601f19168201604052610325919081019061357d565b805190915083146103515760405162461bcd60e51b815260040161034890613b72565b60405180910390fd5b6000876001600160a01b03166318160ddd6040518163ffffffff1660e01b815260040160206040518083038186803b15801561038c57600080fd5b505afa1580156103a0573d6000803e3d6000fd5b505050506040513d601f19601f820116820180604052508101906103c491906138e2565b905060006103dc876103d7846001613039565b613074565b9050806103fb5760405162461bcd60e51b815260040161034890613af3565b825167ffffffffffffffff8111801561041357600080fd5b5060405190808252806020026020018201604052801561043d578160200160208202803683370190505b50935060005b835181101561056e57600084828151811061045a57fe5b6020026020010151905060008a6001600160a01b031663f8b2cb4f836040518263ffffffff1660e01b81526004016104929190613934565b60206040518083038186803b1580156104aa57600080fd5b505afa1580156104be573d6000803e3d6000fd5b505050506040513d601f19601f820116820180604052508101906104e291906138e2565b905060006104fa856104f5846001613110565b61313c565b9050806105195760405162461bcd60e51b815260040161034890613af3565b89898581811061052557fe5b9050602002013581111561054b5760405162461bcd60e51b815260040161034890613c45565b8088858151811061055857fe5b6020908102919091010152505050600101610443565b5050505095945050505050565b610584816131b2565b50565b8054600160a01b900460ff166105af5760405162461bcd60e51b8152600401610348906139d3565b816105be438360010154613039565b10156105dc5760405162461bcd60e51b815260040161034890613d41565b6000846001600160a01b03166318160ddd6040518163ffffffff1660e01b815260040160206040518083038186803b15801561061757600080fd5b505afa15801561062b573d6000803e3d6000fd5b505050506040513d601f19601f8201168201806040525081019061064f91906138e2565b905060006106d561066483856002015461313c565b866001600160a01b031663936c34776040518163ffffffff1660e01b815260040160206040518083038186803b15801561069d57600080fd5b505afa1580156106b1573d6000803e3d6000fd5b505050506040513d601f19601f820116820180604052508101906103d791906138e2565b835460ff60a01b198116855560408051633018205f60e01b815290519293506000926001600160a01b03928316926323b872dd92908b1691633018205f91600480820192602092909190829003018186803b15801561073357600080fd5b505afa158015610747573d6000803e3d6000fd5b505050506040513d601f19601f8201168201806040525081019061076b9190613521565b8987600301546040518463ffffffff1660e01b815260040161078f93929190613948565b602060405180830381600087803b1580156107a957600080fd5b505af11580156107bd573d6000803e3d6000fd5b505050506040513d601f19601f820116820180604052508101906107e19190613628565b9050806108005760405162461bcd60e51b815260040161034890613e2e565b8354610818906001600160a01b031687600019613254565b9050806108375760405162461bcd60e51b815260040161034890613e2e565b835460038501546002860154604051631c9c3ca760e31b81526001600160a01b03808b169463e4e1e5389461087394919092169260040161399f565b600060405180830381600087803b15801561088d57600080fd5b505af11580156108a1573d6000803e3d6000fd5b50506040516325d2bc4160e11b81526001600160a01b038a169250634ba5788291506108d1908590600401613eac565b600060405180830381600087803b1580156108eb57600080fd5b505af11580156108ff573d6000803e3d6000fd5b5050604051630257733360e21b81526001600160a01b038a16925063095dcccc9150610931903390869060040161396c565b600060405180830381600087803b15801561094b57600080fd5b505af115801561095f573d6000803e3d6000fd5b5050505050505050505050565b670de0b6b3a76400008110156109945760405162461bcd60e51b815260040161034890613ceb565b6802b5e3af16b18800008111156109bd5760405162461bcd60e51b815260040161034890613b1c565b604051634a46c67360e11b81526000906001600160a01b0385169063948d8ce6906109ec908690600401613934565b60206040518083038186803b158015610a0457600080fd5b505afa158015610a18573d6000803e3d6000fd5b505050506040513d601f19601f82011682018060405250810190610a3c91906138e2565b905081811415610a4c575061101f565b60405163f8b2cb4f60e01b81526000906001600160a01b0386169063f8b2cb4f90610a7b908790600401613934565b60206040518083038186803b158015610a9357600080fd5b505afa158015610aa7573d6000803e3d6000fd5b505050506040513d601f19601f82011682018060405250810190610acb91906138e2565b90506000866001600160a01b03166318160ddd6040518163ffffffff1660e01b815260040160206040518083038186803b158015610b0857600080fd5b505afa158015610b1c573d6000803e3d6000fd5b505050506040513d601f19601f82011682018060405250810190610b4091906138e2565b90506000866001600160a01b031663936c34776040518163ffffffff1660e01b815260040160206040518083038186803b158015610b7d57600080fd5b505afa158015610b91573d6000803e3d6000fd5b505050506040513d601f19601f82011682018060405250810190610bb591906138e2565b905060008060008087891015610dea57610bcf888a613039565b9150610bdf866104f58488613074565b9350610bef876104f5848b613074565b9250610bfb8784613039565b905064e8d4a51000811015610c225760405162461bcd60e51b815260040161034890613bc7565b604051631feeed5160e11b81526001600160a01b038c1690633fdddaa290610c52908d9085908e9060040161399f565b600060405180830381600087803b158015610c6c57600080fd5b505af1158015610c80573d6000803e3d6000fd5b505060405163a9059cbb60e01b8152600092506001600160a01b038d16915063a9059cbb90610cb5903390889060040161396c565b602060405180830381600087803b158015610ccf57600080fd5b505af1158015610ce3573d6000803e3d6000fd5b505050506040513d601f19601f82011682018060405250810190610d079190613628565b905080610d265760405162461bcd60e51b815260040161034890613e2e565b6040516355c32a2360e01b81526001600160a01b038e16906355c32a2390610d54903390899060040161396c565b600060405180830381600087803b158015610d6e57600080fd5b505af1158015610d82573d6000803e3d6000fd5b505050508c6001600160a01b031663220eb760866040518263ffffffff1660e01b8152600401610db29190613eac565b600060405180830381600087803b158015610dcc57600080fd5b505af1158015610de0573d6000803e3d6000fd5b5050505050611016565b610df48989613039565b91506802b5e3af16b1880000610e0a8684613110565b1115610e285760405162461bcd60e51b815260040161034890613b44565b610e36866104f58488613074565b9350610e46876104f5848b613074565b925060008a6001600160a01b03166323b872dd3330876040518463ffffffff1660e01b8152600401610e7a93929190613948565b602060405180830381600087803b158015610e9457600080fd5b505af1158015610ea8573d6000803e3d6000fd5b505050506040513d601f19601f82011682018060405250810190610ecc9190613628565b905080610eeb5760405162461bcd60e51b815260040161034890613e2e565b8b6001600160a01b0316633fdddaa28c610f058b88613110565b8d6040518463ffffffff1660e01b8152600401610f249392919061399f565b600060405180830381600087803b158015610f3e57600080fd5b505af1158015610f52573d6000803e3d6000fd5b505050508c6001600160a01b0316634ba57882866040518263ffffffff1660e01b8152600401610f829190613eac565b600060405180830381600087803b158015610f9c57600080fd5b505af1158015610fb0573d6000803e3d6000fd5b505050508c6001600160a01b031663095dcccc33876040518363ffffffff1660e01b8152600401610fe292919061396c565b600060405180830381600087803b158015610ffc57600080fd5b505af1158015611010573d6000803e3d6000fd5b50505050505b50505050505050505b50505050565b806110308385613039565b101561104e5760405162461bcd60e51b815260040161034890613a37565b81431061106d5760405162461bcd60e51b815260040161034890613a00565b6060876001600160a01b031663cc77828d6040518163ffffffff1660e01b815260040160006040518083038186803b1580156110a857600080fd5b505afa1580156110bc573d6000803e3d6000fd5b505050506040513d6000823e601f3d908101601f191682016040526110e4919081019061357d565b805190915085146111075760405162461bcd60e51b815260040161034890613a6c565b6000815167ffffffffffffffff8111801561112157600080fd5b5060405190808252806020026020018201604052801561114b578160200160208202803683370190505b5080516111629160028b019160209091019061341d565b5060005b82518110156112b4576802b5e3af16b188000088888381811061118557fe5b9050602002013511156111aa5760405162461bcd60e51b815260040161034890613d13565b670de0b6b3a76400008888838181106111bf57fe5b9050602002013510156111e45760405162461bcd60e51b815260040161034890613c6b565b611200828989848181106111f457fe5b90506020020135613110565b9150896001600160a01b031663948d8ce684838151811061121d57fe5b60200260200101516040518263ffffffff1660e01b81526004016112419190613934565b60206040518083038186803b15801561125957600080fd5b505afa15801561126d573d6000803e3d6000fd5b505050506040513d601f19601f8201168201806040525081019061129191906138e2565b8960020182815481106112a057fe5b600091825260209091200155600101611166565b506802b5e3af16b18800008111156112de5760405162461bcd60e51b815260040161034890613b44565b84431180156112ec57508343105b156112f9574388556112fd565b8488555b60018801849055611312600389018888613468565b50505050505050505050565b600080856001600160a01b0316632f37b624866040518263ffffffff1660e01b815260040161134d9190613934565b60206040518083038186803b15801561136557600080fd5b505afa158015611379573d6000803e3d6000fd5b505050506040513d601f19601f8201168201806040525081019061139d9190613628565b6113b95760405162461bcd60e51b815260040161034890613cc4565b60405163f8b2cb4f60e01b81526001600160a01b03871690638929801290829063f8b2cb4f906113ed908a90600401613934565b60206040518083038186803b15801561140557600080fd5b505afa158015611419573d6000803e3d6000fd5b505050506040513d601f19601f8201168201806040525081019061143d91906138e2565b604051634a46c67360e11b81526001600160a01b038a169063948d8ce690611469908b90600401613934565b60206040518083038186803b15801561148157600080fd5b505afa158015611495573d6000803e3d6000fd5b505050506040513d601f19601f820116820180604052508101906114b991906138e2565b8a6001600160a01b03166318160ddd6040518163ffffffff1660e01b815260040160206040518083038186803b1580156114f257600080fd5b505afa158015611506573d6000803e3d6000fd5b505050506040513d601f19601f8201168201806040525081019061152a91906138e2565b8a6001600160a01b031663936c34776040518163ffffffff1660e01b815260040160206040518083038186803b15801561156357600080fd5b505afa158015611577573d6000803e3d6000fd5b505050506040513d601f19601f8201168201806040525081019061159b91906138e2565b898c6001600160a01b031663d4cadf686040518163ffffffff1660e01b815260040160206040518083038186803b1580156115d557600080fd5b505afa1580156115e9573d6000803e3d6000fd5b505050506040513d601f19601f8201168201806040525081019061160d91906138e2565b6040518763ffffffff1660e01b815260040161162e96959493929190613ee2565b60206040518083038186803b15801561164657600080fd5b505afa15801561165a573d6000803e3d6000fd5b505050506040513d601f19601f8201168201806040525081019061167e91906138e2565b9050828110156116a05760405162461bcd60e51b815260040161034890613ba0565b60405163f8b2cb4f60e01b815261172e906001600160a01b0388169063f8b2cb4f906116d0908990600401613934565b60206040518083038186803b1580156116e857600080fd5b505afa1580156116fc573d6000803e3d6000fd5b505050506040513d601f19601f8201168201806040525081019061172091906138e2565b6704a03ce68d21555661313c565b81111561174d5760405162461bcd60e51b815260040161034890613c99565b61175884600061313c565b91509550959350505050565b604051630bcded8960e21b81526000906001600160a01b03861690632f37b62490611793908790600401613934565b60206040518083038186803b1580156117ab57600080fd5b505afa1580156117bf573d6000803e3d6000fd5b505050506040513d601f19601f820116820180604052508101906117e39190613628565b6117ff5760405162461bcd60e51b815260040161034890613cc4565b60405163f8b2cb4f60e01b815261188d906001600160a01b0387169063f8b2cb4f9061182f908890600401613934565b60206040518083038186803b15801561184757600080fd5b505afa15801561185b573d6000803e3d6000fd5b505050506040513d601f19601f8201168201806040525081019061187f91906138e2565b6706f05b59d3b2000061313c565b8311156118ac5760405162461bcd60e51b815260040161034890613ac9565b60405163f8b2cb4f60e01b81526001600160a01b03861690638656b65390829063f8b2cb4f906118e0908990600401613934565b60206040518083038186803b1580156118f857600080fd5b505afa15801561190c573d6000803e3d6000fd5b505050506040513d601f19601f8201168201806040525081019061193091906138e2565b604051634a46c67360e11b81526001600160a01b0389169063948d8ce69061195c908a90600401613934565b60206040518083038186803b15801561197457600080fd5b505afa158015611988573d6000803e3d6000fd5b505050506040513d601f19601f820116820180604052508101906119ac91906138e2565b896001600160a01b03166318160ddd6040518163ffffffff1660e01b815260040160206040518083038186803b1580156119e557600080fd5b505afa1580156119f9573d6000803e3d6000fd5b505050506040513d601f19601f82011682018060405250810190611a1d91906138e2565b896001600160a01b031663936c34776040518163ffffffff1660e01b815260040160206040518083038186803b158015611a5657600080fd5b505afa158015611a6a573d6000803e3d6000fd5b505050506040513d601f19601f82011682018060405250810190611a8e91906138e2565b888b6001600160a01b031663d4cadf686040518163ffffffff1660e01b815260040160206040518083038186803b158015611ac857600080fd5b505afa158015611adc573d6000803e3d6000fd5b505050506040513d601f19601f82011682018060405250810190611b0091906138e2565b6040518763ffffffff1660e01b8152600401611b2196959493929190613ee2565b60206040518083038186803b158015611b3957600080fd5b505afa158015611b4d573d6000803e3d6000fd5b505050506040513d601f19601f82011682018060405250810190611b7191906138e2565b905081811015611b935760405162461bcd60e51b815260040161034890613ba0565b95945050505050565b600080856001600160a01b0316632f37b624866040518263ffffffff1660e01b8152600401611bcb9190613934565b60206040518083038186803b158015611be357600080fd5b505afa158015611bf7573d6000803e3d6000fd5b505050506040513d601f19601f82011682018060405250810190611c1b9190613628565b611c375760405162461bcd60e51b815260040161034890613cc4565b60405163f8b2cb4f60e01b8152611c67906001600160a01b0388169063f8b2cb4f906116d0908990600401613934565b841115611c865760405162461bcd60e51b815260040161034890613c99565b60405163f8b2cb4f60e01b81526001600160a01b038716906382f652ad90829063f8b2cb4f90611cba908a90600401613934565b60206040518083038186803b158015611cd257600080fd5b505afa158015611ce6573d6000803e3d6000fd5b505050506040513d601f19601f82011682018060405250810190611d0a91906138e2565b604051634a46c67360e11b81526001600160a01b038a169063948d8ce690611d36908b90600401613934565b60206040518083038186803b158015611d4e57600080fd5b505afa158015611d62573d6000803e3d6000fd5b505050506040513d601f19601f82011682018060405250810190611d8691906138e2565b8a6001600160a01b03166318160ddd6040518163ffffffff1660e01b815260040160206040518083038186803b158015611dbf57600080fd5b505afa158015611dd3573d6000803e3d6000fd5b505050506040513d601f19601f82011682018060405250810190611df791906138e2565b8a6001600160a01b031663936c34776040518163ffffffff1660e01b815260040160206040518083038186803b158015611e3057600080fd5b505afa158015611e44573d6000803e3d6000fd5b505050506040513d601f19601f82011682018060405250810190611e6891906138e2565b898c6001600160a01b031663d4cadf686040518163ffffffff1660e01b815260040160206040518083038186803b158015611ea257600080fd5b505afa158015611eb6573d6000803e3d6000fd5b505050506040513d601f19601f82011682018060405250810190611eda91906138e2565b6040518763ffffffff1660e01b8152600401611efb96959493929190613ee2565b60206040518083038186803b158015611f1357600080fd5b505afa158015611f27573d6000803e3d6000fd5b505050506040513d601f19601f82011682018060405250810190611f4b91906138e2565b905080611f6a5760405162461bcd60e51b815260040161034890613af3565b82811115611f8a5760405162461bcd60e51b815260040161034890613c45565b61175881600061313c565b60005b81811015611fd157611fc9838383818110611faf57fe5b9050602002016020810190611fc49190613505565b6131b2565b600101611f98565b505050565b604051630bcded8960e21b81526001600160a01b03861690632f37b62490612002908790600401613934565b60206040518083038186803b15801561201a57600080fd5b505afa15801561202e573d6000803e3d6000fd5b505050506040513d601f19601f820116820180604052508101906120529190613628565b1561206f5760405162461bcd60e51b815260040161034890613aa3565b6802b5e3af16b18800008211156120985760405162461bcd60e51b815260040161034890613d13565b670de0b6b3a76400008210156120c05760405162461bcd60e51b815260040161034890613c6b565b670de0b6b3a7640000603202612146866001600160a01b031663936c34776040518163ffffffff1660e01b815260040160206040518083038186803b15801561210857600080fd5b505afa15801561211c573d6000803e3d6000fd5b505050506040513d601f19601f8201168201806040525081019061214091906138e2565b84613110565b11156121645760405162461bcd60e51b815260040161034890613b44565b64e8d4a510008310156121895760405162461bcd60e51b815260040161034890613dff565b805460038201939093556002810191909155436001820155600160a01b6001600160a01b03199092166001600160a01b03939093169290921760ff60a01b191617905550565b604051630bcded8960e21b81526000906001600160a01b03861690632f37b624906121fe908790600401613934565b60206040518083038186803b15801561221657600080fd5b505afa15801561222a573d6000803e3d6000fd5b505050506040513d601f19601f8201168201806040525081019061224e9190613628565b61226a5760405162461bcd60e51b815260040161034890613cc4565b60405163f8b2cb4f60e01b81526001600160a01b03861690635c1bbaf790829063f8b2cb4f9061229e908990600401613934565b60206040518083038186803b1580156122b657600080fd5b505afa1580156122ca573d6000803e3d6000fd5b505050506040513d601f19601f820116820180604052508101906122ee91906138e2565b604051634a46c67360e11b81526001600160a01b0389169063948d8ce69061231a908a90600401613934565b60206040518083038186803b15801561233257600080fd5b505afa158015612346573d6000803e3d6000fd5b505050506040513d601f19601f8201168201806040525081019061236a91906138e2565b896001600160a01b03166318160ddd6040518163ffffffff1660e01b815260040160206040518083038186803b1580156123a357600080fd5b505afa1580156123b7573d6000803e3d6000fd5b505050506040513d601f19601f820116820180604052508101906123db91906138e2565b896001600160a01b031663936c34776040518163ffffffff1660e01b815260040160206040518083038186803b15801561241457600080fd5b505afa158015612428573d6000803e3d6000fd5b505050506040513d601f19601f8201168201806040525081019061244c91906138e2565b888b6001600160a01b031663d4cadf686040518163ffffffff1660e01b815260040160206040518083038186803b15801561248657600080fd5b505afa15801561249a573d6000803e3d6000fd5b505050506040513d601f19601f820116820180604052508101906124be91906138e2565b6040518763ffffffff1660e01b81526004016124df96959493929190613ee2565b60206040518083038186803b1580156124f757600080fd5b505afa15801561250b573d6000803e3d6000fd5b505050506040513d601f19601f8201168201806040525081019061252f91906138e2565b90508061254e5760405162461bcd60e51b815260040161034890613af3565b8181111561256e5760405162461bcd60e51b815260040161034890613c45565b60405163f8b2cb4f60e01b815261259e906001600160a01b0387169063f8b2cb4f9061182f908890600401613934565b811115611b935760405162461bcd60e51b815260040161034890613ac9565b6000836001600160a01b03166318160ddd6040518163ffffffff1660e01b815260040160206040518083038186803b1580156125f857600080fd5b505afa15801561260c573d6000803e3d6000fd5b505050506040513d601f19601f8201168201806040525081019061263091906138e2565b905060006126f06126b783866001600160a01b031663948d8ce6876040518263ffffffff1660e01b81526004016126679190613934565b60206040518083038186803b15801561267f57600080fd5b505afa158015612693573d6000803e3d6000fd5b505050506040513d601f19601f820116820180604052508101906104f591906138e2565b856001600160a01b031663936c34776040518163ffffffff1660e01b815260040160206040518083038186803b15801561069d57600080fd5b90506000846001600160a01b031663f8b2cb4f856040518263ffffffff1660e01b81526004016127209190613934565b60206040518083038186803b15801561273857600080fd5b505afa15801561274c573d6000803e3d6000fd5b505050506040513d601f19601f8201168201806040525081019061277091906138e2565b60405163cf5e7bd360e01b81529091506001600160a01b0386169063cf5e7bd39061279f908790600401613934565b600060405180830381600087803b1580156127b957600080fd5b505af11580156127cd573d6000803e3d6000fd5b505050506000846001600160a01b031663a9059cbb886001600160a01b0316633018205f6040518163ffffffff1660e01b815260040160206040518083038186803b15801561281b57600080fd5b505afa15801561282f573d6000803e3d6000fd5b505050506040513d601f19601f820116820180604052508101906128539190613521565b846040518363ffffffff1660e01b815260040161287192919061396c565b602060405180830381600087803b15801561288b57600080fd5b505af115801561289f573d6000803e3d6000fd5b505050506040513d601f19601f820116820180604052508101906128c39190613628565b9050806128e25760405162461bcd60e51b815260040161034890613e2e565b866001600160a01b03166355c32a23886001600160a01b0316633018205f6040518163ffffffff1660e01b815260040160206040518083038186803b15801561292a57600080fd5b505afa15801561293e573d6000803e3d6000fd5b505050506040513d601f19601f820116820180604052508101906129629190613521565b856040518363ffffffff1660e01b815260040161298092919061396c565b600060405180830381600087803b15801561299a57600080fd5b505af11580156129ae573d6000803e3d6000fd5b505060405163011075bb60e51b81526001600160a01b038a16925063220eb7609150610931908690600401613eac565b80546129e957612d5c565b8054431015612a0a5760405162461bcd60e51b815260040161034890613bf0565b60008160010154431115612a2357506001810154612a26565b50435b6000612a3a83600101548460000154613039565b90506000612a4c838560000154613039565b905060008060006060886001600160a01b031663cc77828d6040518163ffffffff1660e01b815260040160006040518083038186803b158015612a8e57600080fd5b505afa158015612aa2573d6000803e3d6000fd5b505050506040513d6000823e601f3d908101601f19168201604052612aca919081019061357d565b905060005b8151811015612d4357886003018181548110612ae757fe5b9060005260206000200154896002018281548110612b0157fe5b906000526020600020015414612d3b57886002018181548110612b2057fe5b9060005260206000200154896003018281548110612b3a57fe5b90600052602060002001541015612bc857612b87896002018281548110612b5d57fe5b90600052602060002001548a6003018381548110612b7757fe5b9060005260206000200154613039565b9450612b938588613074565b9350612bc1896002018281548110612ba757fe5b9060005260206000200154612bbc888761313c565b613039565b9250612c31565b612bf4896003018281548110612bda57fe5b90600052602060002001548a6002018381548110612b7757fe5b9450612c008588613074565b9350612c2e896002018281548110612c1457fe5b9060005260206000200154612c29888761313c565b613110565b92505b60008a6001600160a01b031663f8b2cb4f848481518110612c4e57fe5b60200260200101516040518263ffffffff1660e01b8152600401612c729190613934565b60206040518083038186803b158015612c8a57600080fd5b505afa158015612c9e573d6000803e3d6000fd5b505050506040513d601f19601f82011682018060405250810190612cc291906138e2565b90508a6001600160a01b0316633fdddaa2848481518110612cdf57fe5b602002602001015183876040518463ffffffff1660e01b8152600401612d079392919061399f565b600060405180830381600087803b158015612d2157600080fd5b505af1158015612d35573d6000803e3d6000fd5b50505050505b600101612acf565b5087600101544310612d5457600088555b505050505050505b5050565b600080606080876001600160a01b031663cc77828d6040518163ffffffff1660e01b815260040160006040518083038186803b158015612d9f57600080fd5b505afa158015612db3573d6000803e3d6000fd5b505050506040513d6000823e601f3d908101601f19168201604052612ddb919081019061357d565b80519091508514612dfe5760405162461bcd60e51b815260040161034890613b72565b6000896001600160a01b03166318160ddd6040518163ffffffff1660e01b815260040160206040518083038186803b158015612e3957600080fd5b505afa158015612e4d573d6000803e3d6000fd5b505050506040513d601f19601f82011682018060405250810190612e7191906138e2565b9050612e7e88600061313c565b9450612e8a8886613039565b93506000612e9d856103d7846001613110565b905080612ebc5760405162461bcd60e51b815260040161034890613af3565b825167ffffffffffffffff81118015612ed457600080fd5b50604051908082528060200260200182016040528015612efe578160200160208202803683370190505b50935060005b835181101561302a576000848281518110612f1b57fe5b6020026020010151905060008c6001600160a01b031663f8b2cb4f836040518263ffffffff1660e01b8152600401612f539190613934565b60206040518083038186803b158015612f6b57600080fd5b505afa158015612f7f573d6000803e3d6000fd5b505050506040513d601f19601f82011682018060405250810190612fa391906138e2565b90506000612fb6856104f5846001613039565b905080612fd55760405162461bcd60e51b815260040161034890613af3565b8b8b85818110612fe157fe5b905060200201358110156130075760405162461bcd60e51b815260040161034890613ba0565b8088858151811061301457fe5b6020908102919091010152505050600101612f04565b50505050955095509592505050565b600080600061304885856133f8565b91509150801561306a5760405162461bcd60e51b815260040161034890613e57565b5090505b92915050565b6000816130935760405162461bcd60e51b815260040161034890613dd9565b826130a05750600061306e565b670de0b6b3a7640000838102908482816130b657fe5b04146130d45760405162461bcd60e51b815260040161034890613c1b565b600283048101818110156130fa5760405162461bcd60e51b815260040161034890613c1b565b600084828161310557fe5b049695505050505050565b6000828201838110156131355760405162461bcd60e51b815260040161034890613e82565b9392505050565b60008261314b5750600061306e565b8282028284828161315857fe5b04146131765760405162461bcd60e51b815260040161034890613d78565b6706f05b59d3b200008101818110156131a15760405162461bcd60e51b815260040161034890613d78565b6000670de0b6b3a764000082613105565b60405163a9059cbb60e01b81526000906001600160a01b0383169063a9059cbb906131e3903390859060040161396c565b602060405180830381600087803b1580156131fd57600080fd5b505af1158015613211573d6000803e3d6000fd5b505050506040513d601f19601f820116820180604052508101906132359190613628565b905080612d5c5760405162461bcd60e51b815260040161034890613da2565b600080846001600160a01b031663dd62ed3e30866040518363ffffffff1660e01b8152600401613285929190613985565b60206040518083038186803b15801561329d57600080fd5b505afa1580156132b1573d6000803e3d6000fd5b505050506040513d601f19601f820116820180604052508101906132d591906138e2565b9050828114156132e9576001915050613135565b80156133785760405163095ea7b360e01b81526001600160a01b0386169063095ea7b39061331e90879060009060040161396c565b602060405180830381600087803b15801561333857600080fd5b505af115801561334c573d6000803e3d6000fd5b505050506040513d601f19601f820116820180604052508101906133709190613628565b915050613135565b60405163095ea7b360e01b81526001600160a01b0386169063095ea7b3906133a6908790879060040161396c565b602060405180830381600087803b1580156133c057600080fd5b505af11580156133d4573d6000803e3d6000fd5b505050506040513d601f19601f82011682018060405250810190611b939190613628565b60008083831161340e5750508082036000613416565b505081810360015b9250929050565b828054828255906000526020600020908101928215613458579160200282015b8281111561345857825182559160200191906001019061343d565b506134649291506134a3565b5090565b828054828255906000526020600020908101928215613458579160200282015b82811115613458578235825591602001919060010190613488565b5b8082111561346457600081556001016134a4565b805161306e81613f31565b60008083601f8401126134d4578182fd5b50813567ffffffffffffffff8111156134eb578182fd5b602083019150836020808302850101111561341657600080fd5b600060208284031215613516578081fd5b813561313581613f31565b600060208284031215613532578081fd5b815161313581613f31565b6000806020838503121561354f578081fd5b823567ffffffffffffffff811115613565578182fd5b613571858286016134c3565b90969095509350505050565b6000602080838503121561358f578182fd5b825167ffffffffffffffff808211156135a6578384fd5b818501915085601f8301126135b9578384fd5b8151818111156135c7578485fd5b83810291506135d7848301613f0a565b8181528481019084860184860187018a10156135f1578788fd5b8795505b8386101561361b576136078a826134b8565b8352600195909501949186019186016135f5565b5098975050505050505050565b600060208284031215613639578081fd5b81518015158114613135578182fd5b60008060006060848603121561365c578081fd5b833561366781613f31565b9250602084013561367781613f31565b9150604084013561368781613f31565b809150509250925092565b600080600080608085870312156136a7578081fd5b84356136b281613f31565b935060208501356136c281613f31565b925060408501356136d281613f31565b9396929550929360600135925050565b600080600080600060a086880312156136f9578081fd5b853561370481613f31565b9450602086013561371481613f31565b9350604086013561372481613f31565b94979396509394606081013594506080013592915050565b600080600080600060808688031215613753578081fd5b853561375e81613f31565b9450602086013561376e81613f31565b935060408601359250606086013567ffffffffffffffff811115613790578182fd5b61379c888289016134c3565b969995985093965092949392505050565b600080600080608085870312156137c2578384fd5b84356137cd81613f31565b935060208501356137dd81613f31565b93969395505050506040820135916060013590565b600080600080600060a08688031215613809578283fd5b853561381481613f31565b9450602086013561382481613f31565b94979496505050506040830135926060810135926080909101359150565b60008060408385031215613854578182fd5b823561385f81613f31565b946020939093013593505050565b600080600080600080600060c0888a031215613887578485fd5b873561389281613f31565b965060208801359550604088013567ffffffffffffffff8111156138b4578586fd5b6138c08a828b016134c3565b989b979a50986060810135976080820135975060a09091013595509350505050565b6000602082840312156138f3578081fd5b5051919050565b6000815180845260208085019450808401835b838110156139295781518752958201959082019060010161390d565b509495945050505050565b6001600160a01b0391909116815260200190565b6001600160a01b039384168152919092166020820152604081019190915260600190565b6001600160a01b03929092168252602082015260400190565b6001600160a01b0392831681529116602082015260400190565b6001600160a01b039390931683526020830191909152604082015260600190565b60006020825261313560208301846138fa565b60208082526013908201527211549497d393d7d513d2d15397d0d3d3535255606a1b604082015260600190565b6020808252601e908201527f4552525f4752414455414c5f5550444154455f54494d455f54524156454c0000604082015260600190565b6020808252818101527f4552525f5745494748545f4348414e47455f54494d455f42454c4f575f4d494e604082015260600190565b6020808252601a908201527f4552525f53544152545f574549474854535f4d49534d41544348000000000000604082015260600190565b6020808252600c908201526b11549497d254d7d093d5539160a21b604082015260600190565b60208082526010908201526f4552525f4d41585f494e5f524154494f60801b604082015260600190565b6020808252600f908201526e08aa4a4be9a82a890be82a0a0a49eb608b1b604082015260600190565b6020808252600e908201526d11549497d3505617d5d15251d21560921b604082015260600190565b60208082526014908201527311549497d3505617d513d5105317d5d15251d21560621b604082015260600190565b60208082526014908201527308aa4a4be829a9eaa9ca8a6be9a92a69a82a886960631b604082015260600190565b6020808252600d908201526c11549497d31253525517d3d555609a1b604082015260600190565b6020808252600f908201526e4552525f4d494e5f42414c414e434560881b604082015260600190565b60208082526011908201527011549497d0d0539517d413d2d157d65155607a1b604082015260600190565b60208082526010908201526f11549497d1125597d25395115493905360821b604082015260600190565b6020808252600c908201526b22a9292fa624a6a4aa2fa4a760a11b604082015260600190565b60208082526014908201527322a9292faba2a4a3a42a2fa122a627abafa6a4a760611b604082015260600190565b6020808252601190820152704552525f4d41585f4f55545f524154494f60781b604082015260600190565b6020808252600d908201526c11549497d393d517d093d55391609a1b604082015260600190565b6020808252600e908201526d11549497d3525397d5d15251d21560921b604082015260600190565b60208082526014908201527308aa4a4beae8a928e90a8be82849eac8abe9a82b60631b604082015260600190565b6020808252601b908201527f4552525f54494d454c4f434b5f5354494c4c5f434f554e54494e470000000000604082015260600190565b60208082526010908201526f4552525f4d554c5f4f564552464c4f5760801b604082015260600190565b60208082526017908201527f4552525f4e4f4e434f4e464f524d494e475f544f4b454e000000000000000000604082015260600190565b6020808252600c908201526b4552525f4449565f5a45524f60a01b604082015260600190565b60208082526015908201527422a9292fa120a620a721a2afa122a627abafa6a4a760591b604082015260600190565b6020808252600f908201526e4552525f45524332305f46414c534560881b604082015260600190565b6020808252601190820152704552525f5355425f554e444552464c4f5760781b604082015260600190565b60208082526010908201526f4552525f4144445f4f564552464c4f5760801b604082015260600190565b90815260200190565b918252602082015260400190565b600084825283602083015260606040830152611b9360608301846138fa565b958652602086019490945260408501929092526060840152608083015260a082015260c00190565b60405181810167ffffffffffffffff81118282101715613f2957600080fd5b604052919050565b6001600160a01b038116811461058457600080fdfea2646970667358221220843d9bdf10b07245a7c5acabd76d6e3321f8109008b38e9f6b45a99e90ca9a5e64736f6c634300060c0033",
  "immutableReferences": {},
  "source": "// SPDX-License-Identifier: GPL-3.0-or-later\npragma solidity 0.6.12;\n\n// Needed to pass in structs\npragma experimental ABIEncoderV2;\n\n// Imports\n\nimport \"../interfaces/IERC20.sol\";\nimport \"../contracts/ConfigurableRightsPool.sol\";\nimport \"../contracts/IBFactory.sol\";\nimport \"./BalancerConstants.sol\";\nimport \"./BalancerSafeMath.sol\";\nimport \"./SafeApprove.sol\";\n\n\n/**\n * @author Balancer Labs\n * @title Factor out the weight updates\n */\nlibrary SmartPoolManager {\n    // Type declarations\n\n    struct NewTokenParams {\n        address addr;\n        bool isCommitted;\n        uint commitBlock;\n        uint denorm;\n        uint balance;\n    }\n\n    // updateWeight and pokeWeights are unavoidably long\n    /* solhint-disable function-max-lines */\n\n    /**\n     * @notice Update the weight of an existing token\n     * @dev Refactored to library to make CRPFactory deployable\n     * @param self - ConfigurableRightsPool instance calling the library\n     * @param bPool - Core BPool the CRP is wrapping\n     * @param token - token to be reweighted\n     * @param newWeight - new weight of the token\n    */\n    function updateWeight(\n        ConfigurableRightsPool self,\n        IBPool bPool,\n        address token,\n        uint newWeight\n    )\n        external\n    {\n        require(newWeight >= BalancerConstants.MIN_WEIGHT, \"ERR_MIN_WEIGHT\");\n        require(newWeight <= BalancerConstants.MAX_WEIGHT, \"ERR_MAX_WEIGHT\");\n\n        uint currentWeight = bPool.getDenormalizedWeight(token);\n        // Save gas; return immediately on NOOP\n        if (currentWeight == newWeight) {\n             return;\n        }\n\n        uint currentBalance = bPool.getBalance(token);\n        uint totalSupply = self.totalSupply();\n        uint totalWeight = bPool.getTotalDenormalizedWeight();\n        uint poolShares;\n        uint deltaBalance;\n        uint deltaWeight;\n        uint newBalance;\n\n        if (newWeight < currentWeight) {\n            // This means the controller will withdraw tokens to keep price\n            // So they need to redeem PCTokens\n            deltaWeight = BalancerSafeMath.bsub(currentWeight, newWeight);\n\n            // poolShares = totalSupply * (deltaWeight / totalWeight)\n            poolShares = BalancerSafeMath.bmul(totalSupply,\n                                               BalancerSafeMath.bdiv(deltaWeight, totalWeight));\n\n            // deltaBalance = currentBalance * (deltaWeight / currentWeight)\n            deltaBalance = BalancerSafeMath.bmul(currentBalance,\n                                                 BalancerSafeMath.bdiv(deltaWeight, currentWeight));\n\n            // New balance cannot be lower than MIN_BALANCE\n            newBalance = BalancerSafeMath.bsub(currentBalance, deltaBalance);\n\n            require(newBalance >= BalancerConstants.MIN_BALANCE, \"ERR_MIN_BALANCE\");\n\n            // First get the tokens from this contract (Pool Controller) to msg.sender\n            bPool.rebind(token, newBalance, newWeight);\n\n            // Now with the tokens this contract can send them to msg.sender\n            bool xfer = IERC20(token).transfer(msg.sender, deltaBalance);\n            require(xfer, \"ERR_ERC20_FALSE\");\n\n            self.pullPoolShareFromLib(msg.sender, poolShares);\n            self.burnPoolShareFromLib(poolShares);\n        }\n        else {\n            // This means the controller will deposit tokens to keep the price.\n            // They will be minted and given PCTokens\n            deltaWeight = BalancerSafeMath.bsub(newWeight, currentWeight);\n\n            require(BalancerSafeMath.badd(totalWeight, deltaWeight) <= BalancerConstants.MAX_TOTAL_WEIGHT,\n                    \"ERR_MAX_TOTAL_WEIGHT\");\n\n            // poolShares = totalSupply * (deltaWeight / totalWeight)\n            poolShares = BalancerSafeMath.bmul(totalSupply,\n                                               BalancerSafeMath.bdiv(deltaWeight, totalWeight));\n            // deltaBalance = currentBalance * (deltaWeight / currentWeight)\n            deltaBalance = BalancerSafeMath.bmul(currentBalance,\n                                                 BalancerSafeMath.bdiv(deltaWeight, currentWeight));\n\n            // First gets the tokens from msg.sender to this contract (Pool Controller)\n            bool xfer = IERC20(token).transferFrom(msg.sender, address(this), deltaBalance);\n            require(xfer, \"ERR_ERC20_FALSE\");\n\n            // Now with the tokens this contract can bind them to the pool it controls\n            bPool.rebind(token, BalancerSafeMath.badd(currentBalance, deltaBalance), newWeight);\n\n            self.mintPoolShareFromLib(poolShares);\n            self.pushPoolShareFromLib(msg.sender, poolShares);\n        }\n    }\n\n    /**\n     * @notice External function called to make the contract update weights according to plan\n     * @param bPool - Core BPool the CRP is wrapping\n     * @param gradualUpdate - gradual update parameters from the CRP\n    */\n    function pokeWeights(\n        IBPool bPool,\n        ConfigurableRightsPool.GradualUpdateParams storage gradualUpdate\n    )\n        external\n    {\n        // Do nothing if we call this when there is no update plan\n        if (gradualUpdate.startBlock == 0) {\n            return;\n        }\n\n        // Error to call it before the start of the plan\n        require(block.number >= gradualUpdate.startBlock, \"ERR_CANT_POKE_YET\");\n        // Proposed error message improvement\n        // require(block.number >= startBlock, \"ERR_NO_HOKEY_POKEY\");\n\n        // This allows for pokes after endBlock that get weights to endWeights\n        // Get the current block (or the endBlock, if we're already past the end)\n        uint currentBlock;\n        if (block.number > gradualUpdate.endBlock) {\n            currentBlock = gradualUpdate.endBlock;\n        }\n        else {\n            currentBlock = block.number;\n        }\n\n        uint blockPeriod = BalancerSafeMath.bsub(gradualUpdate.endBlock, gradualUpdate.startBlock);\n        uint blocksElapsed = BalancerSafeMath.bsub(currentBlock, gradualUpdate.startBlock);\n        uint weightDelta;\n        uint deltaPerBlock;\n        uint newWeight;\n\n        address[] memory tokens = bPool.getCurrentTokens();\n\n        // This loop contains external calls\n        // External calls are to math libraries or the underlying pool, so low risk\n        for (uint i = 0; i < tokens.length; i++) {\n            // Make sure it does nothing if the new and old weights are the same (saves gas)\n            // It's a degenerate case if they're *all* the same, but you certainly could have\n            // a plan where you only change some of the weights in the set\n            if (gradualUpdate.startWeights[i] != gradualUpdate.endWeights[i]) {\n                if (gradualUpdate.endWeights[i] < gradualUpdate.startWeights[i]) {\n                    // We are decreasing the weight\n\n                    // First get the total weight delta\n                    weightDelta = BalancerSafeMath.bsub(gradualUpdate.startWeights[i],\n                                                        gradualUpdate.endWeights[i]);\n                    // And the amount it should change per block = total change/number of blocks in the period\n                    deltaPerBlock = BalancerSafeMath.bdiv(weightDelta, blockPeriod);\n                    //deltaPerBlock = bdivx(weightDelta, blockPeriod);\n\n                     // newWeight = startWeight - (blocksElapsed * deltaPerBlock)\n                    newWeight = BalancerSafeMath.bsub(gradualUpdate.startWeights[i],\n                                                      BalancerSafeMath.bmul(blocksElapsed, deltaPerBlock));\n                }\n                else {\n                    // We are increasing the weight\n\n                    // First get the total weight delta\n                    weightDelta = BalancerSafeMath.bsub(gradualUpdate.endWeights[i],\n                                                        gradualUpdate.startWeights[i]);\n                    // And the amount it should change per block = total change/number of blocks in the period\n                    deltaPerBlock = BalancerSafeMath.bdiv(weightDelta, blockPeriod);\n                    //deltaPerBlock = bdivx(weightDelta, blockPeriod);\n\n                     // newWeight = startWeight + (blocksElapsed * deltaPerBlock)\n                    newWeight = BalancerSafeMath.badd(gradualUpdate.startWeights[i],\n                                                      BalancerSafeMath.bmul(blocksElapsed, deltaPerBlock));\n                }\n\n                uint bal = bPool.getBalance(tokens[i]);\n\n                bPool.rebind(tokens[i], bal, newWeight);\n            }\n        }\n\n        // Reset to allow add/remove tokens, or manual weight updates\n        if (block.number >= gradualUpdate.endBlock) {\n            gradualUpdate.startBlock = 0;\n        }\n    }\n\n    /* solhint-enable function-max-lines */\n\n    /**\n     * @notice Schedule (commit) a token to be added; must call applyAddToken after a fixed\n     *         number of blocks to actually add the token\n     * @param bPool - Core BPool the CRP is wrapping\n     * @param token - the token to be added\n     * @param balance - how much to be added\n     * @param denormalizedWeight - the desired token weight\n     * @param newToken - NewTokenParams struct used to hold the token data (in CRP storage)\n     */\n    function commitAddToken(\n        IBPool bPool,\n        address token,\n        uint balance,\n        uint denormalizedWeight,\n        NewTokenParams storage newToken\n    )\n        external\n    {\n        require(!bPool.isBound(token), \"ERR_IS_BOUND\");\n\n        require(denormalizedWeight <= BalancerConstants.MAX_WEIGHT, \"ERR_WEIGHT_ABOVE_MAX\");\n        require(denormalizedWeight >= BalancerConstants.MIN_WEIGHT, \"ERR_WEIGHT_BELOW_MIN\");\n        require(BalancerSafeMath.badd(bPool.getTotalDenormalizedWeight(),\n                                      denormalizedWeight) <= BalancerConstants.MAX_TOTAL_WEIGHT,\n                \"ERR_MAX_TOTAL_WEIGHT\");\n        require(balance >= BalancerConstants.MIN_BALANCE, \"ERR_BALANCE_BELOW_MIN\");\n\n        newToken.addr = token;\n        newToken.balance = balance;\n        newToken.denorm = denormalizedWeight;\n        newToken.commitBlock = block.number;\n        newToken.isCommitted = true;\n    }\n\n    /**\n     * @notice Add the token previously committed (in commitAddToken) to the pool\n     * @param self - ConfigurableRightsPool instance calling the library\n     * @param bPool - Core BPool the CRP is wrapping\n     * @param addTokenTimeLockInBlocks -  Wait time between committing and applying a new token\n     * @param newToken - NewTokenParams struct used to hold the token data (in CRP storage)\n     */\n    function applyAddToken(\n        ConfigurableRightsPool self,\n        IBPool bPool,\n        uint addTokenTimeLockInBlocks,\n        NewTokenParams storage newToken\n    )\n        external\n    {\n        require(newToken.isCommitted, \"ERR_NO_TOKEN_COMMIT\");\n        require(BalancerSafeMath.bsub(block.number, newToken.commitBlock) >= addTokenTimeLockInBlocks,\n                                      \"ERR_TIMELOCK_STILL_COUNTING\");\n\n        uint totalSupply = self.totalSupply();\n\n        // poolShares = totalSupply * newTokenWeight / totalWeight\n        uint poolShares = BalancerSafeMath.bdiv(BalancerSafeMath.bmul(totalSupply, newToken.denorm),\n                                                bPool.getTotalDenormalizedWeight());\n\n        // Clear this to allow adding more tokens\n        newToken.isCommitted = false;\n\n        // First gets the tokens from msg.sender to this contract (Pool Controller)\n        bool returnValue = IERC20(newToken.addr).transferFrom(self.getController(), address(self), newToken.balance);\n        require(returnValue, \"ERR_ERC20_FALSE\");\n\n        // Now with the tokens this contract can bind them to the pool it controls\n        // Approves bPool to pull from this controller\n        // Approve unlimited, same as when creating the pool, so they can join pools later\n        returnValue = SafeApprove.safeApprove(IERC20(newToken.addr), address(bPool), BalancerConstants.MAX_UINT);\n        require(returnValue, \"ERR_ERC20_FALSE\");\n\n        bPool.bind(newToken.addr, newToken.balance, newToken.denorm);\n\n        self.mintPoolShareFromLib(poolShares);\n        self.pushPoolShareFromLib(msg.sender, poolShares);\n    }\n\n     /**\n     * @notice Remove a token from the pool\n     * @dev Logic in the CRP controls when ths can be called. There are two related permissions:\n     *      AddRemoveTokens - which allows removing down to the underlying BPool limit of two\n     *      RemoveAllTokens - which allows completely draining the pool by removing all tokens\n     *                        This can result in a non-viable pool with 0 or 1 tokens (by design),\n     *                        meaning all swapping or binding operations would fail in this state\n     * @param self - ConfigurableRightsPool instance calling the library\n     * @param bPool - Core BPool the CRP is wrapping\n     * @param token - token to remove\n     */\n    function removeToken(\n        ConfigurableRightsPool self,\n        IBPool bPool,\n        address token\n    )\n        external\n    {\n        uint totalSupply = self.totalSupply();\n\n        // poolShares = totalSupply * tokenWeight / totalWeight\n        uint poolShares = BalancerSafeMath.bdiv(BalancerSafeMath.bmul(totalSupply,\n                                                                      bPool.getDenormalizedWeight(token)),\n                                                bPool.getTotalDenormalizedWeight());\n\n        // this is what will be unbound from the pool\n        // Have to get it before unbinding\n        uint balance = bPool.getBalance(token);\n\n        // Unbind and get the tokens out of balancer pool\n        bPool.unbind(token);\n\n        // Now with the tokens this contract can send them to msg.sender\n        bool xfer = IERC20(token).transfer(self.getController(), balance);\n        require(xfer, \"ERR_ERC20_FALSE\");\n\n        self.pullPoolShareFromLib(self.getController(), poolShares);\n        self.burnPoolShareFromLib(poolShares);\n    }\n\n    /**\n     * @notice Non ERC20-conforming tokens are problematic; don't allow them in pools\n     * @dev Will revert if invalid\n     * @param token - The prospective token to verify\n     */\n    function verifyTokenCompliance(address token) external {\n        verifyTokenComplianceInternal(token);\n    }\n\n    /**\n     * @notice Non ERC20-conforming tokens are problematic; don't allow them in pools\n     * @dev Will revert if invalid - overloaded to save space in the main contract\n     * @param tokens - The prospective tokens to verify\n     */\n    function verifyTokenCompliance(address[] calldata tokens) external {\n        for (uint i = 0; i < tokens.length; i++) {\n            verifyTokenComplianceInternal(tokens[i]);\n         }\n    }\n\n    /**\n     * @notice Update weights in a predetermined way, between startBlock and endBlock,\n     *         through external cals to pokeWeights\n     * @param bPool - Core BPool the CRP is wrapping\n     * @param newWeights - final weights we want to get to\n     * @param startBlock - when weights should start to change\n     * @param endBlock - when weights will be at their final values\n     * @param minimumWeightChangeBlockPeriod - needed to validate the block period\n    */\n    function updateWeightsGradually(\n        IBPool bPool,\n        ConfigurableRightsPool.GradualUpdateParams storage gradualUpdate,\n        uint[] calldata newWeights,\n        uint startBlock,\n        uint endBlock,\n        uint minimumWeightChangeBlockPeriod\n    )\n        external\n    {\n        // Enforce a minimum time over which to make the changes\n        // The also prevents endBlock <= startBlock\n        require(BalancerSafeMath.bsub(endBlock, startBlock) >= minimumWeightChangeBlockPeriod,\n                \"ERR_WEIGHT_CHANGE_TIME_BELOW_MIN\");\n        require(block.number < endBlock, \"ERR_GRADUAL_UPDATE_TIME_TRAVEL\");\n\n        address[] memory tokens = bPool.getCurrentTokens();\n\n        // Must specify weights for all tokens\n        require(newWeights.length == tokens.length, \"ERR_START_WEIGHTS_MISMATCH\");\n\n        uint weightsSum = 0;\n        gradualUpdate.startWeights = new uint[](tokens.length);\n\n        // Check that endWeights are valid now to avoid reverting in a future pokeWeights call\n        //\n        // This loop contains external calls\n        // External calls are to math libraries or the underlying pool, so low risk\n        for (uint i = 0; i < tokens.length; i++) {\n            require(newWeights[i] <= BalancerConstants.MAX_WEIGHT, \"ERR_WEIGHT_ABOVE_MAX\");\n            require(newWeights[i] >= BalancerConstants.MIN_WEIGHT, \"ERR_WEIGHT_BELOW_MIN\");\n\n            weightsSum = BalancerSafeMath.badd(weightsSum, newWeights[i]);\n            gradualUpdate.startWeights[i] = bPool.getDenormalizedWeight(tokens[i]);\n        }\n        require(weightsSum <= BalancerConstants.MAX_TOTAL_WEIGHT, \"ERR_MAX_TOTAL_WEIGHT\");\n\n        if (block.number > startBlock && block.number < endBlock) {\n            // This means the weight update should start ASAP\n            // Moving the start block up prevents a big jump/discontinuity in the weights\n            //\n            // Only valid within the startBlock - endBlock period!\n            // Should not happen, but defensively check that we aren't\n            // setting the start point past the end point\n            gradualUpdate.startBlock = block.number;\n        }\n        else{\n            gradualUpdate.startBlock = startBlock;\n        }\n\n        gradualUpdate.endBlock = endBlock;\n        gradualUpdate.endWeights = newWeights;\n    }\n\n    /**\n     * @notice Join a pool\n     * @param self - ConfigurableRightsPool instance calling the library\n     * @param bPool - Core BPool the CRP is wrapping\n     * @param poolAmountOut - number of pool tokens to receive\n     * @param maxAmountsIn - Max amount of asset tokens to spend\n     * @return actualAmountsIn - calculated values of the tokens to pull in\n     */\n    function joinPool(\n        ConfigurableRightsPool self,\n        IBPool bPool,\n        uint poolAmountOut,\n        uint[] calldata maxAmountsIn\n    )\n         external\n         view\n         returns (uint[] memory actualAmountsIn)\n    {\n        address[] memory tokens = bPool.getCurrentTokens();\n\n        require(maxAmountsIn.length == tokens.length, \"ERR_AMOUNTS_MISMATCH\");\n\n        uint poolTotal = self.totalSupply();\n        // Subtract  1 to ensure any rounding errors favor the pool\n        uint ratio = BalancerSafeMath.bdiv(poolAmountOut,\n                                           BalancerSafeMath.bsub(poolTotal, 1));\n\n        require(ratio != 0, \"ERR_MATH_APPROX\");\n\n        // We know the length of the array; initialize it, and fill it below\n        // Cannot do \"push\" in memory\n        actualAmountsIn = new uint[](tokens.length);\n\n        // This loop contains external calls\n        // External calls are to math libraries or the underlying pool, so low risk\n        for (uint i = 0; i < tokens.length; i++) {\n            address t = tokens[i];\n            uint bal = bPool.getBalance(t);\n            // Add 1 to ensure any rounding errors favor the pool\n            uint tokenAmountIn = BalancerSafeMath.bmul(ratio,\n                                                       BalancerSafeMath.badd(bal, 1));\n\n            require(tokenAmountIn != 0, \"ERR_MATH_APPROX\");\n            require(tokenAmountIn <= maxAmountsIn[i], \"ERR_LIMIT_IN\");\n\n            actualAmountsIn[i] = tokenAmountIn;\n        }\n    }\n\n    /**\n     * @notice Exit a pool - redeem pool tokens for underlying assets\n     * @param self - ConfigurableRightsPool instance calling the library\n     * @param bPool - Core BPool the CRP is wrapping\n     * @param poolAmountIn - amount of pool tokens to redeem\n     * @param minAmountsOut - minimum amount of asset tokens to receive\n     * @return exitFee - calculated exit fee\n     * @return pAiAfterExitFee - final amount in (after accounting for exit fee)\n     * @return actualAmountsOut - calculated amounts of each token to pull\n     */\n    function exitPool(\n        ConfigurableRightsPool self,\n        IBPool bPool,\n        uint poolAmountIn,\n        uint[] calldata minAmountsOut\n    )\n        external\n        view\n        returns (uint exitFee, uint pAiAfterExitFee, uint[] memory actualAmountsOut)\n    {\n        address[] memory tokens = bPool.getCurrentTokens();\n\n        require(minAmountsOut.length == tokens.length, \"ERR_AMOUNTS_MISMATCH\");\n\n        uint poolTotal = self.totalSupply();\n\n        // Calculate exit fee and the final amount in\n        exitFee = BalancerSafeMath.bmul(poolAmountIn, BalancerConstants.EXIT_FEE);\n        pAiAfterExitFee = BalancerSafeMath.bsub(poolAmountIn, exitFee);\n\n        uint ratio = BalancerSafeMath.bdiv(pAiAfterExitFee,\n                                           BalancerSafeMath.badd(poolTotal, 1));\n\n        require(ratio != 0, \"ERR_MATH_APPROX\");\n\n        actualAmountsOut = new uint[](tokens.length);\n\n        // This loop contains external calls\n        // External calls are to math libraries or the underlying pool, so low risk\n        for (uint i = 0; i < tokens.length; i++) {\n            address t = tokens[i];\n            uint bal = bPool.getBalance(t);\n            // Subtract 1 to ensure any rounding errors favor the pool\n            uint tokenAmountOut = BalancerSafeMath.bmul(ratio,\n                                                        BalancerSafeMath.bsub(bal, 1));\n\n            require(tokenAmountOut != 0, \"ERR_MATH_APPROX\");\n            require(tokenAmountOut >= minAmountsOut[i], \"ERR_LIMIT_OUT\");\n\n            actualAmountsOut[i] = tokenAmountOut;\n        }\n    }\n\n    /**\n     * @notice Join by swapping a fixed amount of an external token in (must be present in the pool)\n     *         System calculates the pool token amount\n     * @param self - ConfigurableRightsPool instance calling the library\n     * @param bPool - Core BPool the CRP is wrapping\n     * @param tokenIn - which token we're transferring in\n     * @param tokenAmountIn - amount of deposit\n     * @param minPoolAmountOut - minimum of pool tokens to receive\n     * @return poolAmountOut - amount of pool tokens minted and transferred\n     */\n    function joinswapExternAmountIn(\n        ConfigurableRightsPool self,\n        IBPool bPool,\n        address tokenIn,\n        uint tokenAmountIn,\n        uint minPoolAmountOut\n    )\n        external\n        view\n        returns (uint poolAmountOut)\n    {\n        require(bPool.isBound(tokenIn), \"ERR_NOT_BOUND\");\n        require(tokenAmountIn <= BalancerSafeMath.bmul(bPool.getBalance(tokenIn),\n                                                       BalancerConstants.MAX_IN_RATIO),\n                                                       \"ERR_MAX_IN_RATIO\");\n\n        poolAmountOut = bPool.calcPoolOutGivenSingleIn(\n                            bPool.getBalance(tokenIn),\n                            bPool.getDenormalizedWeight(tokenIn),\n                            self.totalSupply(),\n                            bPool.getTotalDenormalizedWeight(),\n                            tokenAmountIn,\n                            bPool.getSwapFee()\n                        );\n\n        require(poolAmountOut >= minPoolAmountOut, \"ERR_LIMIT_OUT\");\n    }\n\n    /**\n     * @notice Join by swapping an external token in (must be present in the pool)\n     *         To receive an exact amount of pool tokens out. System calculates the deposit amount\n     * @param self - ConfigurableRightsPool instance calling the library\n     * @param bPool - Core BPool the CRP is wrapping\n     * @param tokenIn - which token we're transferring in (system calculates amount required)\n     * @param poolAmountOut - amount of pool tokens to be received\n     * @param maxAmountIn - Maximum asset tokens that can be pulled to pay for the pool tokens\n     * @return tokenAmountIn - amount of asset tokens transferred in to purchase the pool tokens\n     */\n    function joinswapPoolAmountOut(\n        ConfigurableRightsPool self,\n        IBPool bPool,\n        address tokenIn,\n        uint poolAmountOut,\n        uint maxAmountIn\n    )\n        external\n        view\n        returns (uint tokenAmountIn)\n    {\n        require(bPool.isBound(tokenIn), \"ERR_NOT_BOUND\");\n\n        tokenAmountIn = bPool.calcSingleInGivenPoolOut(\n                            bPool.getBalance(tokenIn),\n                            bPool.getDenormalizedWeight(tokenIn),\n                            self.totalSupply(),\n                            bPool.getTotalDenormalizedWeight(),\n                            poolAmountOut,\n                            bPool.getSwapFee()\n                        );\n\n        require(tokenAmountIn != 0, \"ERR_MATH_APPROX\");\n        require(tokenAmountIn <= maxAmountIn, \"ERR_LIMIT_IN\");\n\n        require(tokenAmountIn <= BalancerSafeMath.bmul(bPool.getBalance(tokenIn),\n                                                       BalancerConstants.MAX_IN_RATIO),\n                                                       \"ERR_MAX_IN_RATIO\");\n    }\n\n    /**\n     * @notice Exit a pool - redeem a specific number of pool tokens for an underlying asset\n     *         Asset must be present in the pool, and will incur an EXIT_FEE (if set to non-zero)\n     * @param self - ConfigurableRightsPool instance calling the library\n     * @param bPool - Core BPool the CRP is wrapping\n     * @param tokenOut - which token the caller wants to receive\n     * @param poolAmountIn - amount of pool tokens to redeem\n     * @param minAmountOut - minimum asset tokens to receive\n     * @return exitFee - calculated exit fee\n     * @return tokenAmountOut - amount of asset tokens returned\n     */\n    function exitswapPoolAmountIn(\n        ConfigurableRightsPool self,\n        IBPool bPool,\n        address tokenOut,\n        uint poolAmountIn,\n        uint minAmountOut\n    )\n        external\n        view\n        returns (uint exitFee, uint tokenAmountOut)\n    {\n        require(bPool.isBound(tokenOut), \"ERR_NOT_BOUND\");\n\n        tokenAmountOut = bPool.calcSingleOutGivenPoolIn(\n                            bPool.getBalance(tokenOut),\n                            bPool.getDenormalizedWeight(tokenOut),\n                            self.totalSupply(),\n                            bPool.getTotalDenormalizedWeight(),\n                            poolAmountIn,\n                            bPool.getSwapFee()\n                        );\n\n        require(tokenAmountOut >= minAmountOut, \"ERR_LIMIT_OUT\");\n        require(tokenAmountOut <= BalancerSafeMath.bmul(bPool.getBalance(tokenOut),\n                                                        BalancerConstants.MAX_OUT_RATIO),\n                                                        \"ERR_MAX_OUT_RATIO\");\n\n        exitFee = BalancerSafeMath.bmul(poolAmountIn, BalancerConstants.EXIT_FEE);\n    }\n\n    /**\n     * @notice Exit a pool - redeem pool tokens for a specific amount of underlying assets\n     *         Asset must be present in the pool\n     * @param self - ConfigurableRightsPool instance calling the library\n     * @param bPool - Core BPool the CRP is wrapping\n     * @param tokenOut - which token the caller wants to receive\n     * @param tokenAmountOut - amount of underlying asset tokens to receive\n     * @param maxPoolAmountIn - maximum pool tokens to be redeemed\n     * @return exitFee - calculated exit fee\n     * @return poolAmountIn - amount of pool tokens redeemed\n     */\n    function exitswapExternAmountOut(\n        ConfigurableRightsPool self,\n        IBPool bPool,\n        address tokenOut,\n        uint tokenAmountOut,\n        uint maxPoolAmountIn\n    )\n        external\n        view\n        returns (uint exitFee, uint poolAmountIn)\n    {\n        require(bPool.isBound(tokenOut), \"ERR_NOT_BOUND\");\n        require(tokenAmountOut <= BalancerSafeMath.bmul(bPool.getBalance(tokenOut),\n                                                        BalancerConstants.MAX_OUT_RATIO),\n                                                        \"ERR_MAX_OUT_RATIO\");\n        poolAmountIn = bPool.calcPoolInGivenSingleOut(\n                            bPool.getBalance(tokenOut),\n                            bPool.getDenormalizedWeight(tokenOut),\n                            self.totalSupply(),\n                            bPool.getTotalDenormalizedWeight(),\n                            tokenAmountOut,\n                            bPool.getSwapFee()\n                        );\n\n        require(poolAmountIn != 0, \"ERR_MATH_APPROX\");\n        require(poolAmountIn <= maxPoolAmountIn, \"ERR_LIMIT_IN\");\n\n        exitFee = BalancerSafeMath.bmul(poolAmountIn, BalancerConstants.EXIT_FEE);\n    }\n\n    // Internal functions\n\n    // Check for zero transfer, and make sure it returns true to returnValue\n    function verifyTokenComplianceInternal(address token) internal {\n        bool returnValue = IERC20(token).transfer(msg.sender, 0);\n        require(returnValue, \"ERR_NONCONFORMING_TOKEN\");\n    }\n}\n",
  "sourcePath": "/Users/arseny/Projects/primeDAO/configurable-rights-pool/libraries/SmartPoolManager.sol",
  "compiler": {
    "name": "solc",
    "version": "0.6.12+commit.27d51765.Emscripten.clang"
  },
  "schemaVersion": "3.2.4",
  "updatedAt": "2020-09-25T13:57:57.221Z",
  "networkType": "ethereum",
  "devdoc": {
    "author": "Balancer Labs",
    "kind": "dev",
    "methods": {
      "applyAddToken(ConfigurableRightsPool,IBPool,uint256,SmartPoolManager.NewTokenParams storage)": {
        "params": {
          "addTokenTimeLockInBlocks": "-  Wait time between committing and applying a new token",
          "bPool": "- Core BPool the CRP is wrapping",
          "newToken": "- NewTokenParams struct used to hold the token data (in CRP storage)",
          "self": "- ConfigurableRightsPool instance calling the library"
        }
      },
      "commitAddToken(IBPool,address,uint256,uint256,SmartPoolManager.NewTokenParams storage)": {
        "params": {
          "bPool": "- Core BPool the CRP is wrapping",
          "balance": "- how much to be added",
          "denormalizedWeight": "- the desired token weight",
          "newToken": "- NewTokenParams struct used to hold the token data (in CRP storage)",
          "token": "- the token to be added"
        }
      },
      "exitPool(ConfigurableRightsPool,IBPool,uint256,uint256[])": {
        "params": {
          "bPool": "- Core BPool the CRP is wrapping",
          "minAmountsOut": "- minimum amount of asset tokens to receive",
          "poolAmountIn": "- amount of pool tokens to redeem",
          "self": "- ConfigurableRightsPool instance calling the library"
        },
        "returns": {
          "actualAmountsOut": "- calculated amounts of each token to pull",
          "exitFee": "- calculated exit fee",
          "pAiAfterExitFee": "- final amount in (after accounting for exit fee)"
        }
      },
      "exitswapExternAmountOut(ConfigurableRightsPool,IBPool,address,uint256,uint256)": {
        "params": {
          "bPool": "- Core BPool the CRP is wrapping",
          "maxPoolAmountIn": "- maximum pool tokens to be redeemed",
          "self": "- ConfigurableRightsPool instance calling the library",
          "tokenAmountOut": "- amount of underlying asset tokens to receive",
          "tokenOut": "- which token the caller wants to receive"
        },
        "returns": {
          "exitFee": "- calculated exit fee",
          "poolAmountIn": "- amount of pool tokens redeemed"
        }
      },
      "exitswapPoolAmountIn(ConfigurableRightsPool,IBPool,address,uint256,uint256)": {
        "params": {
          "bPool": "- Core BPool the CRP is wrapping",
          "minAmountOut": "- minimum asset tokens to receive",
          "poolAmountIn": "- amount of pool tokens to redeem",
          "self": "- ConfigurableRightsPool instance calling the library",
          "tokenOut": "- which token the caller wants to receive"
        },
        "returns": {
          "exitFee": "- calculated exit fee",
          "tokenAmountOut": "- amount of asset tokens returned"
        }
      },
      "joinPool(ConfigurableRightsPool,IBPool,uint256,uint256[])": {
        "params": {
          "bPool": "- Core BPool the CRP is wrapping",
          "maxAmountsIn": "- Max amount of asset tokens to spend",
          "poolAmountOut": "- number of pool tokens to receive",
          "self": "- ConfigurableRightsPool instance calling the library"
        },
        "returns": {
          "actualAmountsIn": "- calculated values of the tokens to pull in"
        }
      },
      "joinswapExternAmountIn(ConfigurableRightsPool,IBPool,address,uint256,uint256)": {
        "params": {
          "bPool": "- Core BPool the CRP is wrapping",
          "minPoolAmountOut": "- minimum of pool tokens to receive",
          "self": "- ConfigurableRightsPool instance calling the library",
          "tokenAmountIn": "- amount of deposit",
          "tokenIn": "- which token we're transferring in"
        },
        "returns": {
          "poolAmountOut": "- amount of pool tokens minted and transferred"
        }
      },
      "joinswapPoolAmountOut(ConfigurableRightsPool,IBPool,address,uint256,uint256)": {
        "params": {
          "bPool": "- Core BPool the CRP is wrapping",
          "maxAmountIn": "- Maximum asset tokens that can be pulled to pay for the pool tokens",
          "poolAmountOut": "- amount of pool tokens to be received",
          "self": "- ConfigurableRightsPool instance calling the library",
          "tokenIn": "- which token we're transferring in (system calculates amount required)"
        },
        "returns": {
          "tokenAmountIn": "- amount of asset tokens transferred in to purchase the pool tokens"
        }
      },
      "pokeWeights(IBPool,ConfigurableRightsPool.GradualUpdateParams storage)": {
        "params": {
          "bPool": "- Core BPool the CRP is wrapping",
          "gradualUpdate": "- gradual update parameters from the CRP"
        }
      },
      "removeToken(ConfigurableRightsPool,IBPool,address)": {
        "details": "Logic in the CRP controls when ths can be called. There are two related permissions:      AddRemoveTokens - which allows removing down to the underlying BPool limit of two      RemoveAllTokens - which allows completely draining the pool by removing all tokens                        This can result in a non-viable pool with 0 or 1 tokens (by design),                        meaning all swapping or binding operations would fail in this state",
        "params": {
          "bPool": "- Core BPool the CRP is wrapping",
          "self": "- ConfigurableRightsPool instance calling the library",
          "token": "- token to remove"
        }
      },
      "updateWeight(ConfigurableRightsPool,IBPool,address,uint256)": {
        "details": "Refactored to library to make CRPFactory deployable",
        "params": {
          "bPool": "- Core BPool the CRP is wrapping",
          "newWeight": "- new weight of the token",
          "self": "- ConfigurableRightsPool instance calling the library",
          "token": "- token to be reweighted"
        }
      },
      "updateWeightsGradually(IBPool,ConfigurableRightsPool.GradualUpdateParams storage,uint256[],uint256,uint256,uint256)": {
        "params": {
          "bPool": "- Core BPool the CRP is wrapping",
          "endBlock": "- when weights will be at their final values",
          "minimumWeightChangeBlockPeriod": "- needed to validate the block period",
          "newWeights": "- final weights we want to get to",
          "startBlock": "- when weights should start to change"
        }
      },
      "verifyTokenCompliance(address)": {
        "details": "Will revert if invalid",
        "params": {
          "token": "- The prospective token to verify"
        }
      },
      "verifyTokenCompliance(address[])": {
        "details": "Will revert if invalid - overloaded to save space in the main contract",
        "params": {
          "tokens": "- The prospective tokens to verify"
        }
      }
    },
    "title": "Factor out the weight updates",
    "version": 1
  },
  "userdoc": {
    "kind": "user",
    "methods": {
      "applyAddToken(ConfigurableRightsPool,IBPool,uint256,SmartPoolManager.NewTokenParams storage)": {
        "notice": "Add the token previously committed (in commitAddToken) to the pool"
      },
      "commitAddToken(IBPool,address,uint256,uint256,SmartPoolManager.NewTokenParams storage)": {
        "notice": "Schedule (commit) a token to be added; must call applyAddToken after a fixed         number of blocks to actually add the token"
      },
      "exitPool(ConfigurableRightsPool,IBPool,uint256,uint256[])": {
        "notice": "Exit a pool - redeem pool tokens for underlying assets"
      },
      "exitswapExternAmountOut(ConfigurableRightsPool,IBPool,address,uint256,uint256)": {
        "notice": "Exit a pool - redeem pool tokens for a specific amount of underlying assets         Asset must be present in the pool"
      },
      "exitswapPoolAmountIn(ConfigurableRightsPool,IBPool,address,uint256,uint256)": {
        "notice": "Exit a pool - redeem a specific number of pool tokens for an underlying asset         Asset must be present in the pool, and will incur an EXIT_FEE (if set to non-zero)"
      },
      "joinPool(ConfigurableRightsPool,IBPool,uint256,uint256[])": {
        "notice": "Join a pool"
      },
      "joinswapExternAmountIn(ConfigurableRightsPool,IBPool,address,uint256,uint256)": {
        "notice": "Join by swapping a fixed amount of an external token in (must be present in the pool)         System calculates the pool token amount"
      },
      "joinswapPoolAmountOut(ConfigurableRightsPool,IBPool,address,uint256,uint256)": {
        "notice": "Join by swapping an external token in (must be present in the pool)         To receive an exact amount of pool tokens out. System calculates the deposit amount"
      },
      "pokeWeights(IBPool,ConfigurableRightsPool.GradualUpdateParams storage)": {
        "notice": "External function called to make the contract update weights according to plan"
      },
      "removeToken(ConfigurableRightsPool,IBPool,address)": {
        "notice": "Remove a token from the pool"
      },
      "updateWeight(ConfigurableRightsPool,IBPool,address,uint256)": {
        "notice": "Update the weight of an existing token"
      },
      "updateWeightsGradually(IBPool,ConfigurableRightsPool.GradualUpdateParams storage,uint256[],uint256,uint256,uint256)": {
        "notice": "Update weights in a predetermined way, between startBlock and endBlock,         through external cals to pokeWeights"
      },
      "verifyTokenCompliance(address)": {
        "notice": "Non ERC20-conforming tokens are problematic; don't allow them in pools"
      },
      "verifyTokenCompliance(address[])": {
        "notice": "Non ERC20-conforming tokens are problematic; don't allow them in pools"
      }
    },
    "version": 1
  }
}