{
  "contractName": "SmartPoolManager",
  "abi": [
    {
      "inputs": [
        {
          "internalType": "contract ConfigurableRightsPool",
          "name": "self",
          "type": "ConfigurableRightsPool"
        },
        {
          "internalType": "contract IBPool",
          "name": "bPool",
          "type": "IBPool"
        },
        {
          "internalType": "uint256",
          "name": "poolAmountOut",
          "type": "uint256"
        },
        {
          "internalType": "uint256[]",
          "name": "maxAmountsIn",
          "type": "uint256[]"
        }
      ],
      "name": "joinPool",
      "outputs": [
        {
          "internalType": "uint256[]",
          "name": "actualAmountsIn",
          "type": "uint256[]"
        }
      ],
      "stateMutability": "view",
      "type": "function"
    },
    {
      "inputs": [
        {
          "internalType": "contract ConfigurableRightsPool",
          "name": "self",
          "type": "ConfigurableRightsPool"
        },
        {
          "internalType": "contract IBPool",
          "name": "bPool",
          "type": "IBPool"
        },
        {
          "internalType": "uint256",
          "name": "poolAmountIn",
          "type": "uint256"
        },
        {
          "internalType": "uint256[]",
          "name": "minAmountsOut",
          "type": "uint256[]"
        }
      ],
      "name": "exitPool",
      "outputs": [
        {
          "internalType": "uint256",
          "name": "exitFee",
          "type": "uint256"
        },
        {
          "internalType": "uint256",
          "name": "pAiAfterExitFee",
          "type": "uint256"
        },
        {
          "internalType": "uint256[]",
          "name": "actualAmountsOut",
          "type": "uint256[]"
        }
      ],
      "stateMutability": "view",
      "type": "function"
    },
    {
      "inputs": [
        {
          "internalType": "contract ConfigurableRightsPool",
          "name": "self",
          "type": "ConfigurableRightsPool"
        },
        {
          "internalType": "contract IBPool",
          "name": "bPool",
          "type": "IBPool"
        },
        {
          "internalType": "address",
          "name": "tokenIn",
          "type": "address"
        },
        {
          "internalType": "uint256",
          "name": "tokenAmountIn",
          "type": "uint256"
        },
        {
          "internalType": "uint256",
          "name": "minPoolAmountOut",
          "type": "uint256"
        }
      ],
      "name": "joinswapExternAmountIn",
      "outputs": [
        {
          "internalType": "uint256",
          "name": "poolAmountOut",
          "type": "uint256"
        }
      ],
      "stateMutability": "view",
      "type": "function"
    },
    {
      "inputs": [
        {
          "internalType": "contract ConfigurableRightsPool",
          "name": "self",
          "type": "ConfigurableRightsPool"
        },
        {
          "internalType": "contract IBPool",
          "name": "bPool",
          "type": "IBPool"
        },
        {
          "internalType": "address",
          "name": "tokenIn",
          "type": "address"
        },
        {
          "internalType": "uint256",
          "name": "poolAmountOut",
          "type": "uint256"
        },
        {
          "internalType": "uint256",
          "name": "maxAmountIn",
          "type": "uint256"
        }
      ],
      "name": "joinswapPoolAmountOut",
      "outputs": [
        {
          "internalType": "uint256",
          "name": "tokenAmountIn",
          "type": "uint256"
        }
      ],
      "stateMutability": "view",
      "type": "function"
    },
    {
      "inputs": [
        {
          "internalType": "contract ConfigurableRightsPool",
          "name": "self",
          "type": "ConfigurableRightsPool"
        },
        {
          "internalType": "contract IBPool",
          "name": "bPool",
          "type": "IBPool"
        },
        {
          "internalType": "address",
          "name": "tokenOut",
          "type": "address"
        },
        {
          "internalType": "uint256",
          "name": "poolAmountIn",
          "type": "uint256"
        },
        {
          "internalType": "uint256",
          "name": "minAmountOut",
          "type": "uint256"
        }
      ],
      "name": "exitswapPoolAmountIn",
      "outputs": [
        {
          "internalType": "uint256",
          "name": "exitFee",
          "type": "uint256"
        },
        {
          "internalType": "uint256",
          "name": "tokenAmountOut",
          "type": "uint256"
        }
      ],
      "stateMutability": "view",
      "type": "function"
    },
    {
      "inputs": [
        {
          "internalType": "contract ConfigurableRightsPool",
          "name": "self",
          "type": "ConfigurableRightsPool"
        },
        {
          "internalType": "contract IBPool",
          "name": "bPool",
          "type": "IBPool"
        },
        {
          "internalType": "address",
          "name": "tokenOut",
          "type": "address"
        },
        {
          "internalType": "uint256",
          "name": "tokenAmountOut",
          "type": "uint256"
        },
        {
          "internalType": "uint256",
          "name": "maxPoolAmountIn",
          "type": "uint256"
        }
      ],
      "name": "exitswapExternAmountOut",
      "outputs": [
        {
          "internalType": "uint256",
          "name": "exitFee",
          "type": "uint256"
        },
        {
          "internalType": "uint256",
          "name": "poolAmountIn",
          "type": "uint256"
        }
      ],
      "stateMutability": "view",
      "type": "function"
    }
  ],
  "bytecode": "0x613b68610026600b82828239805160001a60731461001957fe5b30600052607381538281f3fe73000000000000000000000000000000000000000030146080604052600436106100be5760003560e01c80636f50bd5d1161007b5780636f50bd5d146101905780637386a324146101b057806388d5c4d4146101c3578063c8ebc9ab146101e3578063cfc31209146101f6578063e8eb237614610216576100be565b8063040de828146100c35780631135eba0146100e55780631403f9ec1461010e5780631fe7d5641461012f57806344ec7c681461014f57806368c3dd2a1461016f575b600080fd5b8180156100cf57600080fd5b506100e36100de36600461349f565b610238565b005b6100f86100f3366004613324565b610560565b60405161010591906135f6565b60405180910390f35b61012161011c36600461342a565b610811565b604051610105929190613a7d565b81801561013b57600080fd5b506100e361014a3660046133da565b610aee565b81801561015b57600080fd5b506100e361016a36600461327a565b610cc2565b61018261017d3660046132ca565b6113b2565b604051610105929190613a9e565b6101a361019e3660046132ca565b6117f8565b6040516101059190613a74565b6101826101be3660046132ca565b611c30565b8180156101cf57600080fd5b506100e36101de366004613395565b612029565b6101a36101f13660046132ca565b612480565b81801561020257600080fd5b506100e3610211366004613230565b61286e565b610229610224366004613324565b612c8f565b60405161010593929190613aac565b8561024257610557565b8543101561026b5760405162461bcd60e51b8152600401610262906137ef565b60405180910390fd5b60008543111561027c57508461027f565b50435b600061028b8789612f5e565b90506000610299838a612f5e565b9050600080600060608d6001600160a01b031663cc77828d6040518163ffffffff1660e01b815260040160006040518083038186803b1580156102db57600080fd5b505afa1580156102ef573d6000803e3d6000fd5b505050506040513d6000823e601f3d908101601f191682016040526103179190810190613165565b905060005b815181101561054e5789898281811061033157fe5b905060200201358c8c8381811061034457fe5b9050602002013514610546578b8b8281811061035c57fe5b905060200201358a8a8381811061036f57fe5b9050602002013510156103e4576103aa8c8c8381811061038b57fe5b905060200201358b8b8481811061039e57fe5b90506020020135612f5e565b94506103b68588612f99565b93506103dd8c8c838181106103c757fe5b905060200201356103d88887613035565b612f5e565b925061043c565b6104068a8a838181106103f357fe5b905060200201358d8d8481811061039e57fe5b94506104128588612f99565b93506104398c8c8381811061042357fe5b905060200201356104348887613035565b6130ab565b92505b60008f6001600160a01b031663f8b2cb4f84848151811061045957fe5b60200260200101516040518263ffffffff1660e01b815260040161047d9190613584565b60206040518083038186803b15801561049557600080fd5b505afa1580156104a9573d6000803e3d6000fd5b505050506040513d601f19601f820116820180604052508101906104cd9190613532565b90508f6001600160a01b0316633fdddaa28484815181106104ea57fe5b602002602001015183876040518463ffffffff1660e01b8152600401610512939291906135d5565b600060405180830381600087803b15801561052c57600080fd5b505af1158015610540573d6000803e3d6000fd5b50505050505b60010161031c565b50505050505050505b50505050505050565b606080856001600160a01b031663cc77828d6040518163ffffffff1660e01b815260040160006040518083038186803b15801561059c57600080fd5b505afa1580156105b0573d6000803e3d6000fd5b505050506040513d6000823e601f3d908101601f191682016040526105d89190810190613165565b805190915083146105fb5760405162461bcd60e51b815260040161026290613771565b6000876001600160a01b03166318160ddd6040518163ffffffff1660e01b815260040160206040518083038186803b15801561063657600080fd5b505afa15801561064a573d6000803e3d6000fd5b505050506040513d601f19601f8201168201806040525081019061066e9190613532565b9050600061067c8783612f99565b90508061069b5760405162461bcd60e51b8152600401610262906136f2565b825167ffffffffffffffff811180156106b357600080fd5b506040519080825280602002602001820160405280156106dd578160200160208202803683370190505b50935060005b83518110156108045760008482815181106106fa57fe5b6020026020010151905060008a6001600160a01b031663f8b2cb4f836040518263ffffffff1660e01b81526004016107329190613584565b60206040518083038186803b15801561074a57600080fd5b505afa15801561075e573d6000803e3d6000fd5b505050506040513d601f19601f820116820180604052508101906107829190613532565b905060006107908583613035565b9050806107af5760405162461bcd60e51b8152600401610262906136f2565b8989858181106107bb57fe5b905060200201358111156107e15760405162461bcd60e51b815260040161026290613844565b808885815181106107ee57fe5b60209081029190910101525050506001016106e3565b5050505095945050505050565b8554600090606090600160a01b900460ff16156108405760405162461bcd60e51b8152600401610262906139c7565b8261084b8587612f5e565b10156108695760405162461bcd60e51b81526004016102629061366d565b8343106108885760405162461bcd60e51b815260040161026290613636565b6060896001600160a01b031663cc77828d6040518163ffffffff1660e01b815260040160006040518083038186803b1580156108c357600080fd5b505afa1580156108d7573d6000803e3d6000fd5b505050506040513d6000823e601f3d908101601f191682016040526108ff9190810190613165565b805190915060009067ffffffffffffffff8111801561091d57600080fd5b50604051908082528060200260200182016040528015610947578160200160208202803683370190505b50925060005b8251811015610a97576802b5e3af16b18800008a8a8381811061096c57fe5b9050602002013511156109915760405162461bcd60e51b815260040161026290613912565b670de0b6b3a76400008a8a838181106109a657fe5b9050602002013510156109cb5760405162461bcd60e51b81526004016102629061386a565b6109e7828b8b848181106109db57fe5b905060200201356130ab565b91508b6001600160a01b031663948d8ce6848381518110610a0457fe5b60200260200101516040518263ffffffff1660e01b8152600401610a289190613584565b60206040518083038186803b158015610a4057600080fd5b505afa158015610a54573d6000803e3d6000fd5b505050506040513d601f19601f82011682018060405250810190610a789190613532565b848281518110610a8457fe5b602090810291909101015260010161094d565b506802b5e3af16b1880000811115610ac15760405162461bcd60e51b815260040161026290613743565b8643118015610acf57508543105b15610adc57439350610ae0565b8693505b505097509795505050505050565b604051630bcded8960e21b81526001600160a01b03861690632f37b62490610b1a908790600401613584565b60206040518083038186803b158015610b3257600080fd5b505afa158015610b46573d6000803e3d6000fd5b505050506040513d601f19601f82011682018060405250810190610b6a9190613210565b15610b875760405162461bcd60e51b8152600401610262906136a2565b6802b5e3af16b1880000821115610bb05760405162461bcd60e51b815260040161026290613912565b670de0b6b3a7640000821015610bd85760405162461bcd60e51b81526004016102629061386a565b670de0b6b3a7640000603202610c5e866001600160a01b031663936c34776040518163ffffffff1660e01b815260040160206040518083038186803b158015610c2057600080fd5b505afa158015610c34573d6000803e3d6000fd5b505050506040513d601f19601f82011682018060405250810190610c589190613532565b846130ab565b1115610c7c5760405162461bcd60e51b815260040161026290613743565b805460038201939093556002810191909155436001820155600160a01b6001600160a01b03199092166001600160a01b03939093169290921760ff60a01b191617905550565b670de0b6b3a7640000811015610cea5760405162461bcd60e51b8152600401610262906138ea565b6802b5e3af16b1880000811115610d135760405162461bcd60e51b81526004016102629061371b565b604051634a46c67360e11b81526000906001600160a01b0385169063948d8ce690610d42908690600401613584565b60206040518083038186803b158015610d5a57600080fd5b505afa158015610d6e573d6000803e3d6000fd5b505050506040513d601f19601f82011682018060405250810190610d929190613532565b905081811415610da257506113ac565b60405163f8b2cb4f60e01b81526000906001600160a01b0386169063f8b2cb4f90610dd1908790600401613584565b60206040518083038186803b158015610de957600080fd5b505afa158015610dfd573d6000803e3d6000fd5b505050506040513d601f19601f82011682018060405250810190610e219190613532565b90506000866001600160a01b03166318160ddd6040518163ffffffff1660e01b815260040160206040518083038186803b158015610e5e57600080fd5b505afa158015610e72573d6000803e3d6000fd5b505050506040513d601f19601f82011682018060405250810190610e969190613532565b90506000866001600160a01b031663936c34776040518163ffffffff1660e01b815260040160206040518083038186803b158015610ed357600080fd5b505afa158015610ee7573d6000803e3d6000fd5b505050506040513d601f19601f82011682018060405250810190610f0b9190613532565b90506000806000808789101561117757610f25888a612f5e565b91506802b5e3af16b1880000610f3b86846130ab565b1115610f595760405162461bcd60e51b815260040161026290613743565b610f6c86610f678488612f99565b613035565b9350610f7c87610f67848b612f99565b9250610f888784612f5e565b905064e8d4a51000811015610faf5760405162461bcd60e51b8152600401610262906137c6565b604051631feeed5160e11b81526001600160a01b038c1690633fdddaa290610fdf908d9085908e906004016135d5565b600060405180830381600087803b158015610ff957600080fd5b505af115801561100d573d6000803e3d6000fd5b505060405163a9059cbb60e01b8152600092506001600160a01b038d16915063a9059cbb9061104290339088906004016135bc565b602060405180830381600087803b15801561105c57600080fd5b505af1158015611070573d6000803e3d6000fd5b505050506040513d601f19601f820116820180604052508101906110949190613210565b9050806110b35760405162461bcd60e51b8152600401610262906139f6565b6040516355c32a2360e01b81526001600160a01b038e16906355c32a23906110e190339089906004016135bc565b600060405180830381600087803b1580156110fb57600080fd5b505af115801561110f573d6000803e3d6000fd5b505050508c6001600160a01b031663220eb760866040518263ffffffff1660e01b815260040161113f9190613a74565b600060405180830381600087803b15801561115957600080fd5b505af115801561116d573d6000803e3d6000fd5b50505050506113a3565b6111818989612f5e565b91506802b5e3af16b188000061119786846130ab565b11156111b55760405162461bcd60e51b815260040161026290613743565b6111c386610f678488612f99565b93506111d387610f67848b612f99565b925060008a6001600160a01b03166323b872dd3330876040518463ffffffff1660e01b815260040161120793929190613598565b602060405180830381600087803b15801561122157600080fd5b505af1158015611235573d6000803e3d6000fd5b505050506040513d601f19601f820116820180604052508101906112599190613210565b9050806112785760405162461bcd60e51b8152600401610262906139f6565b8b6001600160a01b0316633fdddaa28c6112928b886130ab565b8d6040518463ffffffff1660e01b81526004016112b1939291906135d5565b600060405180830381600087803b1580156112cb57600080fd5b505af11580156112df573d6000803e3d6000fd5b505050508c6001600160a01b0316634ba57882866040518263ffffffff1660e01b815260040161130f9190613a74565b600060405180830381600087803b15801561132957600080fd5b505af115801561133d573d6000803e3d6000fd5b505050508c6001600160a01b031663095dcccc33876040518363ffffffff1660e01b815260040161136f9291906135bc565b600060405180830381600087803b15801561138957600080fd5b505af115801561139d573d6000803e3d6000fd5b50505050505b50505050505050505b50505050565b600080856001600160a01b0316632f37b624866040518263ffffffff1660e01b81526004016113e19190613584565b60206040518083038186803b1580156113f957600080fd5b505afa15801561140d573d6000803e3d6000fd5b505050506040513d601f19601f820116820180604052508101906114319190613210565b61144d5760405162461bcd60e51b8152600401610262906138c3565b60405163f8b2cb4f60e01b81526001600160a01b03871690638929801290829063f8b2cb4f90611481908a90600401613584565b60206040518083038186803b15801561149957600080fd5b505afa1580156114ad573d6000803e3d6000fd5b505050506040513d601f19601f820116820180604052508101906114d19190613532565b604051634a46c67360e11b81526001600160a01b038a169063948d8ce6906114fd908b90600401613584565b60206040518083038186803b15801561151557600080fd5b505afa158015611529573d6000803e3d6000fd5b505050506040513d601f19601f8201168201806040525081019061154d9190613532565b8a6001600160a01b03166318160ddd6040518163ffffffff1660e01b815260040160206040518083038186803b15801561158657600080fd5b505afa15801561159a573d6000803e3d6000fd5b505050506040513d601f19601f820116820180604052508101906115be9190613532565b8a6001600160a01b031663936c34776040518163ffffffff1660e01b815260040160206040518083038186803b1580156115f757600080fd5b505afa15801561160b573d6000803e3d6000fd5b505050506040513d601f19601f8201168201806040525081019061162f9190613532565b898c6001600160a01b031663d4cadf686040518163ffffffff1660e01b815260040160206040518083038186803b15801561166957600080fd5b505afa15801561167d573d6000803e3d6000fd5b505050506040513d601f19601f820116820180604052508101906116a19190613532565b6040518763ffffffff1660e01b81526004016116c296959493929190613acb565b60206040518083038186803b1580156116da57600080fd5b505afa1580156116ee573d6000803e3d6000fd5b505050506040513d601f19601f820116820180604052508101906117129190613532565b9050828110156117345760405162461bcd60e51b81526004016102629061379f565b60405163f8b2cb4f60e01b81526117c2906001600160a01b0388169063f8b2cb4f90611764908990600401613584565b60206040518083038186803b15801561177c57600080fd5b505afa158015611790573d6000803e3d6000fd5b505050506040513d601f19601f820116820180604052508101906117b49190613532565b6704a03ce68d215556613035565b8111156117e15760405162461bcd60e51b815260040161026290613898565b6117ec846000613035565b91509550959350505050565b604051630bcded8960e21b81526000906001600160a01b03861690632f37b62490611827908790600401613584565b60206040518083038186803b15801561183f57600080fd5b505afa158015611853573d6000803e3d6000fd5b505050506040513d601f19601f820116820180604052508101906118779190613210565b6118935760405162461bcd60e51b8152600401610262906138c3565b60405163f8b2cb4f60e01b8152611921906001600160a01b0387169063f8b2cb4f906118c3908890600401613584565b60206040518083038186803b1580156118db57600080fd5b505afa1580156118ef573d6000803e3d6000fd5b505050506040513d601f19601f820116820180604052508101906119139190613532565b6706f05b59d3b20000613035565b8311156119405760405162461bcd60e51b8152600401610262906136c8565b60405163f8b2cb4f60e01b81526001600160a01b03861690638656b65390829063f8b2cb4f90611974908990600401613584565b60206040518083038186803b15801561198c57600080fd5b505afa1580156119a0573d6000803e3d6000fd5b505050506040513d601f19601f820116820180604052508101906119c49190613532565b604051634a46c67360e11b81526001600160a01b0389169063948d8ce6906119f0908a90600401613584565b60206040518083038186803b158015611a0857600080fd5b505afa158015611a1c573d6000803e3d6000fd5b505050506040513d601f19601f82011682018060405250810190611a409190613532565b896001600160a01b03166318160ddd6040518163ffffffff1660e01b815260040160206040518083038186803b158015611a7957600080fd5b505afa158015611a8d573d6000803e3d6000fd5b505050506040513d601f19601f82011682018060405250810190611ab19190613532565b896001600160a01b031663936c34776040518163ffffffff1660e01b815260040160206040518083038186803b158015611aea57600080fd5b505afa158015611afe573d6000803e3d6000fd5b505050506040513d601f19601f82011682018060405250810190611b229190613532565b888b6001600160a01b031663d4cadf686040518163ffffffff1660e01b815260040160206040518083038186803b158015611b5c57600080fd5b505afa158015611b70573d6000803e3d6000fd5b505050506040513d601f19601f82011682018060405250810190611b949190613532565b6040518763ffffffff1660e01b8152600401611bb596959493929190613acb565b60206040518083038186803b158015611bcd57600080fd5b505afa158015611be1573d6000803e3d6000fd5b505050506040513d601f19601f82011682018060405250810190611c059190613532565b905081811015611c275760405162461bcd60e51b81526004016102629061379f565b95945050505050565b600080856001600160a01b0316632f37b624866040518263ffffffff1660e01b8152600401611c5f9190613584565b60206040518083038186803b158015611c7757600080fd5b505afa158015611c8b573d6000803e3d6000fd5b505050506040513d601f19601f82011682018060405250810190611caf9190613210565b611ccb5760405162461bcd60e51b8152600401610262906138c3565b60405163f8b2cb4f60e01b8152611cfb906001600160a01b0388169063f8b2cb4f90611764908990600401613584565b841115611d1a5760405162461bcd60e51b815260040161026290613898565b60405163f8b2cb4f60e01b81526001600160a01b038716906382f652ad90829063f8b2cb4f90611d4e908a90600401613584565b60206040518083038186803b158015611d6657600080fd5b505afa158015611d7a573d6000803e3d6000fd5b505050506040513d601f19601f82011682018060405250810190611d9e9190613532565b604051634a46c67360e11b81526001600160a01b038a169063948d8ce690611dca908b90600401613584565b60206040518083038186803b158015611de257600080fd5b505afa158015611df6573d6000803e3d6000fd5b505050506040513d601f19601f82011682018060405250810190611e1a9190613532565b8a6001600160a01b03166318160ddd6040518163ffffffff1660e01b815260040160206040518083038186803b158015611e5357600080fd5b505afa158015611e67573d6000803e3d6000fd5b505050506040513d601f19601f82011682018060405250810190611e8b9190613532565b8a6001600160a01b031663936c34776040518163ffffffff1660e01b815260040160206040518083038186803b158015611ec457600080fd5b505afa158015611ed8573d6000803e3d6000fd5b505050506040513d601f19601f82011682018060405250810190611efc9190613532565b898c6001600160a01b031663d4cadf686040518163ffffffff1660e01b815260040160206040518083038186803b158015611f3657600080fd5b505afa158015611f4a573d6000803e3d6000fd5b505050506040513d601f19601f82011682018060405250810190611f6e9190613532565b6040518763ffffffff1660e01b8152600401611f8f96959493929190613acb565b60206040518083038186803b158015611fa757600080fd5b505afa158015611fbb573d6000803e3d6000fd5b505050506040513d601f19601f82011682018060405250810190611fdf9190613532565b905080611ffe5760405162461bcd60e51b8152600401610262906136f2565b8281111561201e5760405162461bcd60e51b815260040161026290613844565b6117ec816000613035565b8054600160a01b900460ff166120515760405162461bcd60e51b815260040161026290613609565b81612060438360010154612f5e565b101561207e5760405162461bcd60e51b815260040161026290613940565b6000846001600160a01b03166318160ddd6040518163ffffffff1660e01b815260040160206040518083038186803b1580156120b957600080fd5b505afa1580156120cd573d6000803e3d6000fd5b505050506040513d601f19601f820116820180604052508101906120f19190613532565b9050600061217c612106838560020154613035565b866001600160a01b031663936c34776040518163ffffffff1660e01b815260040160206040518083038186803b15801561213f57600080fd5b505afa158015612153573d6000803e3d6000fd5b505050506040513d601f19601f820116820180604052508101906121779190613532565b612f99565b835460ff60a01b198116855560408051633018205f60e01b815290519293506000926001600160a01b03928316926323b872dd92908b1691633018205f91600480820192602092909190829003018186803b1580156121da57600080fd5b505afa1580156121ee573d6000803e3d6000fd5b505050506040513d601f19601f820116820180604052508101906122129190613149565b8987600301546040518463ffffffff1660e01b815260040161223693929190613598565b602060405180830381600087803b15801561225057600080fd5b505af1158015612264573d6000803e3d6000fd5b505050506040513d601f19601f820116820180604052508101906122889190613210565b9050806122a75760405162461bcd60e51b8152600401610262906139f6565b835460405163095ea7b360e01b81526001600160a01b039091169063095ea7b3906122da908990600019906004016135bc565b602060405180830381600087803b1580156122f457600080fd5b505af1158015612308573d6000803e3d6000fd5b505050506040513d601f19601f8201168201806040525081019061232c9190613210565b90508061234b5760405162461bcd60e51b8152600401610262906139f6565b835460038501546002860154604051631c9c3ca760e31b81526001600160a01b03808b169463e4e1e538946123879491909216926004016135d5565b600060405180830381600087803b1580156123a157600080fd5b505af11580156123b5573d6000803e3d6000fd5b50506040516325d2bc4160e11b81526001600160a01b038a169250634ba5788291506123e5908590600401613a74565b600060405180830381600087803b1580156123ff57600080fd5b505af1158015612413573d6000803e3d6000fd5b5050604051630257733360e21b81526001600160a01b038a16925063095dcccc915061244590339086906004016135bc565b600060405180830381600087803b15801561245f57600080fd5b505af1158015612473573d6000803e3d6000fd5b5050505050505050505050565b604051630bcded8960e21b81526000906001600160a01b03861690632f37b624906124af908790600401613584565b60206040518083038186803b1580156124c757600080fd5b505afa1580156124db573d6000803e3d6000fd5b505050506040513d601f19601f820116820180604052508101906124ff9190613210565b61251b5760405162461bcd60e51b8152600401610262906138c3565b60405163f8b2cb4f60e01b81526001600160a01b03861690635c1bbaf790829063f8b2cb4f9061254f908990600401613584565b60206040518083038186803b15801561256757600080fd5b505afa15801561257b573d6000803e3d6000fd5b505050506040513d601f19601f8201168201806040525081019061259f9190613532565b604051634a46c67360e11b81526001600160a01b0389169063948d8ce6906125cb908a90600401613584565b60206040518083038186803b1580156125e357600080fd5b505afa1580156125f7573d6000803e3d6000fd5b505050506040513d601f19601f8201168201806040525081019061261b9190613532565b896001600160a01b03166318160ddd6040518163ffffffff1660e01b815260040160206040518083038186803b15801561265457600080fd5b505afa158015612668573d6000803e3d6000fd5b505050506040513d601f19601f8201168201806040525081019061268c9190613532565b896001600160a01b031663936c34776040518163ffffffff1660e01b815260040160206040518083038186803b1580156126c557600080fd5b505afa1580156126d9573d6000803e3d6000fd5b505050506040513d601f19601f820116820180604052508101906126fd9190613532565b888b6001600160a01b031663d4cadf686040518163ffffffff1660e01b815260040160206040518083038186803b15801561273757600080fd5b505afa15801561274b573d6000803e3d6000fd5b505050506040513d601f19601f8201168201806040525081019061276f9190613532565b6040518763ffffffff1660e01b815260040161279096959493929190613acb565b60206040518083038186803b1580156127a857600080fd5b505afa1580156127bc573d6000803e3d6000fd5b505050506040513d601f19601f820116820180604052508101906127e09190613532565b9050806127ff5760405162461bcd60e51b8152600401610262906136f2565b8181111561281f5760405162461bcd60e51b815260040161026290613844565b60405163f8b2cb4f60e01b815261284f906001600160a01b0387169063f8b2cb4f906118c3908890600401613584565b811115611c275760405162461bcd60e51b8152600401610262906136c8565b6000836001600160a01b03166318160ddd6040518163ffffffff1660e01b815260040160206040518083038186803b1580156128a957600080fd5b505afa1580156128bd573d6000803e3d6000fd5b505050506040513d601f19601f820116820180604052508101906128e19190613532565b905060006129a161296883866001600160a01b031663948d8ce6876040518263ffffffff1660e01b81526004016129189190613584565b60206040518083038186803b15801561293057600080fd5b505afa158015612944573d6000803e3d6000fd5b505050506040513d601f19601f82011682018060405250810190610f679190613532565b856001600160a01b031663936c34776040518163ffffffff1660e01b815260040160206040518083038186803b15801561213f57600080fd5b90506000846001600160a01b031663f8b2cb4f856040518263ffffffff1660e01b81526004016129d19190613584565b60206040518083038186803b1580156129e957600080fd5b505afa1580156129fd573d6000803e3d6000fd5b505050506040513d601f19601f82011682018060405250810190612a219190613532565b60405163cf5e7bd360e01b81529091506001600160a01b0386169063cf5e7bd390612a50908790600401613584565b600060405180830381600087803b158015612a6a57600080fd5b505af1158015612a7e573d6000803e3d6000fd5b505050506000846001600160a01b031663a9059cbb886001600160a01b0316633018205f6040518163ffffffff1660e01b815260040160206040518083038186803b158015612acc57600080fd5b505afa158015612ae0573d6000803e3d6000fd5b505050506040513d601f19601f82011682018060405250810190612b049190613149565b846040518363ffffffff1660e01b8152600401612b229291906135bc565b602060405180830381600087803b158015612b3c57600080fd5b505af1158015612b50573d6000803e3d6000fd5b505050506040513d601f19601f82011682018060405250810190612b749190613210565b905080612b935760405162461bcd60e51b8152600401610262906139f6565b866001600160a01b03166355c32a23886001600160a01b0316633018205f6040518163ffffffff1660e01b815260040160206040518083038186803b158015612bdb57600080fd5b505afa158015612bef573d6000803e3d6000fd5b505050506040513d601f19601f82011682018060405250810190612c139190613149565b856040518363ffffffff1660e01b8152600401612c319291906135bc565b600060405180830381600087803b158015612c4b57600080fd5b505af1158015612c5f573d6000803e3d6000fd5b505060405163011075bb60e51b81526001600160a01b038a16925063220eb7609150612445908690600401613a74565b600080606080876001600160a01b031663cc77828d6040518163ffffffff1660e01b815260040160006040518083038186803b158015612cce57600080fd5b505afa158015612ce2573d6000803e3d6000fd5b505050506040513d6000823e601f3d908101601f19168201604052612d0a9190810190613165565b80519091508514612d2d5760405162461bcd60e51b815260040161026290613771565b6000896001600160a01b03166318160ddd6040518163ffffffff1660e01b815260040160206040518083038186803b158015612d6857600080fd5b505afa158015612d7c573d6000803e3d6000fd5b505050506040513d601f19601f82011682018060405250810190612da09190613532565b9050612dad886000613035565b9450612db98886612f5e565b93506000612dc78583612f99565b905080612de65760405162461bcd60e51b8152600401610262906136f2565b825167ffffffffffffffff81118015612dfe57600080fd5b50604051908082528060200260200182016040528015612e28578160200160208202803683370190505b50935060005b8351811015612f4f576000848281518110612e4557fe5b6020026020010151905060008c6001600160a01b031663f8b2cb4f836040518263ffffffff1660e01b8152600401612e7d9190613584565b60206040518083038186803b158015612e9557600080fd5b505afa158015612ea9573d6000803e3d6000fd5b505050506040513d601f19601f82011682018060405250810190612ecd9190613532565b90506000612edb8583613035565b905080612efa5760405162461bcd60e51b8152600401610262906136f2565b8b8b85818110612f0657fe5b90506020020135811015612f2c5760405162461bcd60e51b81526004016102629061379f565b80888581518110612f3957fe5b6020908102919091010152505050600101612e2e565b50505050955095509592505050565b6000806000612f6d85856130d7565b915091508015612f8f5760405162461bcd60e51b815260040161026290613a1f565b5090505b92915050565b600081612fb85760405162461bcd60e51b8152600401610262906139a1565b82612fc557506000612f93565b670de0b6b3a764000083810290848281612fdb57fe5b0414612ff95760405162461bcd60e51b81526004016102629061381a565b6002830481018181101561301f5760405162461bcd60e51b81526004016102629061381a565b600084828161302a57fe5b049695505050505050565b60008261304457506000612f93565b8282028284828161305157fe5b041461306f5760405162461bcd60e51b815260040161026290613977565b6706f05b59d3b2000081018181101561309a5760405162461bcd60e51b815260040161026290613977565b6000670de0b6b3a76400008261302a565b6000828201838110156130d05760405162461bcd60e51b815260040161026290613a4a565b9392505050565b6000808383116130ed57505080820360006130f5565b505081810360015b9250929050565b8051612f9381613b1a565b60008083601f840112613118578081fd5b50813567ffffffffffffffff81111561312f578182fd5b60208301915083602080830285010111156130f557600080fd5b60006020828403121561315a578081fd5b81516130d081613b1a565b60006020808385031215613177578182fd5b825167ffffffffffffffff8082111561318e578384fd5b81850186601f82011261319f578485fd5b80519250818311156131af578485fd5b83830291506131bf848301613af3565b8381528481019082860184840187018a10156131d9578788fd5b8794505b85851015613203576131ef8a826130fc565b8352600194909401939186019186016131dd565b5098975050505050505050565b600060208284031215613221578081fd5b815180151581146130d0578182fd5b600080600060608486031215613244578182fd5b833561324f81613b1a565b9250602084013561325f81613b1a565b9150604084013561326f81613b1a565b809150509250925092565b6000806000806080858703121561328f578081fd5b843561329a81613b1a565b935060208501356132aa81613b1a565b925060408501356132ba81613b1a565b9396929550929360600135925050565b600080600080600060a086880312156132e1578081fd5b85356132ec81613b1a565b945060208601356132fc81613b1a565b9350604086013561330c81613b1a565b94979396509394606081013594506080013592915050565b60008060008060006080868803121561333b578081fd5b853561334681613b1a565b9450602086013561335681613b1a565b935060408601359250606086013567ffffffffffffffff811115613378578182fd5b61338488828901613107565b969995985093965092949392505050565b600080600080608085870312156133aa578384fd5b84356133b581613b1a565b935060208501356133c581613b1a565b93969395505050506040820135916060013590565b600080600080600060a086880312156133f1578081fd5b85356133fc81613b1a565b9450602086013561340c81613b1a565b94979496505050506040830135926060810135926080909101359150565b600080600080600080600060c0888a031215613444578182fd5b873561344f81613b1a565b965060208801359550604088013567ffffffffffffffff811115613471578283fd5b61347d8a828b01613107565b989b979a50986060810135976080820135975060a09091013595509350505050565b600080600080600080600060a0888a0312156134b9578081fd5b87356134c481613b1a565b96506020880135955060408801359450606088013567ffffffffffffffff808211156134ee578283fd5b6134fa8b838c01613107565b909650945060808a0135915080821115613512578283fd5b5061351f8a828b01613107565b989b979a50959850939692959293505050565b600060208284031215613543578081fd5b5051919050565b6000815180845260208085019450808401835b838110156135795781518752958201959082019060010161355d565b509495945050505050565b6001600160a01b0391909116815260200190565b6001600160a01b039384168152919092166020820152604081019190915260600190565b6001600160a01b03929092168252602082015260400190565b6001600160a01b039390931683526020830191909152604082015260600190565b6000602082526130d0602083018461354a565b60208082526013908201527211549497d393d7d513d2d15397d0d3d3535255606a1b604082015260600190565b6020808252601e908201527f4552525f4752414455414c5f5550444154455f54494d455f54524156454c0000604082015260600190565b6020808252818101527f4552525f5745494748545f4348414e47455f54494d455f42454c4f575f4d494e604082015260600190565b6020808252600c908201526b11549497d254d7d093d5539160a21b604082015260600190565b60208082526010908201526f4552525f4d41585f494e5f524154494f60801b604082015260600190565b6020808252600f908201526e08aa4a4be9a82a890be82a0a0a49eb608b1b604082015260600190565b6020808252600e908201526d11549497d3505617d5d15251d21560921b604082015260600190565b60208082526014908201527311549497d3505617d513d5105317d5d15251d21560621b604082015260600190565b60208082526014908201527308aa4a4be829a9eaa9ca8a6be9a92a69a82a886960631b604082015260600190565b6020808252600d908201526c11549497d31253525517d3d555609a1b604082015260600190565b6020808252600f908201526e4552525f4d494e5f42414c414e434560881b604082015260600190565b60208082526011908201527011549497d0d0539517d413d2d157d65155607a1b604082015260600190565b60208082526010908201526f11549497d1125597d25395115493905360821b604082015260600190565b6020808252600c908201526b22a9292fa624a6a4aa2fa4a760a11b604082015260600190565b60208082526014908201527322a9292faba2a4a3a42a2fa122a627abafa6a4a760611b604082015260600190565b6020808252601190820152704552525f4d41585f4f55545f524154494f60781b604082015260600190565b6020808252600d908201526c11549497d393d517d093d55391609a1b604082015260600190565b6020808252600e908201526d11549497d3525397d5d15251d21560921b604082015260600190565b60208082526014908201527308aa4a4beae8a928e90a8be82849eac8abe9a82b60631b604082015260600190565b6020808252601b908201527f4552525f54494d454c4f434b5f5354494c4c5f434f554e54494e470000000000604082015260600190565b60208082526010908201526f4552525f4d554c5f4f564552464c4f5760801b604082015260600190565b6020808252600c908201526b4552525f4449565f5a45524f60a01b604082015260600190565b60208082526015908201527411549497d4115391125391d7d513d2d15397d05111605a1b604082015260600190565b6020808252600f908201526e4552525f45524332305f46414c534560881b604082015260600190565b6020808252601190820152704552525f5355425f554e444552464c4f5760781b604082015260600190565b60208082526010908201526f4552525f4144445f4f564552464c4f5760801b604082015260600190565b90815260200190565b600083825260406020830152613a96604083018461354a565b949350505050565b918252602082015260400190565b600084825283602083015260606040830152611c27606083018461354a565b958652602086019490945260408501929092526060840152608083015260a082015260c00190565b60405181810167ffffffffffffffff81118282101715613b1257600080fd5b604052919050565b6001600160a01b0381168114613b2f57600080fd5b5056fea2646970667358221220c6c4b164a4d183246295b26129761be37f2d06701e17e9386f701bfffbdf554364736f6c63430006060033",
  "immutableReferences": {},
  "source": "// SPDX-License-Identifier: GPL-3.0-or-later\npragma solidity ^0.6.6;\n\n// Needed to pass in structs\npragma experimental ABIEncoderV2;\n\n// Imports\n\nimport \"../ConfigurableRightsPool.sol\";\nimport \"../PCToken.sol\";\nimport \"../IBFactory.sol\";\n\n\n/**\n * @author Balancer Labs\n * @title Factor out the weight updates\n */\nlibrary SmartPoolManager {\n    // Type declarations\n\n    struct NewToken {\n        address addr;\n        bool isCommitted;\n        uint commitBlock;\n        uint denorm;\n        uint balance;\n    }\n\n    // updateWeight and pokeWeights are unavoidably long\n    /* solhint-disable function-max-lines */\n\n    /**\n     * @notice Update the weight of an existing token\n     * @dev Refactored to library to make CRPFactory deployable\n     * @param self - ConfigurableRightsPool instance calling the library\n     * @param bPool - Core BPool the CRP is wrapping\n     * @param token - token to be reweighted\n     * @param newWeight - new weight of the token\n    */\n    function updateWeight(\n        ConfigurableRightsPool self,\n        IBPool bPool,\n        address token,\n        uint newWeight\n    )\n        external\n    {\n        require(newWeight >= BalancerConstants.MIN_WEIGHT, \"ERR_MIN_WEIGHT\");\n        require(newWeight <= BalancerConstants.MAX_WEIGHT, \"ERR_MAX_WEIGHT\");\n\n        uint currentWeight = bPool.getDenormalizedWeight(token);\n        // Save gas; return immediately on NOOP\n        if (currentWeight == newWeight) {\n             return;\n        }\n\n        uint currentBalance = bPool.getBalance(token);\n        uint totalSupply = self.totalSupply();\n        uint totalWeight = bPool.getTotalDenormalizedWeight();\n        uint poolShares;\n        uint deltaBalance;\n        uint deltaWeight;\n        uint newBalance;\n\n        if (newWeight < currentWeight) {\n            // This means the controller will withdraw tokens to keep price\n            // So they need to redeem PCTokens\n            // This will raise the weight; check to make sure it doesn't go over the max\n            deltaWeight = BalancerSafeMath.bsub(currentWeight, newWeight);\n\n            require(BalancerSafeMath.badd(totalWeight, deltaWeight) <= BalancerConstants.MAX_TOTAL_WEIGHT,\n                    \"ERR_MAX_TOTAL_WEIGHT\");\n\n\n            // poolShares = totalSupply * (deltaWeight / totalWeight)\n            poolShares = BalancerSafeMath.bmul(totalSupply,\n                                               BalancerSafeMath.bdiv(deltaWeight, totalWeight));\n\n            // deltaBalance = currentBalance * (deltaWeight / currentWeight)\n            deltaBalance = BalancerSafeMath.bmul(currentBalance,\n                                                 BalancerSafeMath.bdiv(deltaWeight, currentWeight));\n\n            // New balance cannot be lower than MIN_BALANCE\n            newBalance = BalancerSafeMath.bsub(currentBalance, deltaBalance);\n\n            require(newBalance >= BalancerConstants.MIN_BALANCE, \"ERR_MIN_BALANCE\");\n\n            // First get the tokens from this contract (Pool Controller) to msg.sender\n            bPool.rebind(token, newBalance, newWeight);\n\n            // Now with the tokens this contract can send them to msg.sender\n            bool xfer = IERC20(token).transfer(msg.sender, deltaBalance);\n            require(xfer, \"ERR_ERC20_FALSE\");\n\n            self.pullPoolShareFromLib(msg.sender, poolShares);\n            self.burnPoolShareFromLib(poolShares);\n        }\n        else {\n            // This means the controller will deposit tokens to keep the price.\n            // They will be minted and given PCTokens\n            deltaWeight = BalancerSafeMath.bsub(newWeight, currentWeight);\n\n            require(BalancerSafeMath.badd(totalWeight, deltaWeight) <= BalancerConstants.MAX_TOTAL_WEIGHT,\n                    \"ERR_MAX_TOTAL_WEIGHT\");\n\n            // poolShares = totalSupply * (deltaWeight / totalWeight)\n            poolShares = BalancerSafeMath.bmul(totalSupply,\n                                               BalancerSafeMath.bdiv(deltaWeight, totalWeight));\n            // deltaBalance = currentBalance * (deltaWeight / currentWeight)\n            deltaBalance = BalancerSafeMath.bmul(currentBalance,\n                                                 BalancerSafeMath.bdiv(deltaWeight, currentWeight));\n\n            // First gets the tokens from msg.sender to this contract (Pool Controller)\n            bool xfer = IERC20(token).transferFrom(msg.sender, address(this), deltaBalance);\n            require(xfer, \"ERR_ERC20_FALSE\");\n\n            // Now with the tokens this contract can bind them to the pool it controls\n            bPool.rebind(token, BalancerSafeMath.badd(currentBalance, deltaBalance), newWeight);\n\n            self.mintPoolShareFromLib(poolShares);\n            self.pushPoolShareFromLib(msg.sender, poolShares);\n        }\n    }\n\n    /**\n     * @notice External function called to make the contract update weights according to plan\n     * @param bPool - Core BPool the CRP is wrapping\n     * @param startBlock - when weights should start to change\n     * @param endBlock - when weights will be at their final values\n     * @param startWeights - current token weights\n     * @param newWeights - target token weights\n    */\n    function pokeWeights(\n        IBPool bPool,\n        uint startBlock,\n        uint endBlock,\n        uint[] calldata startWeights,\n        uint[] calldata newWeights\n    )\n        external\n    {\n        // Do nothing if we call this when there is no update plan\n        if (startBlock == 0) {\n            return;\n        }\n\n        // Error to call it before the start of the plan\n        require(block.number >= startBlock, \"ERR_CANT_POKE_YET\");\n        // Proposed error message improvement\n        // require(block.number >= startBlock, \"ERR_NO_HOKEY_POKEY\");\n\n        // This allows for pokes after endBlock that get weights to endWeights\n        // Get the current block (or the endBlock, if we're already past the end)\n        uint currentBlock;\n        if (block.number > endBlock) {\n            currentBlock = endBlock;\n        }\n        else {\n            currentBlock = block.number;\n        }\n\n        uint blockPeriod = BalancerSafeMath.bsub(endBlock, startBlock);\n        uint blocksElapsed = BalancerSafeMath.bsub(currentBlock, startBlock);\n        uint weightDelta;\n        uint deltaPerBlock;\n        uint newWeight;\n\n        address[] memory tokens = bPool.getCurrentTokens();\n\n        // This loop contains external calls\n        // External calls are to math libraries or the underlying pool, so low risk\n        for (uint i = 0; i < tokens.length; i++) {\n            // Make sure it does nothing if the new and old weights are the same (saves gas)\n            // It's a degenerate case if they're *all* the same, but you certainly could have\n            // a plan where you only change some of the weights in the set\n            if (startWeights[i] != newWeights[i]) {\n                if (newWeights[i] < startWeights[i]) {\n                    // We are decreasing the weight\n\n                    // First get the total weight delta\n                    weightDelta = BalancerSafeMath.bsub(startWeights[i], newWeights[i]);\n                    // And the amount it should change per block = total change/number of blocks in the period\n                    deltaPerBlock = BalancerSafeMath.bdiv(weightDelta, blockPeriod);\n                    //deltaPerBlock = bdivx(weightDelta, blockPeriod);\n\n                     // newWeight = startWeight - (blocksElapsed * deltaPerBlock)\n                    newWeight = BalancerSafeMath.bsub(startWeights[i],\n                                                      BalancerSafeMath.bmul(blocksElapsed, deltaPerBlock));\n                }\n                else {\n                    // We are increasing the weight\n\n                    // First get the total weight delta\n                    weightDelta = BalancerSafeMath.bsub(newWeights[i], startWeights[i]);\n                    // And the amount it should change per block = total change/number of blocks in the period\n                    deltaPerBlock = BalancerSafeMath.bdiv(weightDelta, blockPeriod);\n                    //deltaPerBlock = bdivx(weightDelta, blockPeriod);\n\n                     // newWeight = startWeight + (blocksElapsed * deltaPerBlock)\n                    newWeight = BalancerSafeMath.badd(startWeights[i],\n                                                      BalancerSafeMath.bmul(blocksElapsed, deltaPerBlock));\n                }\n\n                uint bal = bPool.getBalance(tokens[i]);\n\n                bPool.rebind(tokens[i], bal, newWeight);\n            }\n        }\n    }\n\n    /* solhint-enable function-max-lines */\n\n    /**\n     * @notice Schedule (commit) a token to be added; must call applyAddToken after a fixed\n     *         number of blocks to actually add the token\n     * @dev Not sure about the naming here. Kind of reversed; I would think you would \"Apply\" to add\n     *      a token, then \"Commit\" it to actually do the binding.\n     * @param bPool - Core BPool the CRP is wrapping\n     * @param token - the token to be added\n     * @param balance - how much to be added\n     * @param denormalizedWeight - the desired token weight\n     * @param newToken - NewToken struct used to hold the token data (in CRP storage)\n     */\n    function commitAddToken(\n        IBPool bPool,\n        address token,\n        uint balance,\n        uint denormalizedWeight,\n        NewToken storage newToken\n    )\n        external\n    {\n        require(!bPool.isBound(token), \"ERR_IS_BOUND\");\n\n        require(denormalizedWeight <= BalancerConstants.MAX_WEIGHT, \"ERR_WEIGHT_ABOVE_MAX\");\n        require(denormalizedWeight >= BalancerConstants.MIN_WEIGHT, \"ERR_WEIGHT_BELOW_MIN\");\n        require(BalancerSafeMath.badd(bPool.getTotalDenormalizedWeight(),\n                                      denormalizedWeight) <= BalancerConstants.MAX_TOTAL_WEIGHT,\n                \"ERR_MAX_TOTAL_WEIGHT\");\n\n        newToken.addr = token;\n        newToken.balance = balance;\n        newToken.denorm = denormalizedWeight;\n        newToken.commitBlock = block.number;\n        newToken.isCommitted = true;\n    }\n\n    /**\n     * @notice Add the token previously committed (in commitAddToken) to the pool\n     * @param self - ConfigurableRightsPool instance calling the library\n     * @param bPool - Core BPool the CRP is wrapping\n     * @param addTokenTimeLockInBlocks -  Wait time between committing and applying a new token\n     * @param newToken - NewToken struct used to hold the token data (in CRP storage)\n     */\n    function applyAddToken(\n        ConfigurableRightsPool self,\n        IBPool bPool,\n        uint addTokenTimeLockInBlocks,\n        NewToken storage newToken\n    )\n        external\n    {\n        require(newToken.isCommitted, \"ERR_NO_TOKEN_COMMIT\");\n        require(BalancerSafeMath.bsub(block.number, newToken.commitBlock) >= addTokenTimeLockInBlocks,\n                                      \"ERR_TIMELOCK_STILL_COUNTING\");\n\n        uint totalSupply = self.totalSupply();\n\n        // poolShares = totalSupply * newTokenWeight / totalWeight\n        uint poolShares = BalancerSafeMath.bdiv(BalancerSafeMath.bmul(totalSupply, newToken.denorm),\n                                                bPool.getTotalDenormalizedWeight());\n\n        // Clear this to allow adding more tokens\n        newToken.isCommitted = false;\n\n        // First gets the tokens from msg.sender to this contract (Pool Controller)\n        // bool xfer = IERC20(newToken.addr).transferFrom(msg.sender, address(this), newToken.balance);\n        bool returnValue = IERC20(newToken.addr).transferFrom(self.getController(), address(self), newToken.balance);\n        require(returnValue, \"ERR_ERC20_FALSE\");\n\n        // Now with the tokens this contract can bind them to the pool it controls\n        // Approves bPool to pull from this controller\n        // Approve unlimited, same as when creating the pool, so they can join pools later\n        returnValue = IERC20(newToken.addr).approve(address(bPool), uint(-1));\n        require(returnValue, \"ERR_ERC20_FALSE\");\n\n        bPool.bind(newToken.addr, newToken.balance, newToken.denorm);\n\n        self.mintPoolShareFromLib(poolShares);\n        self.pushPoolShareFromLib(msg.sender, poolShares);\n    }\n\n     /**\n     * @notice Remove a token from the pool\n     * @param self - ConfigurableRightsPool instance calling the library\n     * @param bPool - Core BPool the CRP is wrapping\n     * @param token - token to remove\n     */\n    function removeToken(\n        ConfigurableRightsPool self,\n        IBPool bPool,\n        address token\n    )\n        external\n    {\n        uint totalSupply = self.totalSupply();\n\n        // poolShares = totalSupply * tokenWeight / totalWeight\n        uint poolShares = BalancerSafeMath.bdiv(BalancerSafeMath.bmul(totalSupply,\n                                                                      bPool.getDenormalizedWeight(token)),\n                                                bPool.getTotalDenormalizedWeight());\n\n        // this is what will be unbound from the pool\n        // Have to get it before unbinding\n        uint balance = bPool.getBalance(token);\n\n        // Unbind and get the tokens out of balancer pool\n        bPool.unbind(token);\n\n        // Now with the tokens this contract can send them to msg.sender\n        bool xfer = IERC20(token).transfer(self.getController(), balance);\n        require(xfer, \"ERR_ERC20_FALSE\");\n\n        self.pullPoolShareFromLib(self.getController(), poolShares);\n        self.burnPoolShareFromLib(poolShares);\n    }\n\n    /**\n     * @notice Update weights in a predetermined way, between startBlock and endBlock,\n     *         through external cals to pokeWeights\n     * @param bPool - Core BPool the CRP is wrapping\n     * @param newToken - NewToken instance we're using to store the new token data (in CRP storage)\n     * @param newWeights - final weights we want to get to\n     * @param startBlock - when weights should start to change\n     * @param endBlock - when weights will be at their final values\n     * @param minimumWeightChangeBlockPeriod - needed to validate the block period\n    */\n    function updateWeightsGradually(\n        IBPool bPool,\n        NewToken storage newToken,\n        uint[] calldata newWeights,\n        uint startBlock,\n        uint endBlock,\n        uint minimumWeightChangeBlockPeriod\n    )\n        external\n        view\n        returns (uint actualStartBlock, uint[] memory startWeights)\n    {\n        // Don't start this when we're in the middle of adding a new token\n        require(!newToken.isCommitted, \"ERR_PENDING_TOKEN_ADD\");\n\n        // Enforce a minimum time over which to make the changes\n        // The also prevents endBlock <= startBlock\n        require(BalancerSafeMath.bsub(endBlock, startBlock) >= minimumWeightChangeBlockPeriod,\n                \"ERR_WEIGHT_CHANGE_TIME_BELOW_MIN\");\n        require(block.number < endBlock, \"ERR_GRADUAL_UPDATE_TIME_TRAVEL\");\n\n        address[] memory tokens = bPool.getCurrentTokens();\n\n        uint weightsSum = 0;\n        startWeights = new uint[](tokens.length);\n\n        // Check that endWeights are valid now to avoid reverting in a future pokeWeights call\n        //\n        // This loop contains external calls\n        // External calls are to math libraries or the underlying pool, so low risk\n        for (uint i = 0; i < tokens.length; i++) {\n            require(newWeights[i] <= BalancerConstants.MAX_WEIGHT, \"ERR_WEIGHT_ABOVE_MAX\");\n            require(newWeights[i] >= BalancerConstants.MIN_WEIGHT, \"ERR_WEIGHT_BELOW_MIN\");\n\n            weightsSum = BalancerSafeMath.badd(weightsSum, newWeights[i]);\n            startWeights[i] = bPool.getDenormalizedWeight(tokens[i]);\n        }\n        require(weightsSum <= BalancerConstants.MAX_TOTAL_WEIGHT, \"ERR_MAX_TOTAL_WEIGHT\");\n\n        if (block.number > startBlock && block.number < endBlock) {\n            // This means the weight update should start ASAP\n            // Moving the start block up prevents a big jump/discontinuity in the weights\n            //\n            // Only valid within the startBlock - endBlock period!\n            // Should not happen, but defensively check that we aren't\n            // setting the start point past the end point\n            actualStartBlock = block.number;\n        }\n        else{\n            actualStartBlock = startBlock;\n        }\n    }\n\n    /**\n     * @notice Join a pool\n     * @param self - ConfigurableRightsPool instance calling the library\n     * @param bPool - Core BPool the CRP is wrapping\n     * @param poolAmountOut - number of pool tokens to receive\n     * @param maxAmountsIn - Max amount of asset tokens to spend\n     * @return actualAmountsIn - calculated values of the tokens to pull in\n     */\n    function joinPool(\n        ConfigurableRightsPool self,\n        IBPool bPool,\n        uint poolAmountOut,\n        uint[] calldata maxAmountsIn\n    )\n         external\n         view\n         returns (uint[] memory actualAmountsIn)\n    {\n        address[] memory tokens = bPool.getCurrentTokens();\n\n        require(maxAmountsIn.length == tokens.length, \"ERR_AMOUNTS_MISMATCH\");\n\n        uint poolTotal = self.totalSupply();\n        uint ratio = BalancerSafeMath.bdiv(poolAmountOut, poolTotal);\n\n        require(ratio != 0, \"ERR_MATH_APPROX\");\n\n        // We know the length of the array; initialize it, and fill it below\n        // Cannot do \"push\" in memory\n        actualAmountsIn = new uint[](tokens.length);\n\n        // This loop contains external calls\n        // External calls are to math libraries or the underlying pool, so low risk\n        for (uint i = 0; i < tokens.length; i++) {\n            address t = tokens[i];\n            uint bal = bPool.getBalance(t);\n            uint tokenAmountIn = BalancerSafeMath.bmul(ratio, bal);\n\n            require(tokenAmountIn != 0, \"ERR_MATH_APPROX\");\n            require(tokenAmountIn <= maxAmountsIn[i], \"ERR_LIMIT_IN\");\n\n            actualAmountsIn[i] = tokenAmountIn;\n        }\n    }\n\n    /**\n     * @notice Exit a pool - redeem pool tokens for underlying assets\n     * @param self - ConfigurableRightsPool instance calling the library\n     * @param bPool - Core BPool the CRP is wrapping\n     * @param poolAmountIn - amount of pool tokens to redeem\n     * @param minAmountsOut - minimum amount of asset tokens to receive\n     * @return exitFee - calculated exit fee\n     * @return pAiAfterExitFee - final amount in (after accounting for exit fee)\n     * @return actualAmountsOut - calculated amounts of each token to pull\n     */\n    function exitPool(\n        ConfigurableRightsPool self,\n        IBPool bPool,\n        uint poolAmountIn,\n        uint[] calldata minAmountsOut\n    )\n        external\n        view\n        returns (uint exitFee, uint pAiAfterExitFee, uint[] memory actualAmountsOut)\n    {\n        address[] memory tokens = bPool.getCurrentTokens();\n\n        require(minAmountsOut.length == tokens.length, \"ERR_AMOUNTS_MISMATCH\");\n\n        uint poolTotal = self.totalSupply();\n\n        // Calculate exit fee and the final amount in\n        exitFee = BalancerSafeMath.bmul(poolAmountIn, BalancerConstants.EXIT_FEE);\n        pAiAfterExitFee = BalancerSafeMath.bsub(poolAmountIn, exitFee);\n\n        uint ratio = BalancerSafeMath.bdiv(pAiAfterExitFee, poolTotal);\n\n        require(ratio != 0, \"ERR_MATH_APPROX\");\n\n        actualAmountsOut = new uint[](tokens.length);\n\n        // This loop contains external calls\n        // External calls are to math libraries or the underlying pool, so low risk\n        for (uint i = 0; i < tokens.length; i++) {\n            address t = tokens[i];\n            uint bal = bPool.getBalance(t);\n            uint tokenAmountOut = BalancerSafeMath.bmul(ratio, bal);\n\n            require(tokenAmountOut != 0, \"ERR_MATH_APPROX\");\n            require(tokenAmountOut >= minAmountsOut[i], \"ERR_LIMIT_OUT\");\n\n            actualAmountsOut[i] = tokenAmountOut;\n        }\n    }\n\n    /**\n     * @notice Join by swapping a fixed amount of an external token in (must be present in the pool)\n     *         System calculates the pool token amount\n     * @param self - ConfigurableRightsPool instance calling the library\n     * @param bPool - Core BPool the CRP is wrapping\n     * @param tokenIn - which token we're transferring in\n     * @param tokenAmountIn - amount of deposit\n     * @param minPoolAmountOut - minimum of pool tokens to receive\n     * @return poolAmountOut - amount of pool tokens minted and transferred\n     */\n    function joinswapExternAmountIn(\n        ConfigurableRightsPool self,\n        IBPool bPool,\n        address tokenIn,\n        uint tokenAmountIn,\n        uint minPoolAmountOut\n    )\n        external\n        view\n        returns (uint poolAmountOut)\n    {\n        require(bPool.isBound(tokenIn), \"ERR_NOT_BOUND\");\n        require(tokenAmountIn <= BalancerSafeMath.bmul(bPool.getBalance(tokenIn),\n                                                       BalancerConstants.MAX_IN_RATIO),\n                                                       \"ERR_MAX_IN_RATIO\");\n\n        poolAmountOut = bPool.calcPoolOutGivenSingleIn(\n                            bPool.getBalance(tokenIn),\n                            bPool.getDenormalizedWeight(tokenIn),\n                            self.totalSupply(),\n                            bPool.getTotalDenormalizedWeight(),\n                            tokenAmountIn,\n                            bPool.getSwapFee()\n                        );\n\n        require(poolAmountOut >= minPoolAmountOut, \"ERR_LIMIT_OUT\");\n    }\n\n    /**\n     * @notice Join by swapping an external token in (must be present in the pool)\n     *         To receive an exact amount of pool tokens out. System calculates the deposit amount\n     * @param self - ConfigurableRightsPool instance calling the library\n     * @param bPool - Core BPool the CRP is wrapping\n     * @param tokenIn - which token we're transferring in (system calculates amount required)\n     * @param poolAmountOut - amount of pool tokens to be received\n     * @param maxAmountIn - Maximum asset tokens that can be pulled to pay for the pool tokens\n     * @return tokenAmountIn - amount of asset tokens transferred in to purchase the pool tokens\n     */\n    function joinswapPoolAmountOut(\n        ConfigurableRightsPool self,\n        IBPool bPool,\n        address tokenIn,\n        uint poolAmountOut,\n        uint maxAmountIn\n    )\n        external\n        view\n        returns (uint tokenAmountIn)\n    {\n        require(bPool.isBound(tokenIn), \"ERR_NOT_BOUND\");\n\n        tokenAmountIn = bPool.calcSingleInGivenPoolOut(\n                            bPool.getBalance(tokenIn),\n                            bPool.getDenormalizedWeight(tokenIn),\n                            self.totalSupply(),\n                            bPool.getTotalDenormalizedWeight(),\n                            poolAmountOut,\n                            bPool.getSwapFee()\n                        );\n\n        require(tokenAmountIn != 0, \"ERR_MATH_APPROX\");\n        require(tokenAmountIn <= maxAmountIn, \"ERR_LIMIT_IN\");\n\n        require(tokenAmountIn <= BalancerSafeMath.bmul(bPool.getBalance(tokenIn),\n                                                       BalancerConstants.MAX_IN_RATIO),\n                                                       \"ERR_MAX_IN_RATIO\");\n    }\n\n    /**\n     * @notice Exit a pool - redeem a specific number of pool tokens for an underlying asset\n     *         Asset must be present in the pool, and will incur an EXIT_FEE (if set to non-zero)\n     * @param self - ConfigurableRightsPool instance calling the library\n     * @param bPool - Core BPool the CRP is wrapping\n     * @param tokenOut - which token the caller wants to receive\n     * @param poolAmountIn - amount of pool tokens to redeem\n     * @param minAmountOut - minimum asset tokens to receive\n     * @return exitFee - calculated exit fee\n     * @return tokenAmountOut - amount of asset tokens returned\n     */\n    function exitswapPoolAmountIn(\n        ConfigurableRightsPool self,\n        IBPool bPool,\n        address tokenOut,\n        uint poolAmountIn,\n        uint minAmountOut\n    )\n        external\n        view\n        returns (uint exitFee, uint tokenAmountOut)\n    {\n        require(bPool.isBound(tokenOut), \"ERR_NOT_BOUND\");\n\n        tokenAmountOut = bPool.calcSingleOutGivenPoolIn(\n                            bPool.getBalance(tokenOut),\n                            bPool.getDenormalizedWeight(tokenOut),\n                            self.totalSupply(),\n                            bPool.getTotalDenormalizedWeight(),\n                            poolAmountIn,\n                            bPool.getSwapFee()\n                        );\n\n        require(tokenAmountOut >= minAmountOut, \"ERR_LIMIT_OUT\");\n        require(tokenAmountOut <= BalancerSafeMath.bmul(bPool.getBalance(tokenOut),\n                                                        BalancerConstants.MAX_OUT_RATIO),\n                                                        \"ERR_MAX_OUT_RATIO\");\n\n        exitFee = BalancerSafeMath.bmul(poolAmountIn, BalancerConstants.EXIT_FEE);\n    }\n\n    /**\n     * @notice Exit a pool - redeem pool tokens for a specific amount of underlying assets\n     *         Asset must be present in the pool\n     * @param self - ConfigurableRightsPool instance calling the library\n     * @param bPool - Core BPool the CRP is wrapping\n     * @param tokenOut - which token the caller wants to receive\n     * @param tokenAmountOut - amount of underlying asset tokens to receive\n     * @param maxPoolAmountIn - maximum pool tokens to be redeemed\n     * @return exitFee - calculated exit fee\n     * @return poolAmountIn - amount of pool tokens redeemed\n     */\n    function exitswapExternAmountOut(\n        ConfigurableRightsPool self,\n        IBPool bPool,\n        address tokenOut,\n        uint tokenAmountOut,\n        uint maxPoolAmountIn\n    )\n        external\n        view\n        returns (uint exitFee, uint poolAmountIn)\n    {\n        require(bPool.isBound(tokenOut), \"ERR_NOT_BOUND\");\n        require(tokenAmountOut <= BalancerSafeMath.bmul(bPool.getBalance(tokenOut),\n                                                        BalancerConstants.MAX_OUT_RATIO),\n                                                        \"ERR_MAX_OUT_RATIO\");\n        poolAmountIn = bPool.calcPoolInGivenSingleOut(\n                            bPool.getBalance(tokenOut),\n                            bPool.getDenormalizedWeight(tokenOut),\n                            self.totalSupply(),\n                            bPool.getTotalDenormalizedWeight(),\n                            tokenAmountOut,\n                            bPool.getSwapFee()\n                        );\n\n        require(poolAmountIn != 0, \"ERR_MATH_APPROX\");\n        require(poolAmountIn <= maxPoolAmountIn, \"ERR_LIMIT_IN\");\n\n        exitFee = BalancerSafeMath.bmul(poolAmountIn, BalancerConstants.EXIT_FEE);\n    }\n}\n",
  "sourcePath": "/Users/arseny/Projects/curvelabs/research/1-balancer-sale/contracts/libraries/SmartPoolManager.sol",
  "compiler": {
    "name": "solc",
    "version": "0.6.6+commit.6c089d02.Emscripten.clang"
  },
  "schemaVersion": "3.2.4",
  "updatedAt": "2020-09-10T10:38:34.241Z",
  "devdoc": {
    "author": "Balancer Labs",
    "methods": {
      "applyAddToken(ConfigurableRightsPool,IBPool,uint256,SmartPoolManager.NewToken storage)": {
        "params": {
          "addTokenTimeLockInBlocks": "-  Wait time between committing and applying a new token",
          "bPool": "- Core BPool the CRP is wrapping",
          "newToken": "- NewToken struct used to hold the token data (in CRP storage)",
          "self": "- ConfigurableRightsPool instance calling the library"
        }
      },
      "commitAddToken(IBPool,address,uint256,uint256,SmartPoolManager.NewToken storage)": {
        "details": "Not sure about the naming here. Kind of reversed; I would think you would \"Apply\" to add     a token, then \"Commit\" it to actually do the binding.",
        "params": {
          "bPool": "- Core BPool the CRP is wrapping",
          "balance": "- how much to be added",
          "denormalizedWeight": "- the desired token weight",
          "newToken": "- NewToken struct used to hold the token data (in CRP storage)",
          "token": "- the token to be added"
        }
      },
      "exitPool(ConfigurableRightsPool,IBPool,uint256,uint256[])": {
        "params": {
          "bPool": "- Core BPool the CRP is wrapping",
          "minAmountsOut": "- minimum amount of asset tokens to receive",
          "poolAmountIn": "- amount of pool tokens to redeem",
          "self": "- ConfigurableRightsPool instance calling the library"
        },
        "returns": {
          "actualAmountsOut": "- calculated amounts of each token to pull",
          "exitFee": "- calculated exit fee",
          "pAiAfterExitFee": "- final amount in (after accounting for exit fee)"
        }
      },
      "exitswapExternAmountOut(ConfigurableRightsPool,IBPool,address,uint256,uint256)": {
        "params": {
          "bPool": "- Core BPool the CRP is wrapping",
          "maxPoolAmountIn": "- maximum pool tokens to be redeemed",
          "self": "- ConfigurableRightsPool instance calling the library",
          "tokenAmountOut": "- amount of underlying asset tokens to receive",
          "tokenOut": "- which token the caller wants to receive"
        },
        "returns": {
          "exitFee": "- calculated exit fee",
          "poolAmountIn": "- amount of pool tokens redeemed"
        }
      },
      "exitswapPoolAmountIn(ConfigurableRightsPool,IBPool,address,uint256,uint256)": {
        "params": {
          "bPool": "- Core BPool the CRP is wrapping",
          "minAmountOut": "- minimum asset tokens to receive",
          "poolAmountIn": "- amount of pool tokens to redeem",
          "self": "- ConfigurableRightsPool instance calling the library",
          "tokenOut": "- which token the caller wants to receive"
        },
        "returns": {
          "exitFee": "- calculated exit fee",
          "tokenAmountOut": "- amount of asset tokens returned"
        }
      },
      "joinPool(ConfigurableRightsPool,IBPool,uint256,uint256[])": {
        "params": {
          "bPool": "- Core BPool the CRP is wrapping",
          "maxAmountsIn": "- Max amount of asset tokens to spend",
          "poolAmountOut": "- number of pool tokens to receive",
          "self": "- ConfigurableRightsPool instance calling the library"
        },
        "returns": {
          "actualAmountsIn": "- calculated values of the tokens to pull in"
        }
      },
      "joinswapExternAmountIn(ConfigurableRightsPool,IBPool,address,uint256,uint256)": {
        "params": {
          "bPool": "- Core BPool the CRP is wrapping",
          "minPoolAmountOut": "- minimum of pool tokens to receive",
          "self": "- ConfigurableRightsPool instance calling the library",
          "tokenAmountIn": "- amount of deposit",
          "tokenIn": "- which token we're transferring in"
        },
        "returns": {
          "poolAmountOut": "- amount of pool tokens minted and transferred"
        }
      },
      "joinswapPoolAmountOut(ConfigurableRightsPool,IBPool,address,uint256,uint256)": {
        "params": {
          "bPool": "- Core BPool the CRP is wrapping",
          "maxAmountIn": "- Maximum asset tokens that can be pulled to pay for the pool tokens",
          "poolAmountOut": "- amount of pool tokens to be received",
          "self": "- ConfigurableRightsPool instance calling the library",
          "tokenIn": "- which token we're transferring in (system calculates amount required)"
        },
        "returns": {
          "tokenAmountIn": "- amount of asset tokens transferred in to purchase the pool tokens"
        }
      },
      "pokeWeights(IBPool,uint256,uint256,uint256[],uint256[])": {
        "params": {
          "bPool": "- Core BPool the CRP is wrapping",
          "endBlock": "- when weights will be at their final values",
          "newWeights": "- target token weights",
          "startBlock": "- when weights should start to change",
          "startWeights": "- current token weights"
        }
      },
      "removeToken(ConfigurableRightsPool,IBPool,address)": {
        "params": {
          "bPool": "- Core BPool the CRP is wrapping",
          "self": "- ConfigurableRightsPool instance calling the library",
          "token": "- token to remove"
        }
      },
      "updateWeight(ConfigurableRightsPool,IBPool,address,uint256)": {
        "details": "Refactored to library to make CRPFactory deployable",
        "params": {
          "bPool": "- Core BPool the CRP is wrapping",
          "newWeight": "- new weight of the token",
          "self": "- ConfigurableRightsPool instance calling the library",
          "token": "- token to be reweighted"
        }
      },
      "updateWeightsGradually(IBPool,SmartPoolManager.NewToken storage,uint256[],uint256,uint256,uint256)": {
        "params": {
          "bPool": "- Core BPool the CRP is wrapping",
          "endBlock": "- when weights will be at their final values",
          "minimumWeightChangeBlockPeriod": "- needed to validate the block period",
          "newToken": "- NewToken instance we're using to store the new token data (in CRP storage)",
          "newWeights": "- final weights we want to get to",
          "startBlock": "- when weights should start to change"
        }
      }
    },
    "title": "Factor out the weight updates"
  },
  "userdoc": {
    "methods": {
      "applyAddToken(ConfigurableRightsPool,IBPool,uint256,SmartPoolManager.NewToken storage)": {
        "notice": "Add the token previously committed (in commitAddToken) to the pool"
      },
      "commitAddToken(IBPool,address,uint256,uint256,SmartPoolManager.NewToken storage)": {
        "notice": "Schedule (commit) a token to be added; must call applyAddToken after a fixed        number of blocks to actually add the token"
      },
      "exitPool(ConfigurableRightsPool,IBPool,uint256,uint256[])": {
        "notice": "Exit a pool - redeem pool tokens for underlying assets"
      },
      "exitswapExternAmountOut(ConfigurableRightsPool,IBPool,address,uint256,uint256)": {
        "notice": "Exit a pool - redeem pool tokens for a specific amount of underlying assets        Asset must be present in the pool"
      },
      "exitswapPoolAmountIn(ConfigurableRightsPool,IBPool,address,uint256,uint256)": {
        "notice": "Exit a pool - redeem a specific number of pool tokens for an underlying asset        Asset must be present in the pool, and will incur an EXIT_FEE (if set to non-zero)"
      },
      "joinPool(ConfigurableRightsPool,IBPool,uint256,uint256[])": {
        "notice": "Join a pool"
      },
      "joinswapExternAmountIn(ConfigurableRightsPool,IBPool,address,uint256,uint256)": {
        "notice": "Join by swapping a fixed amount of an external token in (must be present in the pool)        System calculates the pool token amount"
      },
      "joinswapPoolAmountOut(ConfigurableRightsPool,IBPool,address,uint256,uint256)": {
        "notice": "Join by swapping an external token in (must be present in the pool)        To receive an exact amount of pool tokens out. System calculates the deposit amount"
      },
      "pokeWeights(IBPool,uint256,uint256,uint256[],uint256[])": {
        "notice": "External function called to make the contract update weights according to plan"
      },
      "removeToken(ConfigurableRightsPool,IBPool,address)": {
        "notice": "Remove a token from the pool"
      },
      "updateWeight(ConfigurableRightsPool,IBPool,address,uint256)": {
        "notice": "Update the weight of an existing token"
      },
      "updateWeightsGradually(IBPool,SmartPoolManager.NewToken storage,uint256[],uint256,uint256,uint256)": {
        "notice": "Update weights in a predetermined way, between startBlock and endBlock,        through external cals to pokeWeights"
      }
    }
  }
}